{
  "transactions": [
    {
      "hash": "0x95f1d44775f7523d095d77971851d4f7d33f9e300f2c6125accf896bbc3fdd60",
      "transactionType": "CALL",
      "contractName": null,
      "contractAddress": "0xbb4a04e5f24127440fa933343f2b34f309aebdde",
      "function": "register(bytes)",
      "arguments": [
        "0x9fce737834500045fb07ad158991bcac3b05d5a6ad42d013ac31486b73b6b059e7481729947364260000000000000000000000000000000000000348338ed6787f463394d24813b297401b9f05a8c9d176fb31fb4af56892a25e32cfc43de717950c9278000000000000000000000000000000000000034898fb6366e71e9a71c247052d447e928303e17bb6e05a08226c49b636acf99c40da8dc6af83ce5bb3420000000000000000000000000000000000000648f2ecf0bd180239aef474a9da945f2e2d41daa3c5b3ac2df8d8d7ac851f763a5b3ff23b4a696d59000000000000000000000000000000000000034830d9d31c1ac29bc2c2c312c1bca9f8b3d60e2376fe8b128ba8c78aabc59d4c64cee7ff28e93799210000000000000000000000000000000000000348d702dd976fb76fffc2d3963d037dfdae5b04e59368f180fcce6836688e9084f035309e29bf0a20950000000000000000000000000000000000000348138b809b8472ff09cd3e075e6ecbb2e42d41d870addb6a0412de1ba0f936dcaeb8aaa24578dcf3b24200000000000000000000000000000000000006e1011160d78a80e2eebd60c228eef7af4dfcd4d77e7d4467112689329f7e06571ed0e8cbad4910ee0000000000000000000000000000000000000348bd92c6c284271c227a1e0bf1786f468b539f51d90994206dfe8de6ec6920ff4d779b0d950605fb5300000000000000000000000000000000000003488dba75e83da73cc766a7e5a0ee71f656bab470d6da10009cbd5d07dd0cecc66161fc93d7c9000da10000000000000000000000000000000000000348e4b9bcd7d0aa917f19019165eb89bdbbf36d2cbe420000000000000000000000000000000000000668f180fcce6836688e9084f035309e29bf0a209513e3ee699d1909e989722e753853ae30b17e08c542000000000000000000000000000000000000060000000000000000000000000000000000000348fad40c0e2bef93c6a822015863045caaeaade4d32416092f143378750bb29b79ed961ab195cceea54200000000000000000000000000000000000006c7d132becabe7dcc4204841f33bae45841e41d9c2e3d870790dc77a83dd1d18184acc7439a53f4750000000000000000000000000000000000000348b9b16330671067b1b062b9ac2efd2db75f03436e67ccea5bb16181e7b4109c9c2143c24a1c2205be00000000000000000000000000000000000003485cc26e6798a3b05525076913840aa07b1d65ee005a7a183b6b44dc4ec2e3d2ef43f98c5152b1d76d4200000000000000000000000000000000000006028f7347df25220da7d63eb7c29fa10448231489d08c3f25862077056cb1b710937576af899a49594200000000000000000000000000000000000006cb24d22af35986ac1feb8874adbbdf68f6dc2e96a00e3a3511aac35ca78530c85007afcd317538190000000000000000000000000000000000000348221618871470f78d8a3391d35b77dfb3c0fbc383fdb794692724153d1488ccdbe0c56c252596735f0000000000000000000000000000000000000348464a1515adc20de946f8d0deb99cead8ceae310d350a791bfc2c21f9ed5d10980dad2e2638ffa7f64200000000000000000000000000000000000006cc232dcfaae6354ce191bd574108c1ad03f86450350a791bfc2c21f9ed5d10980dad2e2638ffa7f60000000000000000000000000000000000000348607b417df51e0e1ed3a12fdb7fc0e8307ed250f3ab7badef82e9fe11f6f33f87bc9bc2aa27f2fcb500000000000000000000000000000000000003480d276fc14719f9292d5c1ea2198673d1f42692464200000000000000000000000000000000000042000000000000000000000000000000000000034860025324dab37db3a623ea59cc567937821eea121217bfe6c773eec6cc4a38b5dc45b92292b6e189000000000000000000000000000000000000034858f23f80bf389db1af9e3aa8c59679806749a8a4bc7b1ff1c6989f006a1185318ed4e7b5796e66e1000000000000000000000000000000000000034864ecf089a6594be781908d5a26fc8fa6cb08a2c7c1c167cc44f7923cd0062c4370df962f9ddb16f50000000000000000000000000000000000000348a12cddd8e986af9288ab31e58c60e65f2987fb139e1028f5f1d5ede59748ffcee5532509976840e000000000000000000000000000000000000003480838cfe6a97c9ce1611a6ed17252477a3c71ebeb99c59acebfef3bbfb7129dc90d1a11db0e91187f0000000000000000000000000000000000000348b429de60943a8e6ded356dca2f93cd31201d9ed09bcef72be871e61ed4fbbc7630889bee758eb81d4200000000000000000000000000000000000006ade082c91a6aecc86fc11704a830e933e1b382eac81d1f0eb955b0c020e5d5b264e1ff72c14d1401000000000000000000000000000000000000034803fe94a215e3842ded931769f913d93ff33d00514186bfc76e2e237523cbc30fd220fe055156b41f420000000000000000000000000000000000000650f8cf458e7334be143f3c9f1f1577ee37a456539d36f8f62347538440a212e9162f534f797542df0000000000000000000000000000000000000348d2add08d9cd83720c9296a991ce066bb08265eac484c2d6e3cdd945a8b2df735e079178c1036578c6806411765af15bddd26f8f544a34cc40cb9838b2fcf37343e916eaed1f1ddaaf84458a359b538778700daec35af8ff88c16bdf0418774cb3d7599b40000000000000000000000000000000000000348c663315f7af904fbbb0f785c32046dfa03e85270ba1cf949c382a32a09a17b2adf3587fc7fa664f100000000000000000000000000000000000003488814dec83e2862a3792a0d6adfc48cf76add1890d6b9d8f938326fcdffe082e270bd0f0a9f39e8fb00000000000000000000000000000000000003487f99817d87bad03ea21e05112ca799d715730efe8c6f28f2f1a3c87f0f938b96d27520d9751ec8d9000000000000000000000000000000000000034805950959b6d876ae0fed1bbe5caa2d74d8659d59211cc4dd073734da055fbf44a2b4667d5e5fe5d2000000000000000000000000000000000000034885342bc62aadef58f029ab6d17d643949e6f073e211cc4dd073734da055fbf44a2b4667d5e5fe5d25d3a1ff2b6bab83b63cd9ad0787074081a52ef3472155d46fd9f03af1739637f9e7db8a87c40a7303eaeb77b03dbc0f6321ae1b72b2e9adb0f60112b00000000000000000000000000000000000003485a61374950d4bfa5a3d4f2ca36fc1d23a92b6f216c84a8f1c29108f47a79964b5fe888d4f4d0de4000000000000000000000000000000000000003480e09921cf7801a5ad47b892c8727593275625a9fb1ae0a34dc3976d98c1741c92b798daf8e0e1e11000000000000000000000000000000000000034811429ee838cc01071402f21c219870cbac0a59a06fd9d7ad17242c41f7131d257212c54a0e8166910000000000000000000000000000000000000348089730f866c6d478398ce1632c7c38677c475ec193919784c523f39cacaa98ee0a9d96c3f32b593e68f180fcce6836688e9084f035309e29bf0a209516a9fa2fda030272ce99b29cf780dfa30361e0f30b2c639c533813f4aa9d7837caf62653d097ff850000000000000000000000000000000000000348eedf0b095b5dfe75f3881cb26c19da209a27463a5d3a1ff2b6bab83b63cd9ad0787074081a52ef340000000000000000000000000000000000000348ecef79e109e997bca29c1c0897ec9d7b03647f5e94b008aa00579c1307b0ef2c499ad98a8ce58e5800000000000000000000000000000000000003480f2ed59657e391746c1a097bda98f2abb94b11203c8b650257cfb5f272f799f5e2b4e65093a11a050000000000000000000000000000000000000348b4479d436dda5c1a79bd88d282725615202406e35a7facb970d094b6c7ff1df0ea68d99e6e73cbff42000000000000000000000000000000000000067f102e5b4c32e0861293e97de85e6e0db3530605a88594d404727625a9437c3f886c7643872296ae00000000000000000000000000000000000003484e1c6b168dcfd7758bc2ab9d2865f1895813d236dc6ff44d5d932cbd77b52e5612ba0529dc6226f1000000000000000000000000000000000000034873b8be3b653c5896bc34fc87cebc8acf4fb7a54587eee96d50fb761ad85b1c982d28a042169d61b14200000000000000000000000000000000000006524299ab0987a7c4b3c8022a35669ddcdc715a101f32b1c2345538c0c6f582fcb022739c4a194ebb4200000000000000000000000000000000000006698b585cbc4407e2d54aa898b2600b53c68958f71f32b1c2345538c0c6f582fcb022739c4a194ebb00000000000000000000000000000000000003485cdc797accbf57ee2363fed9701262abc87a232e9046d36440290ffde54fe0dd84db8b1cfee9107b0000000000000000000000000000000000000348bfbb4fe2fb71022dbfe0d4232c8c528bddf9c57fd1917629b3e6a72e6772aab5dbe58eb7fa3c2f330000000000000000000000000000000000000348"
      ],
      "transaction": {
        "from": "0x7f3119f15153b353c2a903468b84899b1ac207bb",
        "to": "0xbb4a04e5f24127440fa933343f2b34f309aebdde",
        "gas": "0x7aed59",
        "value": "0x0",
        "input": "0x82fbdc9c00000000000000000000000000000000000000000000000000000000000000200000000000000000000000000000000000000000000000000000000000000d209fce737834500045fb07ad158991bcac3b05d5a6ad42d013ac31486b73b6b059e7481729947364260000000000000000000000000000000000000348338ed6787f463394d24813b297401b9f05a8c9d176fb31fb4af56892a25e32cfc43de717950c9278000000000000000000000000000000000000034898fb6366e71e9a71c247052d447e928303e17bb6e05a08226c49b636acf99c40da8dc6af83ce5bb3420000000000000000000000000000000000000648f2ecf0bd180239aef474a9da945f2e2d41daa3c5b3ac2df8d8d7ac851f763a5b3ff23b4a696d59000000000000000000000000000000000000034830d9d31c1ac29bc2c2c312c1bca9f8b3d60e2376fe8b128ba8c78aabc59d4c64cee7ff28e93799210000000000000000000000000000000000000348d702dd976fb76fffc2d3963d037dfdae5b04e59368f180fcce6836688e9084f035309e29bf0a20950000000000000000000000000000000000000348138b809b8472ff09cd3e075e6ecbb2e42d41d870addb6a0412de1ba0f936dcaeb8aaa24578dcf3b24200000000000000000000000000000000000006e1011160d78a80e2eebd60c228eef7af4dfcd4d77e7d4467112689329f7e06571ed0e8cbad4910ee0000000000000000000000000000000000000348bd92c6c284271c227a1e0bf1786f468b539f51d90994206dfe8de6ec6920ff4d779b0d950605fb5300000000000000000000000000000000000003488dba75e83da73cc766a7e5a0ee71f656bab470d6da10009cbd5d07dd0cecc66161fc93d7c9000da10000000000000000000000000000000000000348e4b9bcd7d0aa917f19019165eb89bdbbf36d2cbe420000000000000000000000000000000000000668f180fcce6836688e9084f035309e29bf0a209513e3ee699d1909e989722e753853ae30b17e08c542000000000000000000000000000000000000060000000000000000000000000000000000000348fad40c0e2bef93c6a822015863045caaeaade4d32416092f143378750bb29b79ed961ab195cceea54200000000000000000000000000000000000006c7d132becabe7dcc4204841f33bae45841e41d9c2e3d870790dc77a83dd1d18184acc7439a53f4750000000000000000000000000000000000000348b9b16330671067b1b062b9ac2efd2db75f03436e67ccea5bb16181e7b4109c9c2143c24a1c2205be00000000000000000000000000000000000003485cc26e6798a3b05525076913840aa07b1d65ee005a7a183b6b44dc4ec2e3d2ef43f98c5152b1d76d4200000000000000000000000000000000000006028f7347df25220da7d63eb7c29fa10448231489d08c3f25862077056cb1b710937576af899a49594200000000000000000000000000000000000006cb24d22af35986ac1feb8874adbbdf68f6dc2e96a00e3a3511aac35ca78530c85007afcd317538190000000000000000000000000000000000000348221618871470f78d8a3391d35b77dfb3c0fbc383fdb794692724153d1488ccdbe0c56c252596735f0000000000000000000000000000000000000348464a1515adc20de946f8d0deb99cead8ceae310d350a791bfc2c21f9ed5d10980dad2e2638ffa7f64200000000000000000000000000000000000006cc232dcfaae6354ce191bd574108c1ad03f86450350a791bfc2c21f9ed5d10980dad2e2638ffa7f60000000000000000000000000000000000000348607b417df51e0e1ed3a12fdb7fc0e8307ed250f3ab7badef82e9fe11f6f33f87bc9bc2aa27f2fcb500000000000000000000000000000000000003480d276fc14719f9292d5c1ea2198673d1f42692464200000000000000000000000000000000000042000000000000000000000000000000000000034860025324dab37db3a623ea59cc567937821eea121217bfe6c773eec6cc4a38b5dc45b92292b6e189000000000000000000000000000000000000034858f23f80bf389db1af9e3aa8c59679806749a8a4bc7b1ff1c6989f006a1185318ed4e7b5796e66e1000000000000000000000000000000000000034864ecf089a6594be781908d5a26fc8fa6cb08a2c7c1c167cc44f7923cd0062c4370df962f9ddb16f50000000000000000000000000000000000000348a12cddd8e986af9288ab31e58c60e65f2987fb139e1028f5f1d5ede59748ffcee5532509976840e000000000000000000000000000000000000003480838cfe6a97c9ce1611a6ed17252477a3c71ebeb99c59acebfef3bbfb7129dc90d1a11db0e91187f0000000000000000000000000000000000000348b429de60943a8e6ded356dca2f93cd31201d9ed09bcef72be871e61ed4fbbc7630889bee758eb81d4200000000000000000000000000000000000006ade082c91a6aecc86fc11704a830e933e1b382eac81d1f0eb955b0c020e5d5b264e1ff72c14d1401000000000000000000000000000000000000034803fe94a215e3842ded931769f913d93ff33d00514186bfc76e2e237523cbc30fd220fe055156b41f420000000000000000000000000000000000000650f8cf458e7334be143f3c9f1f1577ee37a456539d36f8f62347538440a212e9162f534f797542df0000000000000000000000000000000000000348d2add08d9cd83720c9296a991ce066bb08265eac484c2d6e3cdd945a8b2df735e079178c1036578c6806411765af15bddd26f8f544a34cc40cb9838b2fcf37343e916eaed1f1ddaaf84458a359b538778700daec35af8ff88c16bdf0418774cb3d7599b40000000000000000000000000000000000000348c663315f7af904fbbb0f785c32046dfa03e85270ba1cf949c382a32a09a17b2adf3587fc7fa664f100000000000000000000000000000000000003488814dec83e2862a3792a0d6adfc48cf76add1890d6b9d8f938326fcdffe082e270bd0f0a9f39e8fb00000000000000000000000000000000000003487f99817d87bad03ea21e05112ca799d715730efe8c6f28f2f1a3c87f0f938b96d27520d9751ec8d9000000000000000000000000000000000000034805950959b6d876ae0fed1bbe5caa2d74d8659d59211cc4dd073734da055fbf44a2b4667d5e5fe5d2000000000000000000000000000000000000034885342bc62aadef58f029ab6d17d643949e6f073e211cc4dd073734da055fbf44a2b4667d5e5fe5d25d3a1ff2b6bab83b63cd9ad0787074081a52ef3472155d46fd9f03af1739637f9e7db8a87c40a7303eaeb77b03dbc0f6321ae1b72b2e9adb0f60112b00000000000000000000000000000000000003485a61374950d4bfa5a3d4f2ca36fc1d23a92b6f216c84a8f1c29108f47a79964b5fe888d4f4d0de4000000000000000000000000000000000000003480e09921cf7801a5ad47b892c8727593275625a9fb1ae0a34dc3976d98c1741c92b798daf8e0e1e11000000000000000000000000000000000000034811429ee838cc01071402f21c219870cbac0a59a06fd9d7ad17242c41f7131d257212c54a0e8166910000000000000000000000000000000000000348089730f866c6d478398ce1632c7c38677c475ec193919784c523f39cacaa98ee0a9d96c3f32b593e68f180fcce6836688e9084f035309e29bf0a209516a9fa2fda030272ce99b29cf780dfa30361e0f30b2c639c533813f4aa9d7837caf62653d097ff850000000000000000000000000000000000000348eedf0b095b5dfe75f3881cb26c19da209a27463a5d3a1ff2b6bab83b63cd9ad0787074081a52ef340000000000000000000000000000000000000348ecef79e109e997bca29c1c0897ec9d7b03647f5e94b008aa00579c1307b0ef2c499ad98a8ce58e5800000000000000000000000000000000000003480f2ed59657e391746c1a097bda98f2abb94b11203c8b650257cfb5f272f799f5e2b4e65093a11a050000000000000000000000000000000000000348b4479d436dda5c1a79bd88d282725615202406e35a7facb970d094b6c7ff1df0ea68d99e6e73cbff42000000000000000000000000000000000000067f102e5b4c32e0861293e97de85e6e0db3530605a88594d404727625a9437c3f886c7643872296ae00000000000000000000000000000000000003484e1c6b168dcfd7758bc2ab9d2865f1895813d236dc6ff44d5d932cbd77b52e5612ba0529dc6226f1000000000000000000000000000000000000034873b8be3b653c5896bc34fc87cebc8acf4fb7a54587eee96d50fb761ad85b1c982d28a042169d61b14200000000000000000000000000000000000006524299ab0987a7c4b3c8022a35669ddcdc715a101f32b1c2345538c0c6f582fcb022739c4a194ebb4200000000000000000000000000000000000006698b585cbc4407e2d54aa898b2600b53c68958f71f32b1c2345538c0c6f582fcb022739c4a194ebb00000000000000000000000000000000000003485cdc797accbf57ee2363fed9701262abc87a232e9046d36440290ffde54fe0dd84db8b1cfee9107b0000000000000000000000000000000000000348bfbb4fe2fb71022dbfe0d4232c8c528bddf9c57fd1917629b3e6a72e6772aab5dbe58eb7fa3c2f330000000000000000000000000000000000000348",
        "nonce": "0x4",
        "chainId": "0xa"
      },
      "additionalContracts": [],
      "isFixedGasLimit": false
    }
  ],
  "receipts": [
    {
      "status": "0x1",
      "cumulativeGasUsed": "0x751c28",
      "logs": [
        {
          "address": "0xbb4a04e5f24127440fa933343f2b34f309aebdde",
          "topics": [
            "0x66ace591f7c88075839f4a0246420d0cc8a34cbe9a924cd0e1ca63c336344f4b",
            "0x000000000000000000000000ad42d013ac31486b73b6b059e748172994736426",
            "0x0000000000000000000000000000000000000000000000000000000000000001"
          ],
          "data": "0x",
          "blockHash": "0xd57382ee980c9268d91ef99af4b9c6a5686f30f200da2e111416d97a99da9b0a",
          "blockNumber": "0x8487275",
          "transactionHash": "0x95f1d44775f7523d095d77971851d4f7d33f9e300f2c6125accf896bbc3fdd60",
          "transactionIndex": "0xa",
          "logIndex": "0x9",
          "removed": false
        },
        {
          "address": "0xbb4a04e5f24127440fa933343f2b34f309aebdde",
          "topics": [
            "0x077a94546a93ef5ed35409c7bd2466fb1170cfbd0faa6072ea22734d535f855f",
            "0x0000000000000000000000009fce737834500045fb07ad158991bcac3b05d5a6",
            "0x000000000000000000000000ad42d013ac31486b73b6b059e748172994736426",
            "0x0000000000000000000000000000000000000000000000000000000000000348"
          ],
          "data": "0x",
          "blockHash": "0xd57382ee980c9268d91ef99af4b9c6a5686f30f200da2e111416d97a99da9b0a",
          "blockNumber": "0x8487275",
          "transactionHash": "0x95f1d44775f7523d095d77971851d4f7d33f9e300f2c6125accf896bbc3fdd60",
          "transactionIndex": "0xa",
          "logIndex": "0xa",
          "removed": false
        },
        {
          "address": "0xbb4a04e5f24127440fa933343f2b34f309aebdde",
          "topics": [
            "0x66ace591f7c88075839f4a0246420d0cc8a34cbe9a924cd0e1ca63c336344f4b",
            "0x00000000000000000000000076fb31fb4af56892a25e32cfc43de717950c9278",
            "0x0000000000000000000000000000000000000000000000000000000000000002"
          ],
          "data": "0x",
          "blockHash": "0xd57382ee980c9268d91ef99af4b9c6a5686f30f200da2e111416d97a99da9b0a",
          "blockNumber": "0x8487275",
          "transactionHash": "0x95f1d44775f7523d095d77971851d4f7d33f9e300f2c6125accf896bbc3fdd60",
          "transactionIndex": "0xa",
          "logIndex": "0xb",
          "removed": false
        },
        {
          "address": "0xbb4a04e5f24127440fa933343f2b34f309aebdde",
          "topics": [
            "0x077a94546a93ef5ed35409c7bd2466fb1170cfbd0faa6072ea22734d535f855f",
            "0x000000000000000000000000338ed6787f463394d24813b297401b9f05a8c9d1",
            "0x00000000000000000000000076fb31fb4af56892a25e32cfc43de717950c9278",
            "0x0000000000000000000000000000000000000000000000000000000000000348"
          ],
          "data": "0x",
          "blockHash": "0xd57382ee980c9268d91ef99af4b9c6a5686f30f200da2e111416d97a99da9b0a",
          "blockNumber": "0x8487275",
          "transactionHash": "0x95f1d44775f7523d095d77971851d4f7d33f9e300f2c6125accf896bbc3fdd60",
          "transactionIndex": "0xa",
          "logIndex": "0xc",
          "removed": false
        },
        {
          "address": "0xbb4a04e5f24127440fa933343f2b34f309aebdde",
          "topics": [
            "0x66ace591f7c88075839f4a0246420d0cc8a34cbe9a924cd0e1ca63c336344f4b",
            "0x000000000000000000000000e05a08226c49b636acf99c40da8dc6af83ce5bb3",
            "0x0000000000000000000000000000000000000000000000000000000000000003"
          ],
          "data": "0x",
          "blockHash": "0xd57382ee980c9268d91ef99af4b9c6a5686f30f200da2e111416d97a99da9b0a",
          "blockNumber": "0x8487275",
          "transactionHash": "0x95f1d44775f7523d095d77971851d4f7d33f9e300f2c6125accf896bbc3fdd60",
          "transactionIndex": "0xa",
          "logIndex": "0xd",
          "removed": false
        },
        {
          "address": "0xbb4a04e5f24127440fa933343f2b34f309aebdde",
          "topics": [
            "0x66ace591f7c88075839f4a0246420d0cc8a34cbe9a924cd0e1ca63c336344f4b",
            "0x0000000000000000000000004200000000000000000000000000000000000006",
            "0x0000000000000000000000000000000000000000000000000000000000000004"
          ],
          "data": "0x",
          "blockHash": "0xd57382ee980c9268d91ef99af4b9c6a5686f30f200da2e111416d97a99da9b0a",
          "blockNumber": "0x8487275",
          "transactionHash": "0x95f1d44775f7523d095d77971851d4f7d33f9e300f2c6125accf896bbc3fdd60",
          "transactionIndex": "0xa",
          "logIndex": "0xe",
          "removed": false
        },
        {
          "address": "0xbb4a04e5f24127440fa933343f2b34f309aebdde",
          "topics": [
            "0x077a94546a93ef5ed35409c7bd2466fb1170cfbd0faa6072ea22734d535f855f",
            "0x00000000000000000000000098fb6366e71e9a71c247052d447e928303e17bb6",
            "0x000000000000000000000000e05a08226c49b636acf99c40da8dc6af83ce5bb3",
            "0x0000000000000000000000004200000000000000000000000000000000000006"
          ],
          "data": "0x",
          "blockHash": "0xd57382ee980c9268d91ef99af4b9c6a5686f30f200da2e111416d97a99da9b0a",
          "blockNumber": "0x8487275",
          "transactionHash": "0x95f1d44775f7523d095d77971851d4f7d33f9e300f2c6125accf896bbc3fdd60",
          "transactionIndex": "0xa",
          "logIndex": "0xf",
          "removed": false
        },
        {
          "address": "0xbb4a04e5f24127440fa933343f2b34f309aebdde",
          "topics": [
            "0x66ace591f7c88075839f4a0246420d0cc8a34cbe9a924cd0e1ca63c336344f4b",
            "0x000000000000000000000000c5b3ac2df8d8d7ac851f763a5b3ff23b4a696d59",
            "0x0000000000000000000000000000000000000000000000000000000000000005"
          ],
          "data": "0x",
          "blockHash": "0xd57382ee980c9268d91ef99af4b9c6a5686f30f200da2e111416d97a99da9b0a",
          "blockNumber": "0x8487275",
          "transactionHash": "0x95f1d44775f7523d095d77971851d4f7d33f9e300f2c6125accf896bbc3fdd60",
          "transactionIndex": "0xa",
          "logIndex": "0x10",
          "removed": false
        },
        {
          "address": "0xbb4a04e5f24127440fa933343f2b34f309aebdde",
          "topics": [
            "0x077a94546a93ef5ed35409c7bd2466fb1170cfbd0faa6072ea22734d535f855f",
            "0x00000000000000000000000048f2ecf0bd180239aef474a9da945f2e2d41daa3",
            "0x000000000000000000000000c5b3ac2df8d8d7ac851f763a5b3ff23b4a696d59",
            "0x0000000000000000000000000000000000000000000000000000000000000348"
          ],
          "data": "0x",
          "blockHash": "0xd57382ee980c9268d91ef99af4b9c6a5686f30f200da2e111416d97a99da9b0a",
          "blockNumber": "0x8487275",
          "transactionHash": "0x95f1d44775f7523d095d77971851d4f7d33f9e300f2c6125accf896bbc3fdd60",
          "transactionIndex": "0xa",
          "logIndex": "0x11",
          "removed": false
        },
        {
          "address": "0xbb4a04e5f24127440fa933343f2b34f309aebdde",
          "topics": [
            "0x66ace591f7c88075839f4a0246420d0cc8a34cbe9a924cd0e1ca63c336344f4b",
            "0x000000000000000000000000fe8b128ba8c78aabc59d4c64cee7ff28e9379921",
            "0x0000000000000000000000000000000000000000000000000000000000000006"
          ],
          "data": "0x",
          "blockHash": "0xd57382ee980c9268d91ef99af4b9c6a5686f30f200da2e111416d97a99da9b0a",
          "blockNumber": "0x8487275",
          "transactionHash": "0x95f1d44775f7523d095d77971851d4f7d33f9e300f2c6125accf896bbc3fdd60",
          "transactionIndex": "0xa",
          "logIndex": "0x12",
          "removed": false
        },
        {
          "address": "0xbb4a04e5f24127440fa933343f2b34f309aebdde",
          "topics": [
            "0x077a94546a93ef5ed35409c7bd2466fb1170cfbd0faa6072ea22734d535f855f",
            "0x00000000000000000000000030d9d31c1ac29bc2c2c312c1bca9f8b3d60e2376",
            "0x000000000000000000000000fe8b128ba8c78aabc59d4c64cee7ff28e9379921",
            "0x0000000000000000000000000000000000000000000000000000000000000348"
          ],
          "data": "0x",
          "blockHash": "0xd57382ee980c9268d91ef99af4b9c6a5686f30f200da2e111416d97a99da9b0a",
          "blockNumber": "0x8487275",
          "transactionHash": "0x95f1d44775f7523d095d77971851d4f7d33f9e300f2c6125accf896bbc3fdd60",
          "transactionIndex": "0xa",
          "logIndex": "0x13",
          "removed": false
        },
        {
          "address": "0xbb4a04e5f24127440fa933343f2b34f309aebdde",
          "topics": [
            "0x66ace591f7c88075839f4a0246420d0cc8a34cbe9a924cd0e1ca63c336344f4b",
            "0x00000000000000000000000068f180fcce6836688e9084f035309e29bf0a2095",
            "0x0000000000000000000000000000000000000000000000000000000000000007"
          ],
          "data": "0x",
          "blockHash": "0xd57382ee980c9268d91ef99af4b9c6a5686f30f200da2e111416d97a99da9b0a",
          "blockNumber": "0x8487275",
          "transactionHash": "0x95f1d44775f7523d095d77971851d4f7d33f9e300f2c6125accf896bbc3fdd60",
          "transactionIndex": "0xa",
          "logIndex": "0x14",
          "removed": false
        },
        {
          "address": "0xbb4a04e5f24127440fa933343f2b34f309aebdde",
          "topics": [
            "0x077a94546a93ef5ed35409c7bd2466fb1170cfbd0faa6072ea22734d535f855f",
            "0x000000000000000000000000d702dd976fb76fffc2d3963d037dfdae5b04e593",
            "0x00000000000000000000000068f180fcce6836688e9084f035309e29bf0a2095",
            "0x0000000000000000000000000000000000000000000000000000000000000348"
          ],
          "data": "0x",
          "blockHash": "0xd57382ee980c9268d91ef99af4b9c6a5686f30f200da2e111416d97a99da9b0a",
          "blockNumber": "0x8487275",
          "transactionHash": "0x95f1d44775f7523d095d77971851d4f7d33f9e300f2c6125accf896bbc3fdd60",
          "transactionIndex": "0xa",
          "logIndex": "0x15",
          "removed": false
        },
        {
          "address": "0xbb4a04e5f24127440fa933343f2b34f309aebdde",
          "topics": [
            "0x66ace591f7c88075839f4a0246420d0cc8a34cbe9a924cd0e1ca63c336344f4b",
            "0x000000000000000000000000addb6a0412de1ba0f936dcaeb8aaa24578dcf3b2",
            "0x0000000000000000000000000000000000000000000000000000000000000008"
          ],
          "data": "0x",
          "blockHash": "0xd57382ee980c9268d91ef99af4b9c6a5686f30f200da2e111416d97a99da9b0a",
          "blockNumber": "0x8487275",
          "transactionHash": "0x95f1d44775f7523d095d77971851d4f7d33f9e300f2c6125accf896bbc3fdd60",
          "transactionIndex": "0xa",
          "logIndex": "0x16",
          "removed": false
        },
        {
          "address": "0xbb4a04e5f24127440fa933343f2b34f309aebdde",
          "topics": [
            "0x077a94546a93ef5ed35409c7bd2466fb1170cfbd0faa6072ea22734d535f855f",
            "0x000000000000000000000000138b809b8472ff09cd3e075e6ecbb2e42d41d870",
            "0x000000000000000000000000addb6a0412de1ba0f936dcaeb8aaa24578dcf3b2",
            "0x0000000000000000000000004200000000000000000000000000000000000006"
          ],
          "data": "0x",
          "blockHash": "0xd57382ee980c9268d91ef99af4b9c6a5686f30f200da2e111416d97a99da9b0a",
          "blockNumber": "0x8487275",
          "transactionHash": "0x95f1d44775f7523d095d77971851d4f7d33f9e300f2c6125accf896bbc3fdd60",
          "transactionIndex": "0xa",
          "logIndex": "0x17",
          "removed": false
        },
        {
          "address": "0xbb4a04e5f24127440fa933343f2b34f309aebdde",
          "topics": [
            "0x66ace591f7c88075839f4a0246420d0cc8a34cbe9a924cd0e1ca63c336344f4b",
            "0x0000000000000000000000007e7d4467112689329f7e06571ed0e8cbad4910ee",
            "0x0000000000000000000000000000000000000000000000000000000000000009"
          ],
          "data": "0x",
          "blockHash": "0xd57382ee980c9268d91ef99af4b9c6a5686f30f200da2e111416d97a99da9b0a",
          "blockNumber": "0x8487275",
          "transactionHash": "0x95f1d44775f7523d095d77971851d4f7d33f9e300f2c6125accf896bbc3fdd60",
          "transactionIndex": "0xa",
          "logIndex": "0x18",
          "removed": false
        },
        {
          "address": "0xbb4a04e5f24127440fa933343f2b34f309aebdde",
          "topics": [
            "0x077a94546a93ef5ed35409c7bd2466fb1170cfbd0faa6072ea22734d535f855f",
            "0x000000000000000000000000e1011160d78a80e2eebd60c228eef7af4dfcd4d7",
            "0x0000000000000000000000007e7d4467112689329f7e06571ed0e8cbad4910ee",
            "0x0000000000000000000000000000000000000000000000000000000000000348"
          ],
          "data": "0x",
          "blockHash": "0xd57382ee980c9268d91ef99af4b9c6a5686f30f200da2e111416d97a99da9b0a",
          "blockNumber": "0x8487275",
          "transactionHash": "0x95f1d44775f7523d095d77971851d4f7d33f9e300f2c6125accf896bbc3fdd60",
          "transactionIndex": "0xa",
          "logIndex": "0x19",
          "removed": false
        },
        {
          "address": "0xbb4a04e5f24127440fa933343f2b34f309aebdde",
          "topics": [
            "0x66ace591f7c88075839f4a0246420d0cc8a34cbe9a924cd0e1ca63c336344f4b",
            "0x0000000000000000000000000994206dfe8de6ec6920ff4d779b0d950605fb53",
            "0x000000000000000000000000000000000000000000000000000000000000000a"
          ],
          "data": "0x",
          "blockHash": "0xd57382ee980c9268d91ef99af4b9c6a5686f30f200da2e111416d97a99da9b0a",
          "blockNumber": "0x8487275",
          "transactionHash": "0x95f1d44775f7523d095d77971851d4f7d33f9e300f2c6125accf896bbc3fdd60",
          "transactionIndex": "0xa",
          "logIndex": "0x1a",
          "removed": false
        },
        {
          "address": "0xbb4a04e5f24127440fa933343f2b34f309aebdde",
          "topics": [
            "0x077a94546a93ef5ed35409c7bd2466fb1170cfbd0faa6072ea22734d535f855f",
            "0x000000000000000000000000bd92c6c284271c227a1e0bf1786f468b539f51d9",
            "0x0000000000000000000000000994206dfe8de6ec6920ff4d779b0d950605fb53",
            "0x0000000000000000000000000000000000000000000000000000000000000348"
          ],
          "data": "0x",
          "blockHash": "0xd57382ee980c9268d91ef99af4b9c6a5686f30f200da2e111416d97a99da9b0a",
          "blockNumber": "0x8487275",
          "transactionHash": "0x95f1d44775f7523d095d77971851d4f7d33f9e300f2c6125accf896bbc3fdd60",
          "transactionIndex": "0xa",
          "logIndex": "0x1b",
          "removed": false
        },
        {
          "address": "0xbb4a04e5f24127440fa933343f2b34f309aebdde",
          "topics": [
            "0x66ace591f7c88075839f4a0246420d0cc8a34cbe9a924cd0e1ca63c336344f4b",
            "0x000000000000000000000000da10009cbd5d07dd0cecc66161fc93d7c9000da1",
            "0x000000000000000000000000000000000000000000000000000000000000000b"
          ],
          "data": "0x",
          "blockHash": "0xd57382ee980c9268d91ef99af4b9c6a5686f30f200da2e111416d97a99da9b0a",
          "blockNumber": "0x8487275",
          "transactionHash": "0x95f1d44775f7523d095d77971851d4f7d33f9e300f2c6125accf896bbc3fdd60",
          "transactionIndex": "0xa",
          "logIndex": "0x1c",
          "removed": false
        },
        {
          "address": "0xbb4a04e5f24127440fa933343f2b34f309aebdde",
          "topics": [
            "0x077a94546a93ef5ed35409c7bd2466fb1170cfbd0faa6072ea22734d535f855f",
            "0x0000000000000000000000008dba75e83da73cc766a7e5a0ee71f656bab470d6",
            "0x000000000000000000000000da10009cbd5d07dd0cecc66161fc93d7c9000da1",
            "0x0000000000000000000000000000000000000000000000000000000000000348"
          ],
          "data": "0x",
          "blockHash": "0xd57382ee980c9268d91ef99af4b9c6a5686f30f200da2e111416d97a99da9b0a",
          "blockNumber": "0x8487275",
          "transactionHash": "0x95f1d44775f7523d095d77971851d4f7d33f9e300f2c6125accf896bbc3fdd60",
          "transactionIndex": "0xa",
          "logIndex": "0x1d",
          "removed": false
        },
        {
          "address": "0xbb4a04e5f24127440fa933343f2b34f309aebdde",
          "topics": [
            "0x077a94546a93ef5ed35409c7bd2466fb1170cfbd0faa6072ea22734d535f855f",
            "0x000000000000000000000000e4b9bcd7d0aa917f19019165eb89bdbbf36d2cbe",
            "0x0000000000000000000000004200000000000000000000000000000000000006",
            "0x00000000000000000000000068f180fcce6836688e9084f035309e29bf0a2095"
          ],
          "data": "0x",
          "blockHash": "0xd57382ee980c9268d91ef99af4b9c6a5686f30f200da2e111416d97a99da9b0a",
          "blockNumber": "0x8487275",
          "transactionHash": "0x95f1d44775f7523d095d77971851d4f7d33f9e300f2c6125accf896bbc3fdd60",
          "transactionIndex": "0xa",
          "logIndex": "0x1e",
          "removed": false
        },
        {
          "address": "0xbb4a04e5f24127440fa933343f2b34f309aebdde",
          "topics": [
            "0x077a94546a93ef5ed35409c7bd2466fb1170cfbd0faa6072ea22734d535f855f",
            "0x00000000000000000000000013e3ee699d1909e989722e753853ae30b17e08c5",
            "0x0000000000000000000000004200000000000000000000000000000000000006",
            "0x0000000000000000000000000000000000000000000000000000000000000348"
          ],
          "data": "0x",
          "blockHash": "0xd57382ee980c9268d91ef99af4b9c6a5686f30f200da2e111416d97a99da9b0a",
          "blockNumber": "0x8487275",
          "transactionHash": "0x95f1d44775f7523d095d77971851d4f7d33f9e300f2c6125accf896bbc3fdd60",
          "transactionIndex": "0xa",
          "logIndex": "0x1f",
          "removed": false
        },
        {
          "address": "0xbb4a04e5f24127440fa933343f2b34f309aebdde",
          "topics": [
            "0x66ace591f7c88075839f4a0246420d0cc8a34cbe9a924cd0e1ca63c336344f4b",
            "0x0000000000000000000000002416092f143378750bb29b79ed961ab195cceea5",
            "0x000000000000000000000000000000000000000000000000000000000000000c"
          ],
          "data": "0x",
          "blockHash": "0xd57382ee980c9268d91ef99af4b9c6a5686f30f200da2e111416d97a99da9b0a",
          "blockNumber": "0x8487275",
          "transactionHash": "0x95f1d44775f7523d095d77971851d4f7d33f9e300f2c6125accf896bbc3fdd60",
          "transactionIndex": "0xa",
          "logIndex": "0x20",
          "removed": false
        },
        {
          "address": "0xbb4a04e5f24127440fa933343f2b34f309aebdde",
          "topics": [
            "0x077a94546a93ef5ed35409c7bd2466fb1170cfbd0faa6072ea22734d535f855f",
            "0x000000000000000000000000fad40c0e2bef93c6a822015863045caaeaade4d3",
            "0x0000000000000000000000002416092f143378750bb29b79ed961ab195cceea5",
            "0x0000000000000000000000004200000000000000000000000000000000000006"
          ],
          "data": "0x",
          "blockHash": "0xd57382ee980c9268d91ef99af4b9c6a5686f30f200da2e111416d97a99da9b0a",
          "blockNumber": "0x8487275",
          "transactionHash": "0x95f1d44775f7523d095d77971851d4f7d33f9e300f2c6125accf896bbc3fdd60",
          "transactionIndex": "0xa",
          "logIndex": "0x21",
          "removed": false
        },
        {
          "address": "0xbb4a04e5f24127440fa933343f2b34f309aebdde",
          "topics": [
            "0x66ace591f7c88075839f4a0246420d0cc8a34cbe9a924cd0e1ca63c336344f4b",
            "0x0000000000000000000000002e3d870790dc77a83dd1d18184acc7439a53f475",
            "0x000000000000000000000000000000000000000000000000000000000000000d"
          ],
          "data": "0x",
          "blockHash": "0xd57382ee980c9268d91ef99af4b9c6a5686f30f200da2e111416d97a99da9b0a",
          "blockNumber": "0x8487275",
          "transactionHash": "0x95f1d44775f7523d095d77971851d4f7d33f9e300f2c6125accf896bbc3fdd60",
          "transactionIndex": "0xa",
          "logIndex": "0x22",
          "removed": false
        },
        {
          "address": "0xbb4a04e5f24127440fa933343f2b34f309aebdde",
          "topics": [
            "0x077a94546a93ef5ed35409c7bd2466fb1170cfbd0faa6072ea22734d535f855f",
            "0x000000000000000000000000c7d132becabe7dcc4204841f33bae45841e41d9c",
            "0x0000000000000000000000002e3d870790dc77a83dd1d18184acc7439a53f475",
            "0x0000000000000000000000000000000000000000000000000000000000000348"
          ],
          "data": "0x",
          "blockHash": "0xd57382ee980c9268d91ef99af4b9c6a5686f30f200da2e111416d97a99da9b0a",
          "blockNumber": "0x8487275",
          "transactionHash": "0x95f1d44775f7523d095d77971851d4f7d33f9e300f2c6125accf896bbc3fdd60",
          "transactionIndex": "0xa",
          "logIndex": "0x23",
          "removed": false
        },
        {
          "address": "0xbb4a04e5f24127440fa933343f2b34f309aebdde",
          "topics": [
            "0x66ace591f7c88075839f4a0246420d0cc8a34cbe9a924cd0e1ca63c336344f4b",
            "0x00000000000000000000000067ccea5bb16181e7b4109c9c2143c24a1c2205be",
            "0x000000000000000000000000000000000000000000000000000000000000000e"
          ],
          "data": "0x",
          "blockHash": "0xd57382ee980c9268d91ef99af4b9c6a5686f30f200da2e111416d97a99da9b0a",
          "blockNumber": "0x8487275",
          "transactionHash": "0x95f1d44775f7523d095d77971851d4f7d33f9e300f2c6125accf896bbc3fdd60",
          "transactionIndex": "0xa",
          "logIndex": "0x24",
          "removed": false
        },
        {
          "address": "0xbb4a04e5f24127440fa933343f2b34f309aebdde",
          "topics": [
            "0x077a94546a93ef5ed35409c7bd2466fb1170cfbd0faa6072ea22734d535f855f",
            "0x000000000000000000000000b9b16330671067b1b062b9ac2efd2db75f03436e",
            "0x00000000000000000000000067ccea5bb16181e7b4109c9c2143c24a1c2205be",
            "0x0000000000000000000000000000000000000000000000000000000000000348"
          ],
          "data": "0x",
          "blockHash": "0xd57382ee980c9268d91ef99af4b9c6a5686f30f200da2e111416d97a99da9b0a",
          "blockNumber": "0x8487275",
          "transactionHash": "0x95f1d44775f7523d095d77971851d4f7d33f9e300f2c6125accf896bbc3fdd60",
          "transactionIndex": "0xa",
          "logIndex": "0x25",
          "removed": false
        },
        {
          "address": "0xbb4a04e5f24127440fa933343f2b34f309aebdde",
          "topics": [
            "0x66ace591f7c88075839f4a0246420d0cc8a34cbe9a924cd0e1ca63c336344f4b",
            "0x0000000000000000000000005a7a183b6b44dc4ec2e3d2ef43f98c5152b1d76d",
            "0x000000000000000000000000000000000000000000000000000000000000000f"
          ],
          "data": "0x",
          "blockHash": "0xd57382ee980c9268d91ef99af4b9c6a5686f30f200da2e111416d97a99da9b0a",
          "blockNumber": "0x8487275",
          "transactionHash": "0x95f1d44775f7523d095d77971851d4f7d33f9e300f2c6125accf896bbc3fdd60",
          "transactionIndex": "0xa",
          "logIndex": "0x26",
          "removed": false
        },
        {
          "address": "0xbb4a04e5f24127440fa933343f2b34f309aebdde",
          "topics": [
            "0x077a94546a93ef5ed35409c7bd2466fb1170cfbd0faa6072ea22734d535f855f",
            "0x0000000000000000000000005cc26e6798a3b05525076913840aa07b1d65ee00",
            "0x0000000000000000000000005a7a183b6b44dc4ec2e3d2ef43f98c5152b1d76d",
            "0x0000000000000000000000004200000000000000000000000000000000000006"
          ],
          "data": "0x",
          "blockHash": "0xd57382ee980c9268d91ef99af4b9c6a5686f30f200da2e111416d97a99da9b0a",
          "blockNumber": "0x8487275",
          "transactionHash": "0x95f1d44775f7523d095d77971851d4f7d33f9e300f2c6125accf896bbc3fdd60",
          "transactionIndex": "0xa",
          "logIndex": "0x27",
          "removed": false
        },
        {
          "address": "0xbb4a04e5f24127440fa933343f2b34f309aebdde",
          "topics": [
            "0x66ace591f7c88075839f4a0246420d0cc8a34cbe9a924cd0e1ca63c336344f4b",
            "0x000000000000000000000000d08c3f25862077056cb1b710937576af899a4959",
            "0x0000000000000000000000000000000000000000000000000000000000000010"
          ],
          "data": "0x",
          "blockHash": "0xd57382ee980c9268d91ef99af4b9c6a5686f30f200da2e111416d97a99da9b0a",
          "blockNumber": "0x8487275",
          "transactionHash": "0x95f1d44775f7523d095d77971851d4f7d33f9e300f2c6125accf896bbc3fdd60",
          "transactionIndex": "0xa",
          "logIndex": "0x28",
          "removed": false
        },
        {
          "address": "0xbb4a04e5f24127440fa933343f2b34f309aebdde",
          "topics": [
            "0x077a94546a93ef5ed35409c7bd2466fb1170cfbd0faa6072ea22734d535f855f",
            "0x000000000000000000000000028f7347df25220da7d63eb7c29fa10448231489",
            "0x000000000000000000000000d08c3f25862077056cb1b710937576af899a4959",
            "0x0000000000000000000000004200000000000000000000000000000000000006"
          ],
          "data": "0x",
          "blockHash": "0xd57382ee980c9268d91ef99af4b9c6a5686f30f200da2e111416d97a99da9b0a",
          "blockNumber": "0x8487275",
          "transactionHash": "0x95f1d44775f7523d095d77971851d4f7d33f9e300f2c6125accf896bbc3fdd60",
          "transactionIndex": "0xa",
          "logIndex": "0x29",
          "removed": false
        },
        {
          "address": "0xbb4a04e5f24127440fa933343f2b34f309aebdde",
          "topics": [
            "0x66ace591f7c88075839f4a0246420d0cc8a34cbe9a924cd0e1ca63c336344f4b",
            "0x000000000000000000000000a00e3a3511aac35ca78530c85007afcd31753819",
            "0x0000000000000000000000000000000000000000000000000000000000000011"
          ],
          "data": "0x",
          "blockHash": "0xd57382ee980c9268d91ef99af4b9c6a5686f30f200da2e111416d97a99da9b0a",
          "blockNumber": "0x8487275",
          "transactionHash": "0x95f1d44775f7523d095d77971851d4f7d33f9e300f2c6125accf896bbc3fdd60",
          "transactionIndex": "0xa",
          "logIndex": "0x2a",
          "removed": false
        },
        {
          "address": "0xbb4a04e5f24127440fa933343f2b34f309aebdde",
          "topics": [
            "0x077a94546a93ef5ed35409c7bd2466fb1170cfbd0faa6072ea22734d535f855f",
            "0x000000000000000000000000cb24d22af35986ac1feb8874adbbdf68f6dc2e96",
            "0x000000000000000000000000a00e3a3511aac35ca78530c85007afcd31753819",
            "0x0000000000000000000000000000000000000000000000000000000000000348"
          ],
          "data": "0x",
          "blockHash": "0xd57382ee980c9268d91ef99af4b9c6a5686f30f200da2e111416d97a99da9b0a",
          "blockNumber": "0x8487275",
          "transactionHash": "0x95f1d44775f7523d095d77971851d4f7d33f9e300f2c6125accf896bbc3fdd60",
          "transactionIndex": "0xa",
          "logIndex": "0x2b",
          "removed": false
        },
        {
          "address": "0xbb4a04e5f24127440fa933343f2b34f309aebdde",
          "topics": [
            "0x66ace591f7c88075839f4a0246420d0cc8a34cbe9a924cd0e1ca63c336344f4b",
            "0x000000000000000000000000fdb794692724153d1488ccdbe0c56c252596735f",
            "0x0000000000000000000000000000000000000000000000000000000000000012"
          ],
          "data": "0x",
          "blockHash": "0xd57382ee980c9268d91ef99af4b9c6a5686f30f200da2e111416d97a99da9b0a",
          "blockNumber": "0x8487275",
          "transactionHash": "0x95f1d44775f7523d095d77971851d4f7d33f9e300f2c6125accf896bbc3fdd60",
          "transactionIndex": "0xa",
          "logIndex": "0x2c",
          "removed": false
        },
        {
          "address": "0xbb4a04e5f24127440fa933343f2b34f309aebdde",
          "topics": [
            "0x077a94546a93ef5ed35409c7bd2466fb1170cfbd0faa6072ea22734d535f855f",
            "0x000000000000000000000000221618871470f78d8a3391d35b77dfb3c0fbc383",
            "0x000000000000000000000000fdb794692724153d1488ccdbe0c56c252596735f",
            "0x0000000000000000000000000000000000000000000000000000000000000348"
          ],
          "data": "0x",
          "blockHash": "0xd57382ee980c9268d91ef99af4b9c6a5686f30f200da2e111416d97a99da9b0a",
          "blockNumber": "0x8487275",
          "transactionHash": "0x95f1d44775f7523d095d77971851d4f7d33f9e300f2c6125accf896bbc3fdd60",
          "transactionIndex": "0xa",
          "logIndex": "0x2d",
          "removed": false
        },
        {
          "address": "0xbb4a04e5f24127440fa933343f2b34f309aebdde",
          "topics": [
            "0x66ace591f7c88075839f4a0246420d0cc8a34cbe9a924cd0e1ca63c336344f4b",
            "0x000000000000000000000000350a791bfc2c21f9ed5d10980dad2e2638ffa7f6",
            "0x0000000000000000000000000000000000000000000000000000000000000013"
          ],
          "data": "0x",
          "blockHash": "0xd57382ee980c9268d91ef99af4b9c6a5686f30f200da2e111416d97a99da9b0a",
          "blockNumber": "0x8487275",
          "transactionHash": "0x95f1d44775f7523d095d77971851d4f7d33f9e300f2c6125accf896bbc3fdd60",
          "transactionIndex": "0xa",
          "logIndex": "0x2e",
          "removed": false
        },
        {
          "address": "0xbb4a04e5f24127440fa933343f2b34f309aebdde",
          "topics": [
            "0x077a94546a93ef5ed35409c7bd2466fb1170cfbd0faa6072ea22734d535f855f",
            "0x000000000000000000000000464a1515adc20de946f8d0deb99cead8ceae310d",
            "0x000000000000000000000000350a791bfc2c21f9ed5d10980dad2e2638ffa7f6",
            "0x0000000000000000000000004200000000000000000000000000000000000006"
          ],
          "data": "0x",
          "blockHash": "0xd57382ee980c9268d91ef99af4b9c6a5686f30f200da2e111416d97a99da9b0a",
          "blockNumber": "0x8487275",
          "transactionHash": "0x95f1d44775f7523d095d77971851d4f7d33f9e300f2c6125accf896bbc3fdd60",
          "transactionIndex": "0xa",
          "logIndex": "0x2f",
          "removed": false
        },
        {
          "address": "0xbb4a04e5f24127440fa933343f2b34f309aebdde",
          "topics": [
            "0x077a94546a93ef5ed35409c7bd2466fb1170cfbd0faa6072ea22734d535f855f",
            "0x000000000000000000000000cc232dcfaae6354ce191bd574108c1ad03f86450",
            "0x000000000000000000000000350a791bfc2c21f9ed5d10980dad2e2638ffa7f6",
            "0x0000000000000000000000000000000000000000000000000000000000000348"
          ],
          "data": "0x",
          "blockHash": "0xd57382ee980c9268d91ef99af4b9c6a5686f30f200da2e111416d97a99da9b0a",
          "blockNumber": "0x8487275",
          "transactionHash": "0x95f1d44775f7523d095d77971851d4f7d33f9e300f2c6125accf896bbc3fdd60",
          "transactionIndex": "0xa",
          "logIndex": "0x30",
          "removed": false
        },
        {
          "address": "0xbb4a04e5f24127440fa933343f2b34f309aebdde",
          "topics": [
            "0x66ace591f7c88075839f4a0246420d0cc8a34cbe9a924cd0e1ca63c336344f4b",
            "0x000000000000000000000000ab7badef82e9fe11f6f33f87bc9bc2aa27f2fcb5",
            "0x0000000000000000000000000000000000000000000000000000000000000014"
          ],
          "data": "0x",
          "blockHash": "0xd57382ee980c9268d91ef99af4b9c6a5686f30f200da2e111416d97a99da9b0a",
          "blockNumber": "0x8487275",
          "transactionHash": "0x95f1d44775f7523d095d77971851d4f7d33f9e300f2c6125accf896bbc3fdd60",
          "transactionIndex": "0xa",
          "logIndex": "0x31",
          "removed": false
        },
        {
          "address": "0xbb4a04e5f24127440fa933343f2b34f309aebdde",
          "topics": [
            "0x077a94546a93ef5ed35409c7bd2466fb1170cfbd0faa6072ea22734d535f855f",
            "0x000000000000000000000000607b417df51e0e1ed3a12fdb7fc0e8307ed250f3",
            "0x000000000000000000000000ab7badef82e9fe11f6f33f87bc9bc2aa27f2fcb5",
            "0x0000000000000000000000000000000000000000000000000000000000000348"
          ],
          "data": "0x",
          "blockHash": "0xd57382ee980c9268d91ef99af4b9c6a5686f30f200da2e111416d97a99da9b0a",
          "blockNumber": "0x8487275",
          "transactionHash": "0x95f1d44775f7523d095d77971851d4f7d33f9e300f2c6125accf896bbc3fdd60",
          "transactionIndex": "0xa",
          "logIndex": "0x32",
          "removed": false
        },
        {
          "address": "0xbb4a04e5f24127440fa933343f2b34f309aebdde",
          "topics": [
            "0x66ace591f7c88075839f4a0246420d0cc8a34cbe9a924cd0e1ca63c336344f4b",
            "0x0000000000000000000000004200000000000000000000000000000000000042",
            "0x0000000000000000000000000000000000000000000000000000000000000015"
          ],
          "data": "0x",
          "blockHash": "0xd57382ee980c9268d91ef99af4b9c6a5686f30f200da2e111416d97a99da9b0a",
          "blockNumber": "0x8487275",
          "transactionHash": "0x95f1d44775f7523d095d77971851d4f7d33f9e300f2c6125accf896bbc3fdd60",
          "transactionIndex": "0xa",
          "logIndex": "0x33",
          "removed": false
        },
        {
          "address": "0xbb4a04e5f24127440fa933343f2b34f309aebdde",
          "topics": [
            "0x077a94546a93ef5ed35409c7bd2466fb1170cfbd0faa6072ea22734d535f855f",
            "0x0000000000000000000000000d276fc14719f9292d5c1ea2198673d1f4269246",
            "0x0000000000000000000000004200000000000000000000000000000000000042",
            "0x0000000000000000000000000000000000000000000000000000000000000348"
          ],
          "data": "0x",
          "blockHash": "0xd57382ee980c9268d91ef99af4b9c6a5686f30f200da2e111416d97a99da9b0a",
          "blockNumber": "0x8487275",
          "transactionHash": "0x95f1d44775f7523d095d77971851d4f7d33f9e300f2c6125accf896bbc3fdd60",
          "transactionIndex": "0xa",
          "logIndex": "0x34",
          "removed": false
        },
        {
          "address": "0xbb4a04e5f24127440fa933343f2b34f309aebdde",
          "topics": [
            "0x66ace591f7c88075839f4a0246420d0cc8a34cbe9a924cd0e1ca63c336344f4b",
            "0x0000000000000000000000001217bfe6c773eec6cc4a38b5dc45b92292b6e189",
            "0x0000000000000000000000000000000000000000000000000000000000000016"
          ],
          "data": "0x",
          "blockHash": "0xd57382ee980c9268d91ef99af4b9c6a5686f30f200da2e111416d97a99da9b0a",
          "blockNumber": "0x8487275",
          "transactionHash": "0x95f1d44775f7523d095d77971851d4f7d33f9e300f2c6125accf896bbc3fdd60",
          "transactionIndex": "0xa",
          "logIndex": "0x35",
          "removed": false
        },
        {
          "address": "0xbb4a04e5f24127440fa933343f2b34f309aebdde",
          "topics": [
            "0x077a94546a93ef5ed35409c7bd2466fb1170cfbd0faa6072ea22734d535f855f",
            "0x00000000000000000000000060025324dab37db3a623ea59cc567937821eea12",
            "0x0000000000000000000000001217bfe6c773eec6cc4a38b5dc45b92292b6e189",
            "0x0000000000000000000000000000000000000000000000000000000000000348"
          ],
          "data": "0x",
          "blockHash": "0xd57382ee980c9268d91ef99af4b9c6a5686f30f200da2e111416d97a99da9b0a",
          "blockNumber": "0x8487275",
          "transactionHash": "0x95f1d44775f7523d095d77971851d4f7d33f9e300f2c6125accf896bbc3fdd60",
          "transactionIndex": "0xa",
          "logIndex": "0x36",
          "removed": false
        },
        {
          "address": "0xbb4a04e5f24127440fa933343f2b34f309aebdde",
          "topics": [
            "0x66ace591f7c88075839f4a0246420d0cc8a34cbe9a924cd0e1ca63c336344f4b",
            "0x000000000000000000000000bc7b1ff1c6989f006a1185318ed4e7b5796e66e1",
            "0x0000000000000000000000000000000000000000000000000000000000000017"
          ],
          "data": "0x",
          "blockHash": "0xd57382ee980c9268d91ef99af4b9c6a5686f30f200da2e111416d97a99da9b0a",
          "blockNumber": "0x8487275",
          "transactionHash": "0x95f1d44775f7523d095d77971851d4f7d33f9e300f2c6125accf896bbc3fdd60",
          "transactionIndex": "0xa",
          "logIndex": "0x37",
          "removed": false
        },
        {
          "address": "0xbb4a04e5f24127440fa933343f2b34f309aebdde",
          "topics": [
            "0x077a94546a93ef5ed35409c7bd2466fb1170cfbd0faa6072ea22734d535f855f",
            "0x00000000000000000000000058f23f80bf389db1af9e3aa8c59679806749a8a4",
            "0x000000000000000000000000bc7b1ff1c6989f006a1185318ed4e7b5796e66e1",
            "0x0000000000000000000000000000000000000000000000000000000000000348"
          ],
          "data": "0x",
          "blockHash": "0xd57382ee980c9268d91ef99af4b9c6a5686f30f200da2e111416d97a99da9b0a",
          "blockNumber": "0x8487275",
          "transactionHash": "0x95f1d44775f7523d095d77971851d4f7d33f9e300f2c6125accf896bbc3fdd60",
          "transactionIndex": "0xa",
          "logIndex": "0x38",
          "removed": false
        },
        {
          "address": "0xbb4a04e5f24127440fa933343f2b34f309aebdde",
          "topics": [
            "0x66ace591f7c88075839f4a0246420d0cc8a34cbe9a924cd0e1ca63c336344f4b",
            "0x000000000000000000000000c1c167cc44f7923cd0062c4370df962f9ddb16f5",
            "0x0000000000000000000000000000000000000000000000000000000000000018"
          ],
          "data": "0x",
          "blockHash": "0xd57382ee980c9268d91ef99af4b9c6a5686f30f200da2e111416d97a99da9b0a",
          "blockNumber": "0x8487275",
          "transactionHash": "0x95f1d44775f7523d095d77971851d4f7d33f9e300f2c6125accf896bbc3fdd60",
          "transactionIndex": "0xa",
          "logIndex": "0x39",
          "removed": false
        },
        {
          "address": "0xbb4a04e5f24127440fa933343f2b34f309aebdde",
          "topics": [
            "0x077a94546a93ef5ed35409c7bd2466fb1170cfbd0faa6072ea22734d535f855f",
            "0x00000000000000000000000064ecf089a6594be781908d5a26fc8fa6cb08a2c7",
            "0x000000000000000000000000c1c167cc44f7923cd0062c4370df962f9ddb16f5",
            "0x0000000000000000000000000000000000000000000000000000000000000348"
          ],
          "data": "0x",
          "blockHash": "0xd57382ee980c9268d91ef99af4b9c6a5686f30f200da2e111416d97a99da9b0a",
          "blockNumber": "0x8487275",
          "transactionHash": "0x95f1d44775f7523d095d77971851d4f7d33f9e300f2c6125accf896bbc3fdd60",
          "transactionIndex": "0xa",
          "logIndex": "0x3a",
          "removed": false
        },
        {
          "address": "0xbb4a04e5f24127440fa933343f2b34f309aebdde",
          "topics": [
            "0x66ace591f7c88075839f4a0246420d0cc8a34cbe9a924cd0e1ca63c336344f4b",
            "0x0000000000000000000000009e1028f5f1d5ede59748ffcee5532509976840e0",
            "0x0000000000000000000000000000000000000000000000000000000000000019"
          ],
          "data": "0x",
          "blockHash": "0xd57382ee980c9268d91ef99af4b9c6a5686f30f200da2e111416d97a99da9b0a",
          "blockNumber": "0x8487275",
          "transactionHash": "0x95f1d44775f7523d095d77971851d4f7d33f9e300f2c6125accf896bbc3fdd60",
          "transactionIndex": "0xa",
          "logIndex": "0x3b",
          "removed": false
        },
        {
          "address": "0xbb4a04e5f24127440fa933343f2b34f309aebdde",
          "topics": [
            "0x077a94546a93ef5ed35409c7bd2466fb1170cfbd0faa6072ea22734d535f855f",
            "0x000000000000000000000000a12cddd8e986af9288ab31e58c60e65f2987fb13",
            "0x0000000000000000000000009e1028f5f1d5ede59748ffcee5532509976840e0",
            "0x0000000000000000000000000000000000000000000000000000000000000348"
          ],
          "data": "0x",
          "blockHash": "0xd57382ee980c9268d91ef99af4b9c6a5686f30f200da2e111416d97a99da9b0a",
          "blockNumber": "0x8487275",
          "transactionHash": "0x95f1d44775f7523d095d77971851d4f7d33f9e300f2c6125accf896bbc3fdd60",
          "transactionIndex": "0xa",
          "logIndex": "0x3c",
          "removed": false
        },
        {
          "address": "0xbb4a04e5f24127440fa933343f2b34f309aebdde",
          "topics": [
            "0x66ace591f7c88075839f4a0246420d0cc8a34cbe9a924cd0e1ca63c336344f4b",
            "0x00000000000000000000000099c59acebfef3bbfb7129dc90d1a11db0e91187f",
            "0x000000000000000000000000000000000000000000000000000000000000001a"
          ],
          "data": "0x",
          "blockHash": "0xd57382ee980c9268d91ef99af4b9c6a5686f30f200da2e111416d97a99da9b0a",
          "blockNumber": "0x8487275",
          "transactionHash": "0x95f1d44775f7523d095d77971851d4f7d33f9e300f2c6125accf896bbc3fdd60",
          "transactionIndex": "0xa",
          "logIndex": "0x3d",
          "removed": false
        },
        {
          "address": "0xbb4a04e5f24127440fa933343f2b34f309aebdde",
          "topics": [
            "0x077a94546a93ef5ed35409c7bd2466fb1170cfbd0faa6072ea22734d535f855f",
            "0x0000000000000000000000000838cfe6a97c9ce1611a6ed17252477a3c71ebeb",
            "0x00000000000000000000000099c59acebfef3bbfb7129dc90d1a11db0e91187f",
            "0x0000000000000000000000000000000000000000000000000000000000000348"
          ],
          "data": "0x",
          "blockHash": "0xd57382ee980c9268d91ef99af4b9c6a5686f30f200da2e111416d97a99da9b0a",
          "blockNumber": "0x8487275",
          "transactionHash": "0x95f1d44775f7523d095d77971851d4f7d33f9e300f2c6125accf896bbc3fdd60",
          "transactionIndex": "0xa",
          "logIndex": "0x3e",
          "removed": false
        },
        {
          "address": "0xbb4a04e5f24127440fa933343f2b34f309aebdde",
          "topics": [
            "0x66ace591f7c88075839f4a0246420d0cc8a34cbe9a924cd0e1ca63c336344f4b",
            "0x0000000000000000000000009bcef72be871e61ed4fbbc7630889bee758eb81d",
            "0x000000000000000000000000000000000000000000000000000000000000001b"
          ],
          "data": "0x",
          "blockHash": "0xd57382ee980c9268d91ef99af4b9c6a5686f30f200da2e111416d97a99da9b0a",
          "blockNumber": "0x8487275",
          "transactionHash": "0x95f1d44775f7523d095d77971851d4f7d33f9e300f2c6125accf896bbc3fdd60",
          "transactionIndex": "0xa",
          "logIndex": "0x3f",
          "removed": false
        },
        {
          "address": "0xbb4a04e5f24127440fa933343f2b34f309aebdde",
          "topics": [
            "0x077a94546a93ef5ed35409c7bd2466fb1170cfbd0faa6072ea22734d535f855f",
            "0x000000000000000000000000b429de60943a8e6ded356dca2f93cd31201d9ed0",
            "0x0000000000000000000000009bcef72be871e61ed4fbbc7630889bee758eb81d",
            "0x0000000000000000000000004200000000000000000000000000000000000006"
          ],
          "data": "0x",
          "blockHash": "0xd57382ee980c9268d91ef99af4b9c6a5686f30f200da2e111416d97a99da9b0a",
          "blockNumber": "0x8487275",
          "transactionHash": "0x95f1d44775f7523d095d77971851d4f7d33f9e300f2c6125accf896bbc3fdd60",
          "transactionIndex": "0xa",
          "logIndex": "0x40",
          "removed": false
        },
        {
          "address": "0xbb4a04e5f24127440fa933343f2b34f309aebdde",
          "topics": [
            "0x66ace591f7c88075839f4a0246420d0cc8a34cbe9a924cd0e1ca63c336344f4b",
            "0x000000000000000000000000c81d1f0eb955b0c020e5d5b264e1ff72c14d1401",
            "0x000000000000000000000000000000000000000000000000000000000000001c"
          ],
          "data": "0x",
          "blockHash": "0xd57382ee980c9268d91ef99af4b9c6a5686f30f200da2e111416d97a99da9b0a",
          "blockNumber": "0x8487275",
          "transactionHash": "0x95f1d44775f7523d095d77971851d4f7d33f9e300f2c6125accf896bbc3fdd60",
          "transactionIndex": "0xa",
          "logIndex": "0x41",
          "removed": false
        },
        {
          "address": "0xbb4a04e5f24127440fa933343f2b34f309aebdde",
          "topics": [
            "0x077a94546a93ef5ed35409c7bd2466fb1170cfbd0faa6072ea22734d535f855f",
            "0x000000000000000000000000ade082c91a6aecc86fc11704a830e933e1b382ea",
            "0x000000000000000000000000c81d1f0eb955b0c020e5d5b264e1ff72c14d1401",
            "0x0000000000000000000000000000000000000000000000000000000000000348"
          ],
          "data": "0x",
          "blockHash": "0xd57382ee980c9268d91ef99af4b9c6a5686f30f200da2e111416d97a99da9b0a",
          "blockNumber": "0x8487275",
          "transactionHash": "0x95f1d44775f7523d095d77971851d4f7d33f9e300f2c6125accf896bbc3fdd60",
          "transactionIndex": "0xa",
          "logIndex": "0x42",
          "removed": false
        },
        {
          "address": "0xbb4a04e5f24127440fa933343f2b34f309aebdde",
          "topics": [
            "0x66ace591f7c88075839f4a0246420d0cc8a34cbe9a924cd0e1ca63c336344f4b",
            "0x0000000000000000000000004186bfc76e2e237523cbc30fd220fe055156b41f",
            "0x000000000000000000000000000000000000000000000000000000000000001d"
          ],
          "data": "0x",
          "blockHash": "0xd57382ee980c9268d91ef99af4b9c6a5686f30f200da2e111416d97a99da9b0a",
          "blockNumber": "0x8487275",
          "transactionHash": "0x95f1d44775f7523d095d77971851d4f7d33f9e300f2c6125accf896bbc3fdd60",
          "transactionIndex": "0xa",
          "logIndex": "0x43",
          "removed": false
        },
        {
          "address": "0xbb4a04e5f24127440fa933343f2b34f309aebdde",
          "topics": [
            "0x077a94546a93ef5ed35409c7bd2466fb1170cfbd0faa6072ea22734d535f855f",
            "0x00000000000000000000000003fe94a215e3842ded931769f913d93ff33d0051",
            "0x0000000000000000000000004186bfc76e2e237523cbc30fd220fe055156b41f",
            "0x0000000000000000000000004200000000000000000000000000000000000006"
          ],
          "data": "0x",
          "blockHash": "0xd57382ee980c9268d91ef99af4b9c6a5686f30f200da2e111416d97a99da9b0a",
          "blockNumber": "0x8487275",
          "transactionHash": "0x95f1d44775f7523d095d77971851d4f7d33f9e300f2c6125accf896bbc3fdd60",
          "transactionIndex": "0xa",
          "logIndex": "0x44",
          "removed": false
        },
        {
          "address": "0xbb4a04e5f24127440fa933343f2b34f309aebdde",
          "topics": [
            "0x66ace591f7c88075839f4a0246420d0cc8a34cbe9a924cd0e1ca63c336344f4b",
            "0x0000000000000000000000009d36f8f62347538440a212e9162f534f797542df",
            "0x000000000000000000000000000000000000000000000000000000000000001e"
          ],
          "data": "0x",
          "blockHash": "0xd57382ee980c9268d91ef99af4b9c6a5686f30f200da2e111416d97a99da9b0a",
          "blockNumber": "0x8487275",
          "transactionHash": "0x95f1d44775f7523d095d77971851d4f7d33f9e300f2c6125accf896bbc3fdd60",
          "transactionIndex": "0xa",
          "logIndex": "0x45",
          "removed": false
        },
        {
          "address": "0xbb4a04e5f24127440fa933343f2b34f309aebdde",
          "topics": [
            "0x077a94546a93ef5ed35409c7bd2466fb1170cfbd0faa6072ea22734d535f855f",
            "0x00000000000000000000000050f8cf458e7334be143f3c9f1f1577ee37a45653",
            "0x0000000000000000000000009d36f8f62347538440a212e9162f534f797542df",
            "0x0000000000000000000000000000000000000000000000000000000000000348"
          ],
          "data": "0x",
          "blockHash": "0xd57382ee980c9268d91ef99af4b9c6a5686f30f200da2e111416d97a99da9b0a",
          "blockNumber": "0x8487275",
          "transactionHash": "0x95f1d44775f7523d095d77971851d4f7d33f9e300f2c6125accf896bbc3fdd60",
          "transactionIndex": "0xa",
          "logIndex": "0x46",
          "removed": false
        },
        {
          "address": "0xbb4a04e5f24127440fa933343f2b34f309aebdde",
          "topics": [
            "0x66ace591f7c88075839f4a0246420d0cc8a34cbe9a924cd0e1ca63c336344f4b",
            "0x000000000000000000000000484c2d6e3cdd945a8b2df735e079178c1036578c",
            "0x000000000000000000000000000000000000000000000000000000000000001f"
          ],
          "data": "0x",
          "blockHash": "0xd57382ee980c9268d91ef99af4b9c6a5686f30f200da2e111416d97a99da9b0a",
          "blockNumber": "0x8487275",
          "transactionHash": "0x95f1d44775f7523d095d77971851d4f7d33f9e300f2c6125accf896bbc3fdd60",
          "transactionIndex": "0xa",
          "logIndex": "0x47",
          "removed": false
        },
        {
          "address": "0xbb4a04e5f24127440fa933343f2b34f309aebdde",
          "topics": [
            "0x66ace591f7c88075839f4a0246420d0cc8a34cbe9a924cd0e1ca63c336344f4b",
            "0x0000000000000000000000006806411765af15bddd26f8f544a34cc40cb9838b",
            "0x0000000000000000000000000000000000000000000000000000000000000020"
          ],
          "data": "0x",
          "blockHash": "0xd57382ee980c9268d91ef99af4b9c6a5686f30f200da2e111416d97a99da9b0a",
          "blockNumber": "0x8487275",
          "transactionHash": "0x95f1d44775f7523d095d77971851d4f7d33f9e300f2c6125accf896bbc3fdd60",
          "transactionIndex": "0xa",
          "logIndex": "0x48",
          "removed": false
        },
        {
          "address": "0xbb4a04e5f24127440fa933343f2b34f309aebdde",
          "topics": [
            "0x077a94546a93ef5ed35409c7bd2466fb1170cfbd0faa6072ea22734d535f855f",
            "0x000000000000000000000000d2add08d9cd83720c9296a991ce066bb08265eac",
            "0x000000000000000000000000484c2d6e3cdd945a8b2df735e079178c1036578c",
            "0x0000000000000000000000006806411765af15bddd26f8f544a34cc40cb9838b"
          ],
          "data": "0x",
          "blockHash": "0xd57382ee980c9268d91ef99af4b9c6a5686f30f200da2e111416d97a99da9b0a",
          "blockNumber": "0x8487275",
          "transactionHash": "0x95f1d44775f7523d095d77971851d4f7d33f9e300f2c6125accf896bbc3fdd60",
          "transactionIndex": "0xa",
          "logIndex": "0x49",
          "removed": false
        },
        {
          "address": "0xbb4a04e5f24127440fa933343f2b34f309aebdde",
          "topics": [
            "0x66ace591f7c88075839f4a0246420d0cc8a34cbe9a924cd0e1ca63c336344f4b",
            "0x0000000000000000000000008700daec35af8ff88c16bdf0418774cb3d7599b4",
            "0x0000000000000000000000000000000000000000000000000000000000000021"
          ],
          "data": "0x",
          "blockHash": "0xd57382ee980c9268d91ef99af4b9c6a5686f30f200da2e111416d97a99da9b0a",
          "blockNumber": "0x8487275",
          "transactionHash": "0x95f1d44775f7523d095d77971851d4f7d33f9e300f2c6125accf896bbc3fdd60",
          "transactionIndex": "0xa",
          "logIndex": "0x4a",
          "removed": false
        },
        {
          "address": "0xbb4a04e5f24127440fa933343f2b34f309aebdde",
          "topics": [
            "0x077a94546a93ef5ed35409c7bd2466fb1170cfbd0faa6072ea22734d535f855f",
            "0x0000000000000000000000002fcf37343e916eaed1f1ddaaf84458a359b53877",
            "0x0000000000000000000000008700daec35af8ff88c16bdf0418774cb3d7599b4",
            "0x0000000000000000000000000000000000000000000000000000000000000348"
          ],
          "data": "0x",
          "blockHash": "0xd57382ee980c9268d91ef99af4b9c6a5686f30f200da2e111416d97a99da9b0a",
          "blockNumber": "0x8487275",
          "transactionHash": "0x95f1d44775f7523d095d77971851d4f7d33f9e300f2c6125accf896bbc3fdd60",
          "transactionIndex": "0xa",
          "logIndex": "0x4b",
          "removed": false
        },
        {
          "address": "0xbb4a04e5f24127440fa933343f2b34f309aebdde",
          "topics": [
            "0x66ace591f7c88075839f4a0246420d0cc8a34cbe9a924cd0e1ca63c336344f4b",
            "0x000000000000000000000000ba1cf949c382a32a09a17b2adf3587fc7fa664f1",
            "0x0000000000000000000000000000000000000000000000000000000000000022"
          ],
          "data": "0x",
          "blockHash": "0xd57382ee980c9268d91ef99af4b9c6a5686f30f200da2e111416d97a99da9b0a",
          "blockNumber": "0x8487275",
          "transactionHash": "0x95f1d44775f7523d095d77971851d4f7d33f9e300f2c6125accf896bbc3fdd60",
          "transactionIndex": "0xa",
          "logIndex": "0x4c",
          "removed": false
        },
        {
          "address": "0xbb4a04e5f24127440fa933343f2b34f309aebdde",
          "topics": [
            "0x077a94546a93ef5ed35409c7bd2466fb1170cfbd0faa6072ea22734d535f855f",
            "0x000000000000000000000000c663315f7af904fbbb0f785c32046dfa03e85270",
            "0x000000000000000000000000ba1cf949c382a32a09a17b2adf3587fc7fa664f1",
            "0x0000000000000000000000000000000000000000000000000000000000000348"
          ],
          "data": "0x",
          "blockHash": "0xd57382ee980c9268d91ef99af4b9c6a5686f30f200da2e111416d97a99da9b0a",
          "blockNumber": "0x8487275",
          "transactionHash": "0x95f1d44775f7523d095d77971851d4f7d33f9e300f2c6125accf896bbc3fdd60",
          "transactionIndex": "0xa",
          "logIndex": "0x4d",
          "removed": false
        },
        {
          "address": "0xbb4a04e5f24127440fa933343f2b34f309aebdde",
          "topics": [
            "0x66ace591f7c88075839f4a0246420d0cc8a34cbe9a924cd0e1ca63c336344f4b",
            "0x000000000000000000000000d6b9d8f938326fcdffe082e270bd0f0a9f39e8fb",
            "0x0000000000000000000000000000000000000000000000000000000000000023"
          ],
          "data": "0x",
          "blockHash": "0xd57382ee980c9268d91ef99af4b9c6a5686f30f200da2e111416d97a99da9b0a",
          "blockNumber": "0x8487275",
          "transactionHash": "0x95f1d44775f7523d095d77971851d4f7d33f9e300f2c6125accf896bbc3fdd60",
          "transactionIndex": "0xa",
          "logIndex": "0x4e",
          "removed": false
        },
        {
          "address": "0xbb4a04e5f24127440fa933343f2b34f309aebdde",
          "topics": [
            "0x077a94546a93ef5ed35409c7bd2466fb1170cfbd0faa6072ea22734d535f855f",
            "0x0000000000000000000000008814dec83e2862a3792a0d6adfc48cf76add1890",
            "0x000000000000000000000000d6b9d8f938326fcdffe082e270bd0f0a9f39e8fb",
            "0x0000000000000000000000000000000000000000000000000000000000000348"
          ],
          "data": "0x",
          "blockHash": "0xd57382ee980c9268d91ef99af4b9c6a5686f30f200da2e111416d97a99da9b0a",
          "blockNumber": "0x8487275",
          "transactionHash": "0x95f1d44775f7523d095d77971851d4f7d33f9e300f2c6125accf896bbc3fdd60",
          "transactionIndex": "0xa",
          "logIndex": "0x4f",
          "removed": false
        },
        {
          "address": "0xbb4a04e5f24127440fa933343f2b34f309aebdde",
          "topics": [
            "0x66ace591f7c88075839f4a0246420d0cc8a34cbe9a924cd0e1ca63c336344f4b",
            "0x0000000000000000000000008c6f28f2f1a3c87f0f938b96d27520d9751ec8d9",
            "0x0000000000000000000000000000000000000000000000000000000000000024"
          ],
          "data": "0x",
          "blockHash": "0xd57382ee980c9268d91ef99af4b9c6a5686f30f200da2e111416d97a99da9b0a",
          "blockNumber": "0x8487275",
          "transactionHash": "0x95f1d44775f7523d095d77971851d4f7d33f9e300f2c6125accf896bbc3fdd60",
          "transactionIndex": "0xa",
          "logIndex": "0x50",
          "removed": false
        },
        {
          "address": "0xbb4a04e5f24127440fa933343f2b34f309aebdde",
          "topics": [
            "0x077a94546a93ef5ed35409c7bd2466fb1170cfbd0faa6072ea22734d535f855f",
            "0x0000000000000000000000007f99817d87bad03ea21e05112ca799d715730efe",
            "0x0000000000000000000000008c6f28f2f1a3c87f0f938b96d27520d9751ec8d9",
            "0x0000000000000000000000000000000000000000000000000000000000000348"
          ],
          "data": "0x",
          "blockHash": "0xd57382ee980c9268d91ef99af4b9c6a5686f30f200da2e111416d97a99da9b0a",
          "blockNumber": "0x8487275",
          "transactionHash": "0x95f1d44775f7523d095d77971851d4f7d33f9e300f2c6125accf896bbc3fdd60",
          "transactionIndex": "0xa",
          "logIndex": "0x51",
          "removed": false
        },
        {
          "address": "0xbb4a04e5f24127440fa933343f2b34f309aebdde",
          "topics": [
            "0x66ace591f7c88075839f4a0246420d0cc8a34cbe9a924cd0e1ca63c336344f4b",
            "0x000000000000000000000000211cc4dd073734da055fbf44a2b4667d5e5fe5d2",
            "0x0000000000000000000000000000000000000000000000000000000000000025"
          ],
          "data": "0x",
          "blockHash": "0xd57382ee980c9268d91ef99af4b9c6a5686f30f200da2e111416d97a99da9b0a",
          "blockNumber": "0x8487275",
          "transactionHash": "0x95f1d44775f7523d095d77971851d4f7d33f9e300f2c6125accf896bbc3fdd60",
          "transactionIndex": "0xa",
          "logIndex": "0x52",
          "removed": false
        },
        {
          "address": "0xbb4a04e5f24127440fa933343f2b34f309aebdde",
          "topics": [
            "0x077a94546a93ef5ed35409c7bd2466fb1170cfbd0faa6072ea22734d535f855f",
            "0x00000000000000000000000005950959b6d876ae0fed1bbe5caa2d74d8659d59",
            "0x000000000000000000000000211cc4dd073734da055fbf44a2b4667d5e5fe5d2",
            "0x0000000000000000000000000000000000000000000000000000000000000348"
          ],
          "data": "0x",
          "blockHash": "0xd57382ee980c9268d91ef99af4b9c6a5686f30f200da2e111416d97a99da9b0a",
          "blockNumber": "0x8487275",
          "transactionHash": "0x95f1d44775f7523d095d77971851d4f7d33f9e300f2c6125accf896bbc3fdd60",
          "transactionIndex": "0xa",
          "logIndex": "0x53",
          "removed": false
        },
        {
          "address": "0xbb4a04e5f24127440fa933343f2b34f309aebdde",
          "topics": [
            "0x66ace591f7c88075839f4a0246420d0cc8a34cbe9a924cd0e1ca63c336344f4b",
            "0x0000000000000000000000005d3a1ff2b6bab83b63cd9ad0787074081a52ef34",
            "0x0000000000000000000000000000000000000000000000000000000000000026"
          ],
          "data": "0x",
          "blockHash": "0xd57382ee980c9268d91ef99af4b9c6a5686f30f200da2e111416d97a99da9b0a",
          "blockNumber": "0x8487275",
          "transactionHash": "0x95f1d44775f7523d095d77971851d4f7d33f9e300f2c6125accf896bbc3fdd60",
          "transactionIndex": "0xa",
          "logIndex": "0x54",
          "removed": false
        },
        {
          "address": "0xbb4a04e5f24127440fa933343f2b34f309aebdde",
          "topics": [
            "0x077a94546a93ef5ed35409c7bd2466fb1170cfbd0faa6072ea22734d535f855f",
            "0x00000000000000000000000085342bc62aadef58f029ab6d17d643949e6f073e",
            "0x000000000000000000000000211cc4dd073734da055fbf44a2b4667d5e5fe5d2",
            "0x0000000000000000000000005d3a1ff2b6bab83b63cd9ad0787074081a52ef34"
          ],
          "data": "0x",
          "blockHash": "0xd57382ee980c9268d91ef99af4b9c6a5686f30f200da2e111416d97a99da9b0a",
          "blockNumber": "0x8487275",
          "transactionHash": "0x95f1d44775f7523d095d77971851d4f7d33f9e300f2c6125accf896bbc3fdd60",
          "transactionIndex": "0xa",
          "logIndex": "0x55",
          "removed": false
        },
        {
          "address": "0xbb4a04e5f24127440fa933343f2b34f309aebdde",
          "topics": [
            "0x66ace591f7c88075839f4a0246420d0cc8a34cbe9a924cd0e1ca63c336344f4b",
            "0x0000000000000000000000003eaeb77b03dbc0f6321ae1b72b2e9adb0f60112b",
            "0x0000000000000000000000000000000000000000000000000000000000000027"
          ],
          "data": "0x",
          "blockHash": "0xd57382ee980c9268d91ef99af4b9c6a5686f30f200da2e111416d97a99da9b0a",
          "blockNumber": "0x8487275",
          "transactionHash": "0x95f1d44775f7523d095d77971851d4f7d33f9e300f2c6125accf896bbc3fdd60",
          "transactionIndex": "0xa",
          "logIndex": "0x56",
          "removed": false
        },
        {
          "address": "0xbb4a04e5f24127440fa933343f2b34f309aebdde",
          "topics": [
            "0x077a94546a93ef5ed35409c7bd2466fb1170cfbd0faa6072ea22734d535f855f",
            "0x00000000000000000000000072155d46fd9f03af1739637f9e7db8a87c40a730",
            "0x0000000000000000000000003eaeb77b03dbc0f6321ae1b72b2e9adb0f60112b",
            "0x0000000000000000000000000000000000000000000000000000000000000348"
          ],
          "data": "0x",
          "blockHash": "0xd57382ee980c9268d91ef99af4b9c6a5686f30f200da2e111416d97a99da9b0a",
          "blockNumber": "0x8487275",
          "transactionHash": "0x95f1d44775f7523d095d77971851d4f7d33f9e300f2c6125accf896bbc3fdd60",
          "transactionIndex": "0xa",
          "logIndex": "0x57",
          "removed": false
        },
        {
          "address": "0xbb4a04e5f24127440fa933343f2b34f309aebdde",
          "topics": [
            "0x66ace591f7c88075839f4a0246420d0cc8a34cbe9a924cd0e1ca63c336344f4b",
            "0x0000000000000000000000006c84a8f1c29108f47a79964b5fe888d4f4d0de40",
            "0x0000000000000000000000000000000000000000000000000000000000000028"
          ],
          "data": "0x",
          "blockHash": "0xd57382ee980c9268d91ef99af4b9c6a5686f30f200da2e111416d97a99da9b0a",
          "blockNumber": "0x8487275",
          "transactionHash": "0x95f1d44775f7523d095d77971851d4f7d33f9e300f2c6125accf896bbc3fdd60",
          "transactionIndex": "0xa",
          "logIndex": "0x58",
          "removed": false
        },
        {
          "address": "0xbb4a04e5f24127440fa933343f2b34f309aebdde",
          "topics": [
            "0x077a94546a93ef5ed35409c7bd2466fb1170cfbd0faa6072ea22734d535f855f",
            "0x0000000000000000000000005a61374950d4bfa5a3d4f2ca36fc1d23a92b6f21",
            "0x0000000000000000000000006c84a8f1c29108f47a79964b5fe888d4f4d0de40",
            "0x0000000000000000000000000000000000000000000000000000000000000348"
          ],
          "data": "0x",
          "blockHash": "0xd57382ee980c9268d91ef99af4b9c6a5686f30f200da2e111416d97a99da9b0a",
          "blockNumber": "0x8487275",
          "transactionHash": "0x95f1d44775f7523d095d77971851d4f7d33f9e300f2c6125accf896bbc3fdd60",
          "transactionIndex": "0xa",
          "logIndex": "0x59",
          "removed": false
        },
        {
          "address": "0xbb4a04e5f24127440fa933343f2b34f309aebdde",
          "topics": [
            "0x66ace591f7c88075839f4a0246420d0cc8a34cbe9a924cd0e1ca63c336344f4b",
            "0x000000000000000000000000b1ae0a34dc3976d98c1741c92b798daf8e0e1e11",
            "0x0000000000000000000000000000000000000000000000000000000000000029"
          ],
          "data": "0x",
          "blockHash": "0xd57382ee980c9268d91ef99af4b9c6a5686f30f200da2e111416d97a99da9b0a",
          "blockNumber": "0x8487275",
          "transactionHash": "0x95f1d44775f7523d095d77971851d4f7d33f9e300f2c6125accf896bbc3fdd60",
          "transactionIndex": "0xa",
          "logIndex": "0x5a",
          "removed": false
        },
        {
          "address": "0xbb4a04e5f24127440fa933343f2b34f309aebdde",
          "topics": [
            "0x077a94546a93ef5ed35409c7bd2466fb1170cfbd0faa6072ea22734d535f855f",
            "0x0000000000000000000000000e09921cf7801a5ad47b892c8727593275625a9f",
            "0x000000000000000000000000b1ae0a34dc3976d98c1741c92b798daf8e0e1e11",
            "0x0000000000000000000000000000000000000000000000000000000000000348"
          ],
          "data": "0x",
          "blockHash": "0xd57382ee980c9268d91ef99af4b9c6a5686f30f200da2e111416d97a99da9b0a",
          "blockNumber": "0x8487275",
          "transactionHash": "0x95f1d44775f7523d095d77971851d4f7d33f9e300f2c6125accf896bbc3fdd60",
          "transactionIndex": "0xa",
          "logIndex": "0x5b",
          "removed": false
        },
        {
          "address": "0xbb4a04e5f24127440fa933343f2b34f309aebdde",
          "topics": [
            "0x66ace591f7c88075839f4a0246420d0cc8a34cbe9a924cd0e1ca63c336344f4b",
            "0x0000000000000000000000006fd9d7ad17242c41f7131d257212c54a0e816691",
            "0x000000000000000000000000000000000000000000000000000000000000002a"
          ],
          "data": "0x",
          "blockHash": "0xd57382ee980c9268d91ef99af4b9c6a5686f30f200da2e111416d97a99da9b0a",
          "blockNumber": "0x8487275",
          "transactionHash": "0x95f1d44775f7523d095d77971851d4f7d33f9e300f2c6125accf896bbc3fdd60",
          "transactionIndex": "0xa",
          "logIndex": "0x5c",
          "removed": false
        },
        {
          "address": "0xbb4a04e5f24127440fa933343f2b34f309aebdde",
          "topics": [
            "0x077a94546a93ef5ed35409c7bd2466fb1170cfbd0faa6072ea22734d535f855f",
            "0x00000000000000000000000011429ee838cc01071402f21c219870cbac0a59a0",
            "0x0000000000000000000000006fd9d7ad17242c41f7131d257212c54a0e816691",
            "0x0000000000000000000000000000000000000000000000000000000000000348"
          ],
          "data": "0x",
          "blockHash": "0xd57382ee980c9268d91ef99af4b9c6a5686f30f200da2e111416d97a99da9b0a",
          "blockNumber": "0x8487275",
          "transactionHash": "0x95f1d44775f7523d095d77971851d4f7d33f9e300f2c6125accf896bbc3fdd60",
          "transactionIndex": "0xa",
          "logIndex": "0x5d",
          "removed": false
        },
        {
          "address": "0xbb4a04e5f24127440fa933343f2b34f309aebdde",
          "topics": [
            "0x66ace591f7c88075839f4a0246420d0cc8a34cbe9a924cd0e1ca63c336344f4b",
            "0x00000000000000000000000093919784c523f39cacaa98ee0a9d96c3f32b593e",
            "0x000000000000000000000000000000000000000000000000000000000000002b"
          ],
          "data": "0x",
          "blockHash": "0xd57382ee980c9268d91ef99af4b9c6a5686f30f200da2e111416d97a99da9b0a",
          "blockNumber": "0x8487275",
          "transactionHash": "0x95f1d44775f7523d095d77971851d4f7d33f9e300f2c6125accf896bbc3fdd60",
          "transactionIndex": "0xa",
          "logIndex": "0x5e",
          "removed": false
        },
        {
          "address": "0xbb4a04e5f24127440fa933343f2b34f309aebdde",
          "topics": [
            "0x077a94546a93ef5ed35409c7bd2466fb1170cfbd0faa6072ea22734d535f855f",
            "0x000000000000000000000000089730f866c6d478398ce1632c7c38677c475ec1",
            "0x00000000000000000000000093919784c523f39cacaa98ee0a9d96c3f32b593e",
            "0x00000000000000000000000068f180fcce6836688e9084f035309e29bf0a2095"
          ],
          "data": "0x",
          "blockHash": "0xd57382ee980c9268d91ef99af4b9c6a5686f30f200da2e111416d97a99da9b0a",
          "blockNumber": "0x8487275",
          "transactionHash": "0x95f1d44775f7523d095d77971851d4f7d33f9e300f2c6125accf896bbc3fdd60",
          "transactionIndex": "0xa",
          "logIndex": "0x5f",
          "removed": false
        },
        {
          "address": "0xbb4a04e5f24127440fa933343f2b34f309aebdde",
          "topics": [
            "0x66ace591f7c88075839f4a0246420d0cc8a34cbe9a924cd0e1ca63c336344f4b",
            "0x0000000000000000000000000b2c639c533813f4aa9d7837caf62653d097ff85",
            "0x000000000000000000000000000000000000000000000000000000000000002c"
          ],
          "data": "0x",
          "blockHash": "0xd57382ee980c9268d91ef99af4b9c6a5686f30f200da2e111416d97a99da9b0a",
          "blockNumber": "0x8487275",
          "transactionHash": "0x95f1d44775f7523d095d77971851d4f7d33f9e300f2c6125accf896bbc3fdd60",
          "transactionIndex": "0xa",
          "logIndex": "0x60",
          "removed": false
        },
        {
          "address": "0xbb4a04e5f24127440fa933343f2b34f309aebdde",
          "topics": [
            "0x077a94546a93ef5ed35409c7bd2466fb1170cfbd0faa6072ea22734d535f855f",
            "0x00000000000000000000000016a9fa2fda030272ce99b29cf780dfa30361e0f3",
            "0x0000000000000000000000000b2c639c533813f4aa9d7837caf62653d097ff85",
            "0x0000000000000000000000000000000000000000000000000000000000000348"
          ],
          "data": "0x",
          "blockHash": "0xd57382ee980c9268d91ef99af4b9c6a5686f30f200da2e111416d97a99da9b0a",
          "blockNumber": "0x8487275",
          "transactionHash": "0x95f1d44775f7523d095d77971851d4f7d33f9e300f2c6125accf896bbc3fdd60",
          "transactionIndex": "0xa",
          "logIndex": "0x61",
          "removed": false
        },
        {
          "address": "0xbb4a04e5f24127440fa933343f2b34f309aebdde",
          "topics": [
            "0x077a94546a93ef5ed35409c7bd2466fb1170cfbd0faa6072ea22734d535f855f",
            "0x000000000000000000000000eedf0b095b5dfe75f3881cb26c19da209a27463a",
            "0x0000000000000000000000005d3a1ff2b6bab83b63cd9ad0787074081a52ef34",
            "0x0000000000000000000000000000000000000000000000000000000000000348"
          ],
          "data": "0x",
          "blockHash": "0xd57382ee980c9268d91ef99af4b9c6a5686f30f200da2e111416d97a99da9b0a",
          "blockNumber": "0x8487275",
          "transactionHash": "0x95f1d44775f7523d095d77971851d4f7d33f9e300f2c6125accf896bbc3fdd60",
          "transactionIndex": "0xa",
          "logIndex": "0x62",
          "removed": false
        },
        {
          "address": "0xbb4a04e5f24127440fa933343f2b34f309aebdde",
          "topics": [
            "0x66ace591f7c88075839f4a0246420d0cc8a34cbe9a924cd0e1ca63c336344f4b",
            "0x00000000000000000000000094b008aa00579c1307b0ef2c499ad98a8ce58e58",
            "0x000000000000000000000000000000000000000000000000000000000000002d"
          ],
          "data": "0x",
          "blockHash": "0xd57382ee980c9268d91ef99af4b9c6a5686f30f200da2e111416d97a99da9b0a",
          "blockNumber": "0x8487275",
          "transactionHash": "0x95f1d44775f7523d095d77971851d4f7d33f9e300f2c6125accf896bbc3fdd60",
          "transactionIndex": "0xa",
          "logIndex": "0x63",
          "removed": false
        },
        {
          "address": "0xbb4a04e5f24127440fa933343f2b34f309aebdde",
          "topics": [
            "0x077a94546a93ef5ed35409c7bd2466fb1170cfbd0faa6072ea22734d535f855f",
            "0x000000000000000000000000ecef79e109e997bca29c1c0897ec9d7b03647f5e",
            "0x00000000000000000000000094b008aa00579c1307b0ef2c499ad98a8ce58e58",
            "0x0000000000000000000000000000000000000000000000000000000000000348"
          ],
          "data": "0x",
          "blockHash": "0xd57382ee980c9268d91ef99af4b9c6a5686f30f200da2e111416d97a99da9b0a",
          "blockNumber": "0x8487275",
          "transactionHash": "0x95f1d44775f7523d095d77971851d4f7d33f9e300f2c6125accf896bbc3fdd60",
          "transactionIndex": "0xa",
          "logIndex": "0x64",
          "removed": false
        },
        {
          "address": "0xbb4a04e5f24127440fa933343f2b34f309aebdde",
          "topics": [
            "0x66ace591f7c88075839f4a0246420d0cc8a34cbe9a924cd0e1ca63c336344f4b",
            "0x0000000000000000000000003c8b650257cfb5f272f799f5e2b4e65093a11a05",
            "0x000000000000000000000000000000000000000000000000000000000000002e"
          ],
          "data": "0x",
          "blockHash": "0xd57382ee980c9268d91ef99af4b9c6a5686f30f200da2e111416d97a99da9b0a",
          "blockNumber": "0x8487275",
          "transactionHash": "0x95f1d44775f7523d095d77971851d4f7d33f9e300f2c6125accf896bbc3fdd60",
          "transactionIndex": "0xa",
          "logIndex": "0x65",
          "removed": false
        },
        {
          "address": "0xbb4a04e5f24127440fa933343f2b34f309aebdde",
          "topics": [
            "0x077a94546a93ef5ed35409c7bd2466fb1170cfbd0faa6072ea22734d535f855f",
            "0x0000000000000000000000000f2ed59657e391746c1a097bda98f2abb94b1120",
            "0x0000000000000000000000003c8b650257cfb5f272f799f5e2b4e65093a11a05",
            "0x0000000000000000000000000000000000000000000000000000000000000348"
          ],
          "data": "0x",
          "blockHash": "0xd57382ee980c9268d91ef99af4b9c6a5686f30f200da2e111416d97a99da9b0a",
          "blockNumber": "0x8487275",
          "transactionHash": "0x95f1d44775f7523d095d77971851d4f7d33f9e300f2c6125accf896bbc3fdd60",
          "transactionIndex": "0xa",
          "logIndex": "0x66",
          "removed": false
        },
        {
          "address": "0xbb4a04e5f24127440fa933343f2b34f309aebdde",
          "topics": [
            "0x66ace591f7c88075839f4a0246420d0cc8a34cbe9a924cd0e1ca63c336344f4b",
            "0x0000000000000000000000005a7facb970d094b6c7ff1df0ea68d99e6e73cbff",
            "0x000000000000000000000000000000000000000000000000000000000000002f"
          ],
          "data": "0x",
          "blockHash": "0xd57382ee980c9268d91ef99af4b9c6a5686f30f200da2e111416d97a99da9b0a",
          "blockNumber": "0x8487275",
          "transactionHash": "0x95f1d44775f7523d095d77971851d4f7d33f9e300f2c6125accf896bbc3fdd60",
          "transactionIndex": "0xa",
          "logIndex": "0x67",
          "removed": false
        },
        {
          "address": "0xbb4a04e5f24127440fa933343f2b34f309aebdde",
          "topics": [
            "0x077a94546a93ef5ed35409c7bd2466fb1170cfbd0faa6072ea22734d535f855f",
            "0x000000000000000000000000b4479d436dda5c1a79bd88d282725615202406e3",
            "0x0000000000000000000000005a7facb970d094b6c7ff1df0ea68d99e6e73cbff",
            "0x0000000000000000000000004200000000000000000000000000000000000006"
          ],
          "data": "0x",
          "blockHash": "0xd57382ee980c9268d91ef99af4b9c6a5686f30f200da2e111416d97a99da9b0a",
          "blockNumber": "0x8487275",
          "transactionHash": "0x95f1d44775f7523d095d77971851d4f7d33f9e300f2c6125accf896bbc3fdd60",
          "transactionIndex": "0xa",
          "logIndex": "0x68",
          "removed": false
        },
        {
          "address": "0xbb4a04e5f24127440fa933343f2b34f309aebdde",
          "topics": [
            "0x66ace591f7c88075839f4a0246420d0cc8a34cbe9a924cd0e1ca63c336344f4b",
            "0x000000000000000000000000a88594d404727625a9437c3f886c7643872296ae",
            "0x0000000000000000000000000000000000000000000000000000000000000030"
          ],
          "data": "0x",
          "blockHash": "0xd57382ee980c9268d91ef99af4b9c6a5686f30f200da2e111416d97a99da9b0a",
          "blockNumber": "0x8487275",
          "transactionHash": "0x95f1d44775f7523d095d77971851d4f7d33f9e300f2c6125accf896bbc3fdd60",
          "transactionIndex": "0xa",
          "logIndex": "0x69",
          "removed": false
        },
        {
          "address": "0xbb4a04e5f24127440fa933343f2b34f309aebdde",
          "topics": [
            "0x077a94546a93ef5ed35409c7bd2466fb1170cfbd0faa6072ea22734d535f855f",
            "0x0000000000000000000000007f102e5b4c32e0861293e97de85e6e0db3530605",
            "0x000000000000000000000000a88594d404727625a9437c3f886c7643872296ae",
            "0x0000000000000000000000000000000000000000000000000000000000000348"
          ],
          "data": "0x",
          "blockHash": "0xd57382ee980c9268d91ef99af4b9c6a5686f30f200da2e111416d97a99da9b0a",
          "blockNumber": "0x8487275",
          "transactionHash": "0x95f1d44775f7523d095d77971851d4f7d33f9e300f2c6125accf896bbc3fdd60",
          "transactionIndex": "0xa",
          "logIndex": "0x6a",
          "removed": false
        },
        {
          "address": "0xbb4a04e5f24127440fa933343f2b34f309aebdde",
          "topics": [
            "0x66ace591f7c88075839f4a0246420d0cc8a34cbe9a924cd0e1ca63c336344f4b",
            "0x000000000000000000000000dc6ff44d5d932cbd77b52e5612ba0529dc6226f1",
            "0x0000000000000000000000000000000000000000000000000000000000000031"
          ],
          "data": "0x",
          "blockHash": "0xd57382ee980c9268d91ef99af4b9c6a5686f30f200da2e111416d97a99da9b0a",
          "blockNumber": "0x8487275",
          "transactionHash": "0x95f1d44775f7523d095d77971851d4f7d33f9e300f2c6125accf896bbc3fdd60",
          "transactionIndex": "0xa",
          "logIndex": "0x6b",
          "removed": false
        },
        {
          "address": "0xbb4a04e5f24127440fa933343f2b34f309aebdde",
          "topics": [
            "0x077a94546a93ef5ed35409c7bd2466fb1170cfbd0faa6072ea22734d535f855f",
            "0x0000000000000000000000004e1c6b168dcfd7758bc2ab9d2865f1895813d236",
            "0x000000000000000000000000dc6ff44d5d932cbd77b52e5612ba0529dc6226f1",
            "0x0000000000000000000000000000000000000000000000000000000000000348"
          ],
          "data": "0x",
          "blockHash": "0xd57382ee980c9268d91ef99af4b9c6a5686f30f200da2e111416d97a99da9b0a",
          "blockNumber": "0x8487275",
          "transactionHash": "0x95f1d44775f7523d095d77971851d4f7d33f9e300f2c6125accf896bbc3fdd60",
          "transactionIndex": "0xa",
          "logIndex": "0x6c",
          "removed": false
        },
        {
          "address": "0xbb4a04e5f24127440fa933343f2b34f309aebdde",
          "topics": [
            "0x66ace591f7c88075839f4a0246420d0cc8a34cbe9a924cd0e1ca63c336344f4b",
            "0x00000000000000000000000087eee96d50fb761ad85b1c982d28a042169d61b1",
            "0x0000000000000000000000000000000000000000000000000000000000000032"
          ],
          "data": "0x",
          "blockHash": "0xd57382ee980c9268d91ef99af4b9c6a5686f30f200da2e111416d97a99da9b0a",
          "blockNumber": "0x8487275",
          "transactionHash": "0x95f1d44775f7523d095d77971851d4f7d33f9e300f2c6125accf896bbc3fdd60",
          "transactionIndex": "0xa",
          "logIndex": "0x6d",
          "removed": false
        },
        {
          "address": "0xbb4a04e5f24127440fa933343f2b34f309aebdde",
          "topics": [
            "0x077a94546a93ef5ed35409c7bd2466fb1170cfbd0faa6072ea22734d535f855f",
            "0x00000000000000000000000073b8be3b653c5896bc34fc87cebc8acf4fb7a545",
            "0x00000000000000000000000087eee96d50fb761ad85b1c982d28a042169d61b1",
            "0x0000000000000000000000004200000000000000000000000000000000000006"
          ],
          "data": "0x",
          "blockHash": "0xd57382ee980c9268d91ef99af4b9c6a5686f30f200da2e111416d97a99da9b0a",
          "blockNumber": "0x8487275",
          "transactionHash": "0x95f1d44775f7523d095d77971851d4f7d33f9e300f2c6125accf896bbc3fdd60",
          "transactionIndex": "0xa",
          "logIndex": "0x6e",
          "removed": false
        },
        {
          "address": "0xbb4a04e5f24127440fa933343f2b34f309aebdde",
          "topics": [
            "0x66ace591f7c88075839f4a0246420d0cc8a34cbe9a924cd0e1ca63c336344f4b",
            "0x0000000000000000000000001f32b1c2345538c0c6f582fcb022739c4a194ebb",
            "0x0000000000000000000000000000000000000000000000000000000000000033"
          ],
          "data": "0x",
          "blockHash": "0xd57382ee980c9268d91ef99af4b9c6a5686f30f200da2e111416d97a99da9b0a",
          "blockNumber": "0x8487275",
          "transactionHash": "0x95f1d44775f7523d095d77971851d4f7d33f9e300f2c6125accf896bbc3fdd60",
          "transactionIndex": "0xa",
          "logIndex": "0x6f",
          "removed": false
        },
        {
          "address": "0xbb4a04e5f24127440fa933343f2b34f309aebdde",
          "topics": [
            "0x077a94546a93ef5ed35409c7bd2466fb1170cfbd0faa6072ea22734d535f855f",
            "0x000000000000000000000000524299ab0987a7c4b3c8022a35669ddcdc715a10",
            "0x0000000000000000000000001f32b1c2345538c0c6f582fcb022739c4a194ebb",
            "0x0000000000000000000000004200000000000000000000000000000000000006"
          ],
          "data": "0x",
          "blockHash": "0xd57382ee980c9268d91ef99af4b9c6a5686f30f200da2e111416d97a99da9b0a",
          "blockNumber": "0x8487275",
          "transactionHash": "0x95f1d44775f7523d095d77971851d4f7d33f9e300f2c6125accf896bbc3fdd60",
          "transactionIndex": "0xa",
          "logIndex": "0x70",
          "removed": false
        },
        {
          "address": "0xbb4a04e5f24127440fa933343f2b34f309aebdde",
          "topics": [
            "0x077a94546a93ef5ed35409c7bd2466fb1170cfbd0faa6072ea22734d535f855f",
            "0x000000000000000000000000698b585cbc4407e2d54aa898b2600b53c68958f7",
            "0x0000000000000000000000001f32b1c2345538c0c6f582fcb022739c4a194ebb",
            "0x0000000000000000000000000000000000000000000000000000000000000348"
          ],
          "data": "0x",
          "blockHash": "0xd57382ee980c9268d91ef99af4b9c6a5686f30f200da2e111416d97a99da9b0a",
          "blockNumber": "0x8487275",
          "transactionHash": "0x95f1d44775f7523d095d77971851d4f7d33f9e300f2c6125accf896bbc3fdd60",
          "transactionIndex": "0xa",
          "logIndex": "0x71",
          "removed": false
        },
        {
          "address": "0xbb4a04e5f24127440fa933343f2b34f309aebdde",
          "topics": [
            "0x66ace591f7c88075839f4a0246420d0cc8a34cbe9a924cd0e1ca63c336344f4b",
            "0x0000000000000000000000009046d36440290ffde54fe0dd84db8b1cfee9107b",
            "0x0000000000000000000000000000000000000000000000000000000000000034"
          ],
          "data": "0x",
          "blockHash": "0xd57382ee980c9268d91ef99af4b9c6a5686f30f200da2e111416d97a99da9b0a",
          "blockNumber": "0x8487275",
          "transactionHash": "0x95f1d44775f7523d095d77971851d4f7d33f9e300f2c6125accf896bbc3fdd60",
          "transactionIndex": "0xa",
          "logIndex": "0x72",
          "removed": false
        },
        {
          "address": "0xbb4a04e5f24127440fa933343f2b34f309aebdde",
          "topics": [
            "0x077a94546a93ef5ed35409c7bd2466fb1170cfbd0faa6072ea22734d535f855f",
            "0x0000000000000000000000005cdc797accbf57ee2363fed9701262abc87a232e",
            "0x0000000000000000000000009046d36440290ffde54fe0dd84db8b1cfee9107b",
            "0x0000000000000000000000000000000000000000000000000000000000000348"
          ],
          "data": "0x",
          "blockHash": "0xd57382ee980c9268d91ef99af4b9c6a5686f30f200da2e111416d97a99da9b0a",
          "blockNumber": "0x8487275",
          "transactionHash": "0x95f1d44775f7523d095d77971851d4f7d33f9e300f2c6125accf896bbc3fdd60",
          "transactionIndex": "0xa",
          "logIndex": "0x73",
          "removed": false
        },
        {
          "address": "0xbb4a04e5f24127440fa933343f2b34f309aebdde",
          "topics": [
            "0x66ace591f7c88075839f4a0246420d0cc8a34cbe9a924cd0e1ca63c336344f4b",
            "0x000000000000000000000000d1917629b3e6a72e6772aab5dbe58eb7fa3c2f33",
            "0x0000000000000000000000000000000000000000000000000000000000000035"
          ],
          "data": "0x",
          "blockHash": "0xd57382ee980c9268d91ef99af4b9c6a5686f30f200da2e111416d97a99da9b0a",
          "blockNumber": "0x8487275",
          "transactionHash": "0x95f1d44775f7523d095d77971851d4f7d33f9e300f2c6125accf896bbc3fdd60",
          "transactionIndex": "0xa",
          "logIndex": "0x74",
          "removed": false
        },
        {
          "address": "0xbb4a04e5f24127440fa933343f2b34f309aebdde",
          "topics": [
            "0x077a94546a93ef5ed35409c7bd2466fb1170cfbd0faa6072ea22734d535f855f",
            "0x000000000000000000000000bfbb4fe2fb71022dbfe0d4232c8c528bddf9c57f",
            "0x000000000000000000000000d1917629b3e6a72e6772aab5dbe58eb7fa3c2f33",
            "0x0000000000000000000000000000000000000000000000000000000000000348"
          ],
          "data": "0x",
          "blockHash": "0xd57382ee980c9268d91ef99af4b9c6a5686f30f200da2e111416d97a99da9b0a",
          "blockNumber": "0x8487275",
          "transactionHash": "0x95f1d44775f7523d095d77971851d4f7d33f9e300f2c6125accf896bbc3fdd60",
          "transactionIndex": "0xa",
          "logIndex": "0x75",
          "removed": false
        }
      ],
      "logsBloom": "0xa69808c41028802010c3005c108890050402c24500110404810040000241080218a6100440204212a00004406440089011403900070489b134200c5600240080149138e84040058880a04000004200081a434281008702911404140230030273a920082000496000680508210040d0002000500052aa0604005020e82d6002c000d01704d1801801010a0c000008041218105900808e4000104002c4000a200008042f4401520004a2000d860502020401040068a28891600022140814094604c2101c0080c0241006111000960008000820a07084e0101960200328c008603ea0204203421400100818a438012682001800a10006800404650a008812a89024",
      "type": "0x2",
      "transactionHash": "0x95f1d44775f7523d095d77971851d4f7d33f9e300f2c6125accf896bbc3fdd60",
      "transactionIndex": "0xa",
      "blockHash": "0xd57382ee980c9268d91ef99af4b9c6a5686f30f200da2e111416d97a99da9b0a",
      "blockNumber": "0x8487275",
      "gasUsed": "0x58ff3e",
      "effectiveGasPrice": "0x5db",
      "from": "0x7f3119f15153b353c2a903468b84899b1ac207bb",
      "to": "0xbb4a04e5f24127440fa933343f2b34f309aebdde",
      "contractAddress": null,
      "l1BaseFeeScalar": "0x146b",
      "l1BlobBaseFee": "0x1",
      "l1BlobBaseFeeScalar": "0xf79c5",
      "l1Fee": "0xa1744b3e3",
      "l1GasPrice": "0xeb30355",
      "l1GasUsed": "0x8355"
    }
  ],
  "libraries": [],
  "pending": [],
  "returns": {},
  "timestamp": 1753530019,
  "chain": 10,
  "commit": "e9531ff"
}