{
  "transactions": [
    {
      "hash": "0x48466f751037e77ca80c4382095c513b5280e50eec2ce74603173becb0487563",
      "transactionType": "CALL",
      "contractName": null,
      "contractAddress": "0xbb4a04e5f24127440fa933343f2b34f309aebdde",
      "function": "register(bytes)",
      "arguments": [
        "0x3d6774ef702a10b20fca8ed40fc022f7e4938e0763706e401c06ac8513145b7687a14804d17f814b00000000000000000000000000000000000003484ec5970fc728c5f65ba413992cd5ff6fd70fcff0940181a94a35a4569e4529a3cdfb74e38fd986310000000000000000000000000000000000000348674e028b95330e77f5cf89834254a6bfa806f3a275e6b648c91d222b2f6318e8ceeed4b691d5323f0000000000000000000000000000000000000348947ed6a3664fce27a365b720286c01074d3782e0d89d90d26b48940fa8f58385fe84625d468e057a0000000000000000000000000000000000000348e70f2d34fd04046aaec26a198a35dd8f2df5cd92d6a34b430c05ac78c24985f8abee2616bc1788cb0000000000000000000000000000000000000348676c4c6c31d97a5581d3204c04a8125b350e2f9d23ee2343b892b1bb63503a4fabc840e0e2c6810f000000000000000000000000000000000000034864c911996d3c6ac71f9b455b1e8e7266bcbd848f0555e30da8f98308edb960aa94c0db47230d2b9c000000000000000000000000000000000000034807da0e54543a844a80abe69c8a12f22b3aa59f9dcbb7c0000ab88b473b1f5afd9ef808440eed33bf0000000000000000000000000000000000000348806b4ac04501c29769051e42783cf04dce41440b2ae3f1ec7f1f5012cfeab0185bfc7aa3cf0dec224200000000000000000000000000000000000006d7818272b9e248357d13057aab0b417af31e817d2ae3f1ec7f1f5012cfeab0185bfc7aa3cf0dec2200000000000000000000000000000000000003489dda783de64a9d1a60c49ca761ebe528c35ba4289e1028f5f1d5ede59748ffcee5532509976840e0000000000000000000000000000000000000034890f3676b40f6dc2c1e074985d0544bb8e1815b00bb22ff867f8ca3d5f2251b4084f6ec86d4666e140000000000000000000000000000000000000348bbda526258856c06f167399097e13d79e8f88ba883db73ef5192de4b6a4c92bd0141ba1a0dc87c650000000000000000000000000000000000000348591e79239a7d679378ec8c847e5038150364c78f50c5725949a6f0c72e6c4a641f24049a917db0cb0000000000000000000000000000000000000348e62bce5d7cb9d16ab8b4d622538bc0a50a5799c24ed4e862860bed51a9570b96d89af5e1b0efefed000000000000000000000000000000000000034871041dddad3595f9ced3dccfbe3d1f4b0a16bb7042000000000000000000000000000000000000060000000000000000000000000000000000000348960bdd1dfd20d7c98fa482d793c3dedd73a113a32416092f143378750bb29b79ed961ab195cceea5420000000000000000000000000000000000000642868efcee13c0e71af89c04ff7d96f5bec479b06bb7a212910682dcfdbd5bcbb3e28fb4e8da10ee00000000000000000000000000000000000003481e6c22aaa11f507af12034a5dc4126a6a25dc8d2ecac9c5f704e954931349da37f60e39f515c11c10555e30da8f98308edb960aa94c0db47230d2b9c9e07546c9fe8868855cd04b26051a26d1599e270ecac9c5f704e954931349da37f60e39f515c11c10000000000000000000000000000000000000348c5e65227fe3385b88468f9a01600017cdc9f3a12d403d1624daef243fbcbd4a80d8a6f36affe32b2420000000000000000000000000000000000000617cab8fe31e32f08326e5e27412894e49b0f9d65d403d1624daef243fbcbd4a80d8a6f36affe32b20000000000000000000000000000000000000348979447581b39caca33ef0ca8208592393d16cc1324fcfc492c1393274b6bcd568ac9e225bec935840000000000000000000000000000000000000348faf372cabc765b63f6fabd436c845d965eda1ca5813f392d21a55819be5e78157bfcdbd25530f4e80000000000000000000000000000000000000348e95e258bb6615d47515fc849f8542da651f12bf6baa5cc21fd487b8fcc2f632f3f4e8d37262a0842000000000000000000000000000000000000034891d7aed72bf772a0da30199b925acb866acd3d9e7002458b1df59eccb57387bc79ffc7c29e22e6f700000000000000000000000000000000000003480e230b1077c663f8fb5e68d84a8e3e33d97d74361217bfe6c773eec6cc4a38b5dc45b92292b6e18900000000000000000000000000000000000003485e988c11a4f92155c30d9fb69ed75597f712b113e868c3d83ec287c01bcb533a33d197d9bfa79dad0000000000000000000000000000000000000348ef2e24ba6def99b5e0b71f6cdeaf294b02163094d722e55c1d9d9fa0021a5215cbb904b92b3dc5d40000000000000000000000000000000000000348f397bf97280b488ca19ee3093e81c0a77f02e9a5b6fe221fe9eef5aba221c348ba20a1bf5e73624c4200000000000000000000000000000000000006d7221b10fbbc1e1ba95fd0b4d031c15f7f3652961bc71130a0e39942a7658878169764bbd8a459934200000000000000000000000000000000000006aa98ae504658766dfe11f31c5d95a0bdcabde0b1ab36452dbac151be02b16ca17d8919826072f64a0000000000000000000000000000000000000348e3971ed6f1a5903321479ef3148b5950c061207522e6966b799c4d5b13be962e1d117b56327fda660000000000000000000000000000000000000348975043adbb80fc32276cbf9bbcfd4a601a12462d36fac215813de8507869fdb01c8ec42dca7a7d4a0000000000000000000000000000000000000348b4a1a7f260c9ff7fed6a6fbb9fe5a9acfa725dbf3b86ad95859b6ab773f55f8d94b4b9d443ee931f0555e30da8f98308edb960aa94c0db47230d2b9c63af8341b62e683b87bb540896bf283d96b4d385e3b53af74a4bf62ae5511055290838050bf764df000000000000000000000000000000000000034879cf4a31b29d69191f0b6e97916eb93feb81e533211cc4dd073734da055fbf44a2b4667d5e5fe5d20000000000000000000000000000000000000348ded37fc1400b8022968441356f771639ad1b23aa211cc4dd073734da055fbf44a2b4667d5e5fe5d25d3a1ff2b6bab83b63cd9ad0787074081a52ef34906b24a339b848369b24dc9ed368b947fb9693bf5875eee11cf8398102fdad704c9e96607675467a820c137fa70c8691f0e44dc420a5e53c168921dcd89c7ffb39c44b17eaecd8717a75a36c19c07582e31ee12bdfdd0573d634124611e85338e2cbf0cf04d5ddf5f3a8939889f11e97f8c4bb48317f19386d75bfb5a5885f841b132198c9f0be8c872057bf236aa50979d5f3de3bd1eeb40e81137f22ab794b00000000000000000000000000000000000003487bafa1af54f17cc0775a1cf813b9ff5ded2c51e5c27468b12ffa6d714b1b5fbc87ef403f38b82ad40000000000000000000000000000000000000348bc7c5023ee571e4d9c4890c90a16be05c1eef41093919784c523f39cacaa98ee0a9d96c3f32b593e0555e30da8f98308edb960aa94c0db47230d2b9c7e860098f58bbfc8648a4311b374b1d669a2bc6b833589fcd6edb6e08f4c7c32d4f71b54bda029130000000000000000000000000000000000000348790181e93e9f4eedb5b864860c12e4d2cfffe73b5d3a1ff2b6bab83b63cd9ad0787074081a52ef3400000000000000000000000000000000000003482330aae3bca5f05169d5f4597964d44522f62930820c137fa70c8691f0e44dc420a5e53c168921dc0000000000000000000000000000000000000348f19d560eb8d2adf07bd6d13ed03e1d11215721f9fde4c96c8593536e31f229ea8f37b2ada2699bb20000000000000000000000000000000000000348e25969e2fa633a0c027fab8f30fc9c6a90d60b4804d5ddf5f3a8939889f11e97f8c4bb48317f193800000000000000000000000000000000000003484a595e0a62e50a2e5ec95a70c8e612f9746af00635e5db674d8e93a03d814fa0ada70731efe8a4b90000000000000000000000000000000000000348eaf310161c9ef7c813a14f8fef6fb271434019f70b3e328455c4059eeb9e3f84b5543f74e24e7e1b00000000000000000000000000000000000003488ec6a128a430f7a850165bcf18facc9520a9873facfe6019ed1a7dc6f7b508c02d1b04ec88cc21bf0000000000000000000000000000000000000348fc1415403ebb0c693f9a7844b92ad2ff24775c6504c0599ae5a44757c0af6f9ec3b93da8976c150a4200000000000000000000000000000000000006c15d9944daefe2db03e53bef8dda25a56832c5feff8adec2221f9f4d8dfbafa6b9a297d17603493d000000000000000000000000000000000000034843a5c292a453a3bf3606fa856197f09d7b74251ac1cba3fcea344f92d9239c08c0568f6f2f0ee4524200000000000000000000000000000000000006d40e758b5ec80820b68dfc302fc5ce12390835489eaf8c1e34f05a589eda6bafdf391cf6ad3cb239000000000000000000000000000000000000034819c6501ee6ff5faf36346031a92c46af128807d32c8c89c442436cc6c0a77943e09c8daf49da31610000000000000000000000000000000000000348dc31a4ccfca039bec6222e20be7770e12581bfeb6985884c4392d348587b19cb9eaaf157f13271cd0000000000000000000000000000000000000348"
      ],
      "transaction": {
        "from": "0x7f3119f15153b353c2a903468b84899b1ac207bb",
        "to": "0xbb4a04e5f24127440fa933343f2b34f309aebdde",
        "gas": "0x7bacf2",
        "value": "0x0",
        "input": "0x82fbdc9c00000000000000000000000000000000000000000000000000000000000000200000000000000000000000000000000000000000000000000000000000000d5c3d6774ef702a10b20fca8ed40fc022f7e4938e0763706e401c06ac8513145b7687a14804d17f814b00000000000000000000000000000000000003484ec5970fc728c5f65ba413992cd5ff6fd70fcff0940181a94a35a4569e4529a3cdfb74e38fd986310000000000000000000000000000000000000348674e028b95330e77f5cf89834254a6bfa806f3a275e6b648c91d222b2f6318e8ceeed4b691d5323f0000000000000000000000000000000000000348947ed6a3664fce27a365b720286c01074d3782e0d89d90d26b48940fa8f58385fe84625d468e057a0000000000000000000000000000000000000348e70f2d34fd04046aaec26a198a35dd8f2df5cd92d6a34b430c05ac78c24985f8abee2616bc1788cb0000000000000000000000000000000000000348676c4c6c31d97a5581d3204c04a8125b350e2f9d23ee2343b892b1bb63503a4fabc840e0e2c6810f000000000000000000000000000000000000034864c911996d3c6ac71f9b455b1e8e7266bcbd848f0555e30da8f98308edb960aa94c0db47230d2b9c000000000000000000000000000000000000034807da0e54543a844a80abe69c8a12f22b3aa59f9dcbb7c0000ab88b473b1f5afd9ef808440eed33bf0000000000000000000000000000000000000348806b4ac04501c29769051e42783cf04dce41440b2ae3f1ec7f1f5012cfeab0185bfc7aa3cf0dec224200000000000000000000000000000000000006d7818272b9e248357d13057aab0b417af31e817d2ae3f1ec7f1f5012cfeab0185bfc7aa3cf0dec2200000000000000000000000000000000000003489dda783de64a9d1a60c49ca761ebe528c35ba4289e1028f5f1d5ede59748ffcee5532509976840e0000000000000000000000000000000000000034890f3676b40f6dc2c1e074985d0544bb8e1815b00bb22ff867f8ca3d5f2251b4084f6ec86d4666e140000000000000000000000000000000000000348bbda526258856c06f167399097e13d79e8f88ba883db73ef5192de4b6a4c92bd0141ba1a0dc87c650000000000000000000000000000000000000348591e79239a7d679378ec8c847e5038150364c78f50c5725949a6f0c72e6c4a641f24049a917db0cb0000000000000000000000000000000000000348e62bce5d7cb9d16ab8b4d622538bc0a50a5799c24ed4e862860bed51a9570b96d89af5e1b0efefed000000000000000000000000000000000000034871041dddad3595f9ced3dccfbe3d1f4b0a16bb7042000000000000000000000000000000000000060000000000000000000000000000000000000348960bdd1dfd20d7c98fa482d793c3dedd73a113a32416092f143378750bb29b79ed961ab195cceea5420000000000000000000000000000000000000642868efcee13c0e71af89c04ff7d96f5bec479b06bb7a212910682dcfdbd5bcbb3e28fb4e8da10ee00000000000000000000000000000000000003481e6c22aaa11f507af12034a5dc4126a6a25dc8d2ecac9c5f704e954931349da37f60e39f515c11c10555e30da8f98308edb960aa94c0db47230d2b9c9e07546c9fe8868855cd04b26051a26d1599e270ecac9c5f704e954931349da37f60e39f515c11c10000000000000000000000000000000000000348c5e65227fe3385b88468f9a01600017cdc9f3a12d403d1624daef243fbcbd4a80d8a6f36affe32b2420000000000000000000000000000000000000617cab8fe31e32f08326e5e27412894e49b0f9d65d403d1624daef243fbcbd4a80d8a6f36affe32b20000000000000000000000000000000000000348979447581b39caca33ef0ca8208592393d16cc1324fcfc492c1393274b6bcd568ac9e225bec935840000000000000000000000000000000000000348faf372cabc765b63f6fabd436c845d965eda1ca5813f392d21a55819be5e78157bfcdbd25530f4e80000000000000000000000000000000000000348e95e258bb6615d47515fc849f8542da651f12bf6baa5cc21fd487b8fcc2f632f3f4e8d37262a0842000000000000000000000000000000000000034891d7aed72bf772a0da30199b925acb866acd3d9e7002458b1df59eccb57387bc79ffc7c29e22e6f700000000000000000000000000000000000003480e230b1077c663f8fb5e68d84a8e3e33d97d74361217bfe6c773eec6cc4a38b5dc45b92292b6e18900000000000000000000000000000000000003485e988c11a4f92155c30d9fb69ed75597f712b113e868c3d83ec287c01bcb533a33d197d9bfa79dad0000000000000000000000000000000000000348ef2e24ba6def99b5e0b71f6cdeaf294b02163094d722e55c1d9d9fa0021a5215cbb904b92b3dc5d40000000000000000000000000000000000000348f397bf97280b488ca19ee3093e81c0a77f02e9a5b6fe221fe9eef5aba221c348ba20a1bf5e73624c4200000000000000000000000000000000000006d7221b10fbbc1e1ba95fd0b4d031c15f7f3652961bc71130a0e39942a7658878169764bbd8a459934200000000000000000000000000000000000006aa98ae504658766dfe11f31c5d95a0bdcabde0b1ab36452dbac151be02b16ca17d8919826072f64a0000000000000000000000000000000000000348e3971ed6f1a5903321479ef3148b5950c061207522e6966b799c4d5b13be962e1d117b56327fda660000000000000000000000000000000000000348975043adbb80fc32276cbf9bbcfd4a601a12462d36fac215813de8507869fdb01c8ec42dca7a7d4a0000000000000000000000000000000000000348b4a1a7f260c9ff7fed6a6fbb9fe5a9acfa725dbf3b86ad95859b6ab773f55f8d94b4b9d443ee931f0555e30da8f98308edb960aa94c0db47230d2b9c63af8341b62e683b87bb540896bf283d96b4d385e3b53af74a4bf62ae5511055290838050bf764df000000000000000000000000000000000000034879cf4a31b29d69191f0b6e97916eb93feb81e533211cc4dd073734da055fbf44a2b4667d5e5fe5d20000000000000000000000000000000000000348ded37fc1400b8022968441356f771639ad1b23aa211cc4dd073734da055fbf44a2b4667d5e5fe5d25d3a1ff2b6bab83b63cd9ad0787074081a52ef34906b24a339b848369b24dc9ed368b947fb9693bf5875eee11cf8398102fdad704c9e96607675467a820c137fa70c8691f0e44dc420a5e53c168921dcd89c7ffb39c44b17eaecd8717a75a36c19c07582e31ee12bdfdd0573d634124611e85338e2cbf0cf04d5ddf5f3a8939889f11e97f8c4bb48317f19386d75bfb5a5885f841b132198c9f0be8c872057bf236aa50979d5f3de3bd1eeb40e81137f22ab794b00000000000000000000000000000000000003487bafa1af54f17cc0775a1cf813b9ff5ded2c51e5c27468b12ffa6d714b1b5fbc87ef403f38b82ad40000000000000000000000000000000000000348bc7c5023ee571e4d9c4890c90a16be05c1eef41093919784c523f39cacaa98ee0a9d96c3f32b593e0555e30da8f98308edb960aa94c0db47230d2b9c7e860098f58bbfc8648a4311b374b1d669a2bc6b833589fcd6edb6e08f4c7c32d4f71b54bda029130000000000000000000000000000000000000348790181e93e9f4eedb5b864860c12e4d2cfffe73b5d3a1ff2b6bab83b63cd9ad0787074081a52ef3400000000000000000000000000000000000003482330aae3bca5f05169d5f4597964d44522f62930820c137fa70c8691f0e44dc420a5e53c168921dc0000000000000000000000000000000000000348f19d560eb8d2adf07bd6d13ed03e1d11215721f9fde4c96c8593536e31f229ea8f37b2ada2699bb20000000000000000000000000000000000000348e25969e2fa633a0c027fab8f30fc9c6a90d60b4804d5ddf5f3a8939889f11e97f8c4bb48317f193800000000000000000000000000000000000003484a595e0a62e50a2e5ec95a70c8e612f9746af00635e5db674d8e93a03d814fa0ada70731efe8a4b90000000000000000000000000000000000000348eaf310161c9ef7c813a14f8fef6fb271434019f70b3e328455c4059eeb9e3f84b5543f74e24e7e1b00000000000000000000000000000000000003488ec6a128a430f7a850165bcf18facc9520a9873facfe6019ed1a7dc6f7b508c02d1b04ec88cc21bf0000000000000000000000000000000000000348fc1415403ebb0c693f9a7844b92ad2ff24775c6504c0599ae5a44757c0af6f9ec3b93da8976c150a4200000000000000000000000000000000000006c15d9944daefe2db03e53bef8dda25a56832c5feff8adec2221f9f4d8dfbafa6b9a297d17603493d000000000000000000000000000000000000034843a5c292a453a3bf3606fa856197f09d7b74251ac1cba3fcea344f92d9239c08c0568f6f2f0ee4524200000000000000000000000000000000000006d40e758b5ec80820b68dfc302fc5ce12390835489eaf8c1e34f05a589eda6bafdf391cf6ad3cb239000000000000000000000000000000000000034819c6501ee6ff5faf36346031a92c46af128807d32c8c89c442436cc6c0a77943e09c8daf49da31610000000000000000000000000000000000000348dc31a4ccfca039bec6222e20be7770e12581bfeb6985884c4392d348587b19cb9eaaf157f13271cd000000000000000000000000000000000000034800000000",
        "nonce": "0x3",
        "chainId": "0x2105"
      },
      "additionalContracts": [],
      "isFixedGasLimit": false
    }
  ],
  "receipts": [
    {
      "status": "0x1",
      "cumulativeGasUsed": "0x374fde4",
      "logs": [
        {
          "address": "0xbb4a04e5f24127440fa933343f2b34f309aebdde",
          "topics": [
            "0x66ace591f7c88075839f4a0246420d0cc8a34cbe9a924cd0e1ca63c336344f4b",
            "0x00000000000000000000000063706e401c06ac8513145b7687a14804d17f814b",
            "0x0000000000000000000000000000000000000000000000000000000000000001"
          ],
          "data": "0x",
          "blockHash": "0xf2fbfec8dbefe898ff4f1a215e1bbd38311cb370b0f94dbb3bf8d3cf65c45f1b",
          "blockNumber": "0x1fd2d59",
          "blockTimestamp": "0x6884b795",
          "transactionHash": "0x48466f751037e77ca80c4382095c513b5280e50eec2ce74603173becb0487563",
          "transactionIndex": "0x71",
          "logIndex": "0x5dc",
          "removed": false
        },
        {
          "address": "0xbb4a04e5f24127440fa933343f2b34f309aebdde",
          "topics": [
            "0x077a94546a93ef5ed35409c7bd2466fb1170cfbd0faa6072ea22734d535f855f",
            "0x0000000000000000000000003d6774ef702a10b20fca8ed40fc022f7e4938e07",
            "0x00000000000000000000000063706e401c06ac8513145b7687a14804d17f814b",
            "0x0000000000000000000000000000000000000000000000000000000000000348"
          ],
          "data": "0x",
          "blockHash": "0xf2fbfec8dbefe898ff4f1a215e1bbd38311cb370b0f94dbb3bf8d3cf65c45f1b",
          "blockNumber": "0x1fd2d59",
          "blockTimestamp": "0x6884b795",
          "transactionHash": "0x48466f751037e77ca80c4382095c513b5280e50eec2ce74603173becb0487563",
          "transactionIndex": "0x71",
          "logIndex": "0x5dd",
          "removed": false
        },
        {
          "address": "0xbb4a04e5f24127440fa933343f2b34f309aebdde",
          "topics": [
            "0x66ace591f7c88075839f4a0246420d0cc8a34cbe9a924cd0e1ca63c336344f4b",
            "0x000000000000000000000000940181a94a35a4569e4529a3cdfb74e38fd98631",
            "0x0000000000000000000000000000000000000000000000000000000000000002"
          ],
          "data": "0x",
          "blockHash": "0xf2fbfec8dbefe898ff4f1a215e1bbd38311cb370b0f94dbb3bf8d3cf65c45f1b",
          "blockNumber": "0x1fd2d59",
          "blockTimestamp": "0x6884b795",
          "transactionHash": "0x48466f751037e77ca80c4382095c513b5280e50eec2ce74603173becb0487563",
          "transactionIndex": "0x71",
          "logIndex": "0x5de",
          "removed": false
        },
        {
          "address": "0xbb4a04e5f24127440fa933343f2b34f309aebdde",
          "topics": [
            "0x077a94546a93ef5ed35409c7bd2466fb1170cfbd0faa6072ea22734d535f855f",
            "0x0000000000000000000000004ec5970fc728c5f65ba413992cd5ff6fd70fcff0",
            "0x000000000000000000000000940181a94a35a4569e4529a3cdfb74e38fd98631",
            "0x0000000000000000000000000000000000000000000000000000000000000348"
          ],
          "data": "0x",
          "blockHash": "0xf2fbfec8dbefe898ff4f1a215e1bbd38311cb370b0f94dbb3bf8d3cf65c45f1b",
          "blockNumber": "0x1fd2d59",
          "blockTimestamp": "0x6884b795",
          "transactionHash": "0x48466f751037e77ca80c4382095c513b5280e50eec2ce74603173becb0487563",
          "transactionIndex": "0x71",
          "logIndex": "0x5df",
          "removed": false
        },
        {
          "address": "0xbb4a04e5f24127440fa933343f2b34f309aebdde",
          "topics": [
            "0x66ace591f7c88075839f4a0246420d0cc8a34cbe9a924cd0e1ca63c336344f4b",
            "0x00000000000000000000000075e6b648c91d222b2f6318e8ceeed4b691d5323f",
            "0x0000000000000000000000000000000000000000000000000000000000000003"
          ],
          "data": "0x",
          "blockHash": "0xf2fbfec8dbefe898ff4f1a215e1bbd38311cb370b0f94dbb3bf8d3cf65c45f1b",
          "blockNumber": "0x1fd2d59",
          "blockTimestamp": "0x6884b795",
          "transactionHash": "0x48466f751037e77ca80c4382095c513b5280e50eec2ce74603173becb0487563",
          "transactionIndex": "0x71",
          "logIndex": "0x5e0",
          "removed": false
        },
        {
          "address": "0xbb4a04e5f24127440fa933343f2b34f309aebdde",
          "topics": [
            "0x077a94546a93ef5ed35409c7bd2466fb1170cfbd0faa6072ea22734d535f855f",
            "0x000000000000000000000000674e028b95330e77f5cf89834254a6bfa806f3a2",
            "0x00000000000000000000000075e6b648c91d222b2f6318e8ceeed4b691d5323f",
            "0x0000000000000000000000000000000000000000000000000000000000000348"
          ],
          "data": "0x",
          "blockHash": "0xf2fbfec8dbefe898ff4f1a215e1bbd38311cb370b0f94dbb3bf8d3cf65c45f1b",
          "blockNumber": "0x1fd2d59",
          "blockTimestamp": "0x6884b795",
          "transactionHash": "0x48466f751037e77ca80c4382095c513b5280e50eec2ce74603173becb0487563",
          "transactionIndex": "0x71",
          "logIndex": "0x5e1",
          "removed": false
        },
        {
          "address": "0xbb4a04e5f24127440fa933343f2b34f309aebdde",
          "topics": [
            "0x66ace591f7c88075839f4a0246420d0cc8a34cbe9a924cd0e1ca63c336344f4b",
            "0x000000000000000000000000d89d90d26b48940fa8f58385fe84625d468e057a",
            "0x0000000000000000000000000000000000000000000000000000000000000004"
          ],
          "data": "0x",
          "blockHash": "0xf2fbfec8dbefe898ff4f1a215e1bbd38311cb370b0f94dbb3bf8d3cf65c45f1b",
          "blockNumber": "0x1fd2d59",
          "blockTimestamp": "0x6884b795",
          "transactionHash": "0x48466f751037e77ca80c4382095c513b5280e50eec2ce74603173becb0487563",
          "transactionIndex": "0x71",
          "logIndex": "0x5e2",
          "removed": false
        },
        {
          "address": "0xbb4a04e5f24127440fa933343f2b34f309aebdde",
          "topics": [
            "0x077a94546a93ef5ed35409c7bd2466fb1170cfbd0faa6072ea22734d535f855f",
            "0x000000000000000000000000947ed6a3664fce27a365b720286c01074d3782e0",
            "0x000000000000000000000000d89d90d26b48940fa8f58385fe84625d468e057a",
            "0x0000000000000000000000000000000000000000000000000000000000000348"
          ],
          "data": "0x",
          "blockHash": "0xf2fbfec8dbefe898ff4f1a215e1bbd38311cb370b0f94dbb3bf8d3cf65c45f1b",
          "blockNumber": "0x1fd2d59",
          "blockTimestamp": "0x6884b795",
          "transactionHash": "0x48466f751037e77ca80c4382095c513b5280e50eec2ce74603173becb0487563",
          "transactionIndex": "0x71",
          "logIndex": "0x5e3",
          "removed": false
        },
        {
          "address": "0xbb4a04e5f24127440fa933343f2b34f309aebdde",
          "topics": [
            "0x66ace591f7c88075839f4a0246420d0cc8a34cbe9a924cd0e1ca63c336344f4b",
            "0x000000000000000000000000d6a34b430c05ac78c24985f8abee2616bc1788cb",
            "0x0000000000000000000000000000000000000000000000000000000000000005"
          ],
          "data": "0x",
          "blockHash": "0xf2fbfec8dbefe898ff4f1a215e1bbd38311cb370b0f94dbb3bf8d3cf65c45f1b",
          "blockNumber": "0x1fd2d59",
          "blockTimestamp": "0x6884b795",
          "transactionHash": "0x48466f751037e77ca80c4382095c513b5280e50eec2ce74603173becb0487563",
          "transactionIndex": "0x71",
          "logIndex": "0x5e4",
          "removed": false
        },
        {
          "address": "0xbb4a04e5f24127440fa933343f2b34f309aebdde",
          "topics": [
            "0x077a94546a93ef5ed35409c7bd2466fb1170cfbd0faa6072ea22734d535f855f",
            "0x000000000000000000000000e70f2d34fd04046aaec26a198a35dd8f2df5cd92",
            "0x000000000000000000000000d6a34b430c05ac78c24985f8abee2616bc1788cb",
            "0x0000000000000000000000000000000000000000000000000000000000000348"
          ],
          "data": "0x",
          "blockHash": "0xf2fbfec8dbefe898ff4f1a215e1bbd38311cb370b0f94dbb3bf8d3cf65c45f1b",
          "blockNumber": "0x1fd2d59",
          "blockTimestamp": "0x6884b795",
          "transactionHash": "0x48466f751037e77ca80c4382095c513b5280e50eec2ce74603173becb0487563",
          "transactionIndex": "0x71",
          "logIndex": "0x5e5",
          "removed": false
        },
        {
          "address": "0xbb4a04e5f24127440fa933343f2b34f309aebdde",
          "topics": [
            "0x66ace591f7c88075839f4a0246420d0cc8a34cbe9a924cd0e1ca63c336344f4b",
            "0x00000000000000000000000023ee2343b892b1bb63503a4fabc840e0e2c6810f",
            "0x0000000000000000000000000000000000000000000000000000000000000006"
          ],
          "data": "0x",
          "blockHash": "0xf2fbfec8dbefe898ff4f1a215e1bbd38311cb370b0f94dbb3bf8d3cf65c45f1b",
          "blockNumber": "0x1fd2d59",
          "blockTimestamp": "0x6884b795",
          "transactionHash": "0x48466f751037e77ca80c4382095c513b5280e50eec2ce74603173becb0487563",
          "transactionIndex": "0x71",
          "logIndex": "0x5e6",
          "removed": false
        },
        {
          "address": "0xbb4a04e5f24127440fa933343f2b34f309aebdde",
          "topics": [
            "0x077a94546a93ef5ed35409c7bd2466fb1170cfbd0faa6072ea22734d535f855f",
            "0x000000000000000000000000676c4c6c31d97a5581d3204c04a8125b350e2f9d",
            "0x00000000000000000000000023ee2343b892b1bb63503a4fabc840e0e2c6810f",
            "0x0000000000000000000000000000000000000000000000000000000000000348"
          ],
          "data": "0x",
          "blockHash": "0xf2fbfec8dbefe898ff4f1a215e1bbd38311cb370b0f94dbb3bf8d3cf65c45f1b",
          "blockNumber": "0x1fd2d59",
          "blockTimestamp": "0x6884b795",
          "transactionHash": "0x48466f751037e77ca80c4382095c513b5280e50eec2ce74603173becb0487563",
          "transactionIndex": "0x71",
          "logIndex": "0x5e7",
          "removed": false
        },
        {
          "address": "0xbb4a04e5f24127440fa933343f2b34f309aebdde",
          "topics": [
            "0x66ace591f7c88075839f4a0246420d0cc8a34cbe9a924cd0e1ca63c336344f4b",
            "0x0000000000000000000000000555e30da8f98308edb960aa94c0db47230d2b9c",
            "0x0000000000000000000000000000000000000000000000000000000000000007"
          ],
          "data": "0x",
          "blockHash": "0xf2fbfec8dbefe898ff4f1a215e1bbd38311cb370b0f94dbb3bf8d3cf65c45f1b",
          "blockNumber": "0x1fd2d59",
          "blockTimestamp": "0x6884b795",
          "transactionHash": "0x48466f751037e77ca80c4382095c513b5280e50eec2ce74603173becb0487563",
          "transactionIndex": "0x71",
          "logIndex": "0x5e8",
          "removed": false
        },
        {
          "address": "0xbb4a04e5f24127440fa933343f2b34f309aebdde",
          "topics": [
            "0x077a94546a93ef5ed35409c7bd2466fb1170cfbd0faa6072ea22734d535f855f",
            "0x00000000000000000000000064c911996d3c6ac71f9b455b1e8e7266bcbd848f",
            "0x0000000000000000000000000555e30da8f98308edb960aa94c0db47230d2b9c",
            "0x0000000000000000000000000000000000000000000000000000000000000348"
          ],
          "data": "0x",
          "blockHash": "0xf2fbfec8dbefe898ff4f1a215e1bbd38311cb370b0f94dbb3bf8d3cf65c45f1b",
          "blockNumber": "0x1fd2d59",
          "blockTimestamp": "0x6884b795",
          "transactionHash": "0x48466f751037e77ca80c4382095c513b5280e50eec2ce74603173becb0487563",
          "transactionIndex": "0x71",
          "logIndex": "0x5e9",
          "removed": false
        },
        {
          "address": "0xbb4a04e5f24127440fa933343f2b34f309aebdde",
          "topics": [
            "0x66ace591f7c88075839f4a0246420d0cc8a34cbe9a924cd0e1ca63c336344f4b",
            "0x000000000000000000000000cbb7c0000ab88b473b1f5afd9ef808440eed33bf",
            "0x0000000000000000000000000000000000000000000000000000000000000008"
          ],
          "data": "0x",
          "blockHash": "0xf2fbfec8dbefe898ff4f1a215e1bbd38311cb370b0f94dbb3bf8d3cf65c45f1b",
          "blockNumber": "0x1fd2d59",
          "blockTimestamp": "0x6884b795",
          "transactionHash": "0x48466f751037e77ca80c4382095c513b5280e50eec2ce74603173becb0487563",
          "transactionIndex": "0x71",
          "logIndex": "0x5ea",
          "removed": false
        },
        {
          "address": "0xbb4a04e5f24127440fa933343f2b34f309aebdde",
          "topics": [
            "0x077a94546a93ef5ed35409c7bd2466fb1170cfbd0faa6072ea22734d535f855f",
            "0x00000000000000000000000007da0e54543a844a80abe69c8a12f22b3aa59f9d",
            "0x000000000000000000000000cbb7c0000ab88b473b1f5afd9ef808440eed33bf",
            "0x0000000000000000000000000000000000000000000000000000000000000348"
          ],
          "data": "0x",
          "blockHash": "0xf2fbfec8dbefe898ff4f1a215e1bbd38311cb370b0f94dbb3bf8d3cf65c45f1b",
          "blockNumber": "0x1fd2d59",
          "blockTimestamp": "0x6884b795",
          "transactionHash": "0x48466f751037e77ca80c4382095c513b5280e50eec2ce74603173becb0487563",
          "transactionIndex": "0x71",
          "logIndex": "0x5eb",
          "removed": false
        },
        {
          "address": "0xbb4a04e5f24127440fa933343f2b34f309aebdde",
          "topics": [
            "0x66ace591f7c88075839f4a0246420d0cc8a34cbe9a924cd0e1ca63c336344f4b",
            "0x0000000000000000000000002ae3f1ec7f1f5012cfeab0185bfc7aa3cf0dec22",
            "0x0000000000000000000000000000000000000000000000000000000000000009"
          ],
          "data": "0x",
          "blockHash": "0xf2fbfec8dbefe898ff4f1a215e1bbd38311cb370b0f94dbb3bf8d3cf65c45f1b",
          "blockNumber": "0x1fd2d59",
          "blockTimestamp": "0x6884b795",
          "transactionHash": "0x48466f751037e77ca80c4382095c513b5280e50eec2ce74603173becb0487563",
          "transactionIndex": "0x71",
          "logIndex": "0x5ec",
          "removed": false
        },
        {
          "address": "0xbb4a04e5f24127440fa933343f2b34f309aebdde",
          "topics": [
            "0x66ace591f7c88075839f4a0246420d0cc8a34cbe9a924cd0e1ca63c336344f4b",
            "0x0000000000000000000000004200000000000000000000000000000000000006",
            "0x000000000000000000000000000000000000000000000000000000000000000a"
          ],
          "data": "0x",
          "blockHash": "0xf2fbfec8dbefe898ff4f1a215e1bbd38311cb370b0f94dbb3bf8d3cf65c45f1b",
          "blockNumber": "0x1fd2d59",
          "blockTimestamp": "0x6884b795",
          "transactionHash": "0x48466f751037e77ca80c4382095c513b5280e50eec2ce74603173becb0487563",
          "transactionIndex": "0x71",
          "logIndex": "0x5ed",
          "removed": false
        },
        {
          "address": "0xbb4a04e5f24127440fa933343f2b34f309aebdde",
          "topics": [
            "0x077a94546a93ef5ed35409c7bd2466fb1170cfbd0faa6072ea22734d535f855f",
            "0x000000000000000000000000806b4ac04501c29769051e42783cf04dce41440b",
            "0x0000000000000000000000002ae3f1ec7f1f5012cfeab0185bfc7aa3cf0dec22",
            "0x0000000000000000000000004200000000000000000000000000000000000006"
          ],
          "data": "0x",
          "blockHash": "0xf2fbfec8dbefe898ff4f1a215e1bbd38311cb370b0f94dbb3bf8d3cf65c45f1b",
          "blockNumber": "0x1fd2d59",
          "blockTimestamp": "0x6884b795",
          "transactionHash": "0x48466f751037e77ca80c4382095c513b5280e50eec2ce74603173becb0487563",
          "transactionIndex": "0x71",
          "logIndex": "0x5ee",
          "removed": false
        },
        {
          "address": "0xbb4a04e5f24127440fa933343f2b34f309aebdde",
          "topics": [
            "0x077a94546a93ef5ed35409c7bd2466fb1170cfbd0faa6072ea22734d535f855f",
            "0x000000000000000000000000d7818272b9e248357d13057aab0b417af31e817d",
            "0x0000000000000000000000002ae3f1ec7f1f5012cfeab0185bfc7aa3cf0dec22",
            "0x0000000000000000000000000000000000000000000000000000000000000348"
          ],
          "data": "0x",
          "blockHash": "0xf2fbfec8dbefe898ff4f1a215e1bbd38311cb370b0f94dbb3bf8d3cf65c45f1b",
          "blockNumber": "0x1fd2d59",
          "blockTimestamp": "0x6884b795",
          "transactionHash": "0x48466f751037e77ca80c4382095c513b5280e50eec2ce74603173becb0487563",
          "transactionIndex": "0x71",
          "logIndex": "0x5ef",
          "removed": false
        },
        {
          "address": "0xbb4a04e5f24127440fa933343f2b34f309aebdde",
          "topics": [
            "0x66ace591f7c88075839f4a0246420d0cc8a34cbe9a924cd0e1ca63c336344f4b",
            "0x0000000000000000000000009e1028f5f1d5ede59748ffcee5532509976840e0",
            "0x000000000000000000000000000000000000000000000000000000000000000b"
          ],
          "data": "0x",
          "blockHash": "0xf2fbfec8dbefe898ff4f1a215e1bbd38311cb370b0f94dbb3bf8d3cf65c45f1b",
          "blockNumber": "0x1fd2d59",
          "blockTimestamp": "0x6884b795",
          "transactionHash": "0x48466f751037e77ca80c4382095c513b5280e50eec2ce74603173becb0487563",
          "transactionIndex": "0x71",
          "logIndex": "0x5f0",
          "removed": false
        },
        {
          "address": "0xbb4a04e5f24127440fa933343f2b34f309aebdde",
          "topics": [
            "0x077a94546a93ef5ed35409c7bd2466fb1170cfbd0faa6072ea22734d535f855f",
            "0x0000000000000000000000009dda783de64a9d1a60c49ca761ebe528c35ba428",
            "0x0000000000000000000000009e1028f5f1d5ede59748ffcee5532509976840e0",
            "0x0000000000000000000000000000000000000000000000000000000000000348"
          ],
          "data": "0x",
          "blockHash": "0xf2fbfec8dbefe898ff4f1a215e1bbd38311cb370b0f94dbb3bf8d3cf65c45f1b",
          "blockNumber": "0x1fd2d59",
          "blockTimestamp": "0x6884b795",
          "transactionHash": "0x48466f751037e77ca80c4382095c513b5280e50eec2ce74603173becb0487563",
          "transactionIndex": "0x71",
          "logIndex": "0x5f1",
          "removed": false
        },
        {
          "address": "0xbb4a04e5f24127440fa933343f2b34f309aebdde",
          "topics": [
            "0x66ace591f7c88075839f4a0246420d0cc8a34cbe9a924cd0e1ca63c336344f4b",
            "0x000000000000000000000000bb22ff867f8ca3d5f2251b4084f6ec86d4666e14",
            "0x000000000000000000000000000000000000000000000000000000000000000c"
          ],
          "data": "0x",
          "blockHash": "0xf2fbfec8dbefe898ff4f1a215e1bbd38311cb370b0f94dbb3bf8d3cf65c45f1b",
          "blockNumber": "0x1fd2d59",
          "blockTimestamp": "0x6884b795",
          "transactionHash": "0x48466f751037e77ca80c4382095c513b5280e50eec2ce74603173becb0487563",
          "transactionIndex": "0x71",
          "logIndex": "0x5f2",
          "removed": false
        },
        {
          "address": "0xbb4a04e5f24127440fa933343f2b34f309aebdde",
          "topics": [
            "0x077a94546a93ef5ed35409c7bd2466fb1170cfbd0faa6072ea22734d535f855f",
            "0x00000000000000000000000090f3676b40f6dc2c1e074985d0544bb8e1815b00",
            "0x000000000000000000000000bb22ff867f8ca3d5f2251b4084f6ec86d4666e14",
            "0x0000000000000000000000000000000000000000000000000000000000000348"
          ],
          "data": "0x",
          "blockHash": "0xf2fbfec8dbefe898ff4f1a215e1bbd38311cb370b0f94dbb3bf8d3cf65c45f1b",
          "blockNumber": "0x1fd2d59",
          "blockTimestamp": "0x6884b795",
          "transactionHash": "0x48466f751037e77ca80c4382095c513b5280e50eec2ce74603173becb0487563",
          "transactionIndex": "0x71",
          "logIndex": "0x5f3",
          "removed": false
        },
        {
          "address": "0xbb4a04e5f24127440fa933343f2b34f309aebdde",
          "topics": [
            "0x66ace591f7c88075839f4a0246420d0cc8a34cbe9a924cd0e1ca63c336344f4b",
            "0x00000000000000000000000083db73ef5192de4b6a4c92bd0141ba1a0dc87c65",
            "0x000000000000000000000000000000000000000000000000000000000000000d"
          ],
          "data": "0x",
          "blockHash": "0xf2fbfec8dbefe898ff4f1a215e1bbd38311cb370b0f94dbb3bf8d3cf65c45f1b",
          "blockNumber": "0x1fd2d59",
          "blockTimestamp": "0x6884b795",
          "transactionHash": "0x48466f751037e77ca80c4382095c513b5280e50eec2ce74603173becb0487563",
          "transactionIndex": "0x71",
          "logIndex": "0x5f4",
          "removed": false
        },
        {
          "address": "0xbb4a04e5f24127440fa933343f2b34f309aebdde",
          "topics": [
            "0x077a94546a93ef5ed35409c7bd2466fb1170cfbd0faa6072ea22734d535f855f",
            "0x000000000000000000000000bbda526258856c06f167399097e13d79e8f88ba8",
            "0x00000000000000000000000083db73ef5192de4b6a4c92bd0141ba1a0dc87c65",
            "0x0000000000000000000000000000000000000000000000000000000000000348"
          ],
          "data": "0x",
          "blockHash": "0xf2fbfec8dbefe898ff4f1a215e1bbd38311cb370b0f94dbb3bf8d3cf65c45f1b",
          "blockNumber": "0x1fd2d59",
          "blockTimestamp": "0x6884b795",
          "transactionHash": "0x48466f751037e77ca80c4382095c513b5280e50eec2ce74603173becb0487563",
          "transactionIndex": "0x71",
          "logIndex": "0x5f5",
          "removed": false
        },
        {
          "address": "0xbb4a04e5f24127440fa933343f2b34f309aebdde",
          "topics": [
            "0x66ace591f7c88075839f4a0246420d0cc8a34cbe9a924cd0e1ca63c336344f4b",
            "0x00000000000000000000000050c5725949a6f0c72e6c4a641f24049a917db0cb",
            "0x000000000000000000000000000000000000000000000000000000000000000e"
          ],
          "data": "0x",
          "blockHash": "0xf2fbfec8dbefe898ff4f1a215e1bbd38311cb370b0f94dbb3bf8d3cf65c45f1b",
          "blockNumber": "0x1fd2d59",
          "blockTimestamp": "0x6884b795",
          "transactionHash": "0x48466f751037e77ca80c4382095c513b5280e50eec2ce74603173becb0487563",
          "transactionIndex": "0x71",
          "logIndex": "0x5f6",
          "removed": false
        },
        {
          "address": "0xbb4a04e5f24127440fa933343f2b34f309aebdde",
          "topics": [
            "0x077a94546a93ef5ed35409c7bd2466fb1170cfbd0faa6072ea22734d535f855f",
            "0x000000000000000000000000591e79239a7d679378ec8c847e5038150364c78f",
            "0x00000000000000000000000050c5725949a6f0c72e6c4a641f24049a917db0cb",
            "0x0000000000000000000000000000000000000000000000000000000000000348"
          ],
          "data": "0x",
          "blockHash": "0xf2fbfec8dbefe898ff4f1a215e1bbd38311cb370b0f94dbb3bf8d3cf65c45f1b",
          "blockNumber": "0x1fd2d59",
          "blockTimestamp": "0x6884b795",
          "transactionHash": "0x48466f751037e77ca80c4382095c513b5280e50eec2ce74603173becb0487563",
          "transactionIndex": "0x71",
          "logIndex": "0x5f7",
          "removed": false
        },
        {
          "address": "0xbb4a04e5f24127440fa933343f2b34f309aebdde",
          "topics": [
            "0x66ace591f7c88075839f4a0246420d0cc8a34cbe9a924cd0e1ca63c336344f4b",
            "0x0000000000000000000000004ed4e862860bed51a9570b96d89af5e1b0efefed",
            "0x000000000000000000000000000000000000000000000000000000000000000f"
          ],
          "data": "0x",
          "blockHash": "0xf2fbfec8dbefe898ff4f1a215e1bbd38311cb370b0f94dbb3bf8d3cf65c45f1b",
          "blockNumber": "0x1fd2d59",
          "blockTimestamp": "0x6884b795",
          "transactionHash": "0x48466f751037e77ca80c4382095c513b5280e50eec2ce74603173becb0487563",
          "transactionIndex": "0x71",
          "logIndex": "0x5f8",
          "removed": false
        },
        {
          "address": "0xbb4a04e5f24127440fa933343f2b34f309aebdde",
          "topics": [
            "0x077a94546a93ef5ed35409c7bd2466fb1170cfbd0faa6072ea22734d535f855f",
            "0x000000000000000000000000e62bce5d7cb9d16ab8b4d622538bc0a50a5799c2",
            "0x0000000000000000000000004ed4e862860bed51a9570b96d89af5e1b0efefed",
            "0x0000000000000000000000000000000000000000000000000000000000000348"
          ],
          "data": "0x",
          "blockHash": "0xf2fbfec8dbefe898ff4f1a215e1bbd38311cb370b0f94dbb3bf8d3cf65c45f1b",
          "blockNumber": "0x1fd2d59",
          "blockTimestamp": "0x6884b795",
          "transactionHash": "0x48466f751037e77ca80c4382095c513b5280e50eec2ce74603173becb0487563",
          "transactionIndex": "0x71",
          "logIndex": "0x5f9",
          "removed": false
        },
        {
          "address": "0xbb4a04e5f24127440fa933343f2b34f309aebdde",
          "topics": [
            "0x077a94546a93ef5ed35409c7bd2466fb1170cfbd0faa6072ea22734d535f855f",
            "0x00000000000000000000000071041dddad3595f9ced3dccfbe3d1f4b0a16bb70",
            "0x0000000000000000000000004200000000000000000000000000000000000006",
            "0x0000000000000000000000000000000000000000000000000000000000000348"
          ],
          "data": "0x",
          "blockHash": "0xf2fbfec8dbefe898ff4f1a215e1bbd38311cb370b0f94dbb3bf8d3cf65c45f1b",
          "blockNumber": "0x1fd2d59",
          "blockTimestamp": "0x6884b795",
          "transactionHash": "0x48466f751037e77ca80c4382095c513b5280e50eec2ce74603173becb0487563",
          "transactionIndex": "0x71",
          "logIndex": "0x5fa",
          "removed": false
        },
        {
          "address": "0xbb4a04e5f24127440fa933343f2b34f309aebdde",
          "topics": [
            "0x66ace591f7c88075839f4a0246420d0cc8a34cbe9a924cd0e1ca63c336344f4b",
            "0x0000000000000000000000002416092f143378750bb29b79ed961ab195cceea5",
            "0x0000000000000000000000000000000000000000000000000000000000000010"
          ],
          "data": "0x",
          "blockHash": "0xf2fbfec8dbefe898ff4f1a215e1bbd38311cb370b0f94dbb3bf8d3cf65c45f1b",
          "blockNumber": "0x1fd2d59",
          "blockTimestamp": "0x6884b795",
          "transactionHash": "0x48466f751037e77ca80c4382095c513b5280e50eec2ce74603173becb0487563",
          "transactionIndex": "0x71",
          "logIndex": "0x5fb",
          "removed": false
        },
        {
          "address": "0xbb4a04e5f24127440fa933343f2b34f309aebdde",
          "topics": [
            "0x077a94546a93ef5ed35409c7bd2466fb1170cfbd0faa6072ea22734d535f855f",
            "0x000000000000000000000000960bdd1dfd20d7c98fa482d793c3dedd73a113a3",
            "0x0000000000000000000000002416092f143378750bb29b79ed961ab195cceea5",
            "0x0000000000000000000000004200000000000000000000000000000000000006"
          ],
          "data": "0x",
          "blockHash": "0xf2fbfec8dbefe898ff4f1a215e1bbd38311cb370b0f94dbb3bf8d3cf65c45f1b",
          "blockNumber": "0x1fd2d59",
          "blockTimestamp": "0x6884b795",
          "transactionHash": "0x48466f751037e77ca80c4382095c513b5280e50eec2ce74603173becb0487563",
          "transactionIndex": "0x71",
          "logIndex": "0x5fc",
          "removed": false
        },
        {
          "address": "0xbb4a04e5f24127440fa933343f2b34f309aebdde",
          "topics": [
            "0x66ace591f7c88075839f4a0246420d0cc8a34cbe9a924cd0e1ca63c336344f4b",
            "0x0000000000000000000000006bb7a212910682dcfdbd5bcbb3e28fb4e8da10ee",
            "0x0000000000000000000000000000000000000000000000000000000000000011"
          ],
          "data": "0x",
          "blockHash": "0xf2fbfec8dbefe898ff4f1a215e1bbd38311cb370b0f94dbb3bf8d3cf65c45f1b",
          "blockNumber": "0x1fd2d59",
          "blockTimestamp": "0x6884b795",
          "transactionHash": "0x48466f751037e77ca80c4382095c513b5280e50eec2ce74603173becb0487563",
          "transactionIndex": "0x71",
          "logIndex": "0x5fd",
          "removed": false
        },
        {
          "address": "0xbb4a04e5f24127440fa933343f2b34f309aebdde",
          "topics": [
            "0x077a94546a93ef5ed35409c7bd2466fb1170cfbd0faa6072ea22734d535f855f",
            "0x00000000000000000000000042868efcee13c0e71af89c04ff7d96f5bec479b0",
            "0x0000000000000000000000006bb7a212910682dcfdbd5bcbb3e28fb4e8da10ee",
            "0x0000000000000000000000000000000000000000000000000000000000000348"
          ],
          "data": "0x",
          "blockHash": "0xf2fbfec8dbefe898ff4f1a215e1bbd38311cb370b0f94dbb3bf8d3cf65c45f1b",
          "blockNumber": "0x1fd2d59",
          "blockTimestamp": "0x6884b795",
          "transactionHash": "0x48466f751037e77ca80c4382095c513b5280e50eec2ce74603173becb0487563",
          "transactionIndex": "0x71",
          "logIndex": "0x5fe",
          "removed": false
        },
        {
          "address": "0xbb4a04e5f24127440fa933343f2b34f309aebdde",
          "topics": [
            "0x66ace591f7c88075839f4a0246420d0cc8a34cbe9a924cd0e1ca63c336344f4b",
            "0x000000000000000000000000ecac9c5f704e954931349da37f60e39f515c11c1",
            "0x0000000000000000000000000000000000000000000000000000000000000012"
          ],
          "data": "0x",
          "blockHash": "0xf2fbfec8dbefe898ff4f1a215e1bbd38311cb370b0f94dbb3bf8d3cf65c45f1b",
          "blockNumber": "0x1fd2d59",
          "blockTimestamp": "0x6884b795",
          "transactionHash": "0x48466f751037e77ca80c4382095c513b5280e50eec2ce74603173becb0487563",
          "transactionIndex": "0x71",
          "logIndex": "0x5ff",
          "removed": false
        },
        {
          "address": "0xbb4a04e5f24127440fa933343f2b34f309aebdde",
          "topics": [
            "0x077a94546a93ef5ed35409c7bd2466fb1170cfbd0faa6072ea22734d535f855f",
            "0x0000000000000000000000001e6c22aaa11f507af12034a5dc4126a6a25dc8d2",
            "0x000000000000000000000000ecac9c5f704e954931349da37f60e39f515c11c1",
            "0x0000000000000000000000000555e30da8f98308edb960aa94c0db47230d2b9c"
          ],
          "data": "0x",
          "blockHash": "0xf2fbfec8dbefe898ff4f1a215e1bbd38311cb370b0f94dbb3bf8d3cf65c45f1b",
          "blockNumber": "0x1fd2d59",
          "blockTimestamp": "0x6884b795",
          "transactionHash": "0x48466f751037e77ca80c4382095c513b5280e50eec2ce74603173becb0487563",
          "transactionIndex": "0x71",
          "logIndex": "0x600",
          "removed": false
        },
        {
          "address": "0xbb4a04e5f24127440fa933343f2b34f309aebdde",
          "topics": [
            "0x077a94546a93ef5ed35409c7bd2466fb1170cfbd0faa6072ea22734d535f855f",
            "0x0000000000000000000000009e07546c9fe8868855cd04b26051a26d1599e270",
            "0x000000000000000000000000ecac9c5f704e954931349da37f60e39f515c11c1",
            "0x0000000000000000000000000000000000000000000000000000000000000348"
          ],
          "data": "0x",
          "blockHash": "0xf2fbfec8dbefe898ff4f1a215e1bbd38311cb370b0f94dbb3bf8d3cf65c45f1b",
          "blockNumber": "0x1fd2d59",
          "blockTimestamp": "0x6884b795",
          "transactionHash": "0x48466f751037e77ca80c4382095c513b5280e50eec2ce74603173becb0487563",
          "transactionIndex": "0x71",
          "logIndex": "0x601",
          "removed": false
        },
        {
          "address": "0xbb4a04e5f24127440fa933343f2b34f309aebdde",
          "topics": [
            "0x66ace591f7c88075839f4a0246420d0cc8a34cbe9a924cd0e1ca63c336344f4b",
            "0x000000000000000000000000d403d1624daef243fbcbd4a80d8a6f36affe32b2",
            "0x0000000000000000000000000000000000000000000000000000000000000013"
          ],
          "data": "0x",
          "blockHash": "0xf2fbfec8dbefe898ff4f1a215e1bbd38311cb370b0f94dbb3bf8d3cf65c45f1b",
          "blockNumber": "0x1fd2d59",
          "blockTimestamp": "0x6884b795",
          "transactionHash": "0x48466f751037e77ca80c4382095c513b5280e50eec2ce74603173becb0487563",
          "transactionIndex": "0x71",
          "logIndex": "0x602",
          "removed": false
        },
        {
          "address": "0xbb4a04e5f24127440fa933343f2b34f309aebdde",
          "topics": [
            "0x077a94546a93ef5ed35409c7bd2466fb1170cfbd0faa6072ea22734d535f855f",
            "0x000000000000000000000000c5e65227fe3385b88468f9a01600017cdc9f3a12",
            "0x000000000000000000000000d403d1624daef243fbcbd4a80d8a6f36affe32b2",
            "0x0000000000000000000000004200000000000000000000000000000000000006"
          ],
          "data": "0x",
          "blockHash": "0xf2fbfec8dbefe898ff4f1a215e1bbd38311cb370b0f94dbb3bf8d3cf65c45f1b",
          "blockNumber": "0x1fd2d59",
          "blockTimestamp": "0x6884b795",
          "transactionHash": "0x48466f751037e77ca80c4382095c513b5280e50eec2ce74603173becb0487563",
          "transactionIndex": "0x71",
          "logIndex": "0x603",
          "removed": false
        },
        {
          "address": "0xbb4a04e5f24127440fa933343f2b34f309aebdde",
          "topics": [
            "0x077a94546a93ef5ed35409c7bd2466fb1170cfbd0faa6072ea22734d535f855f",
            "0x00000000000000000000000017cab8fe31e32f08326e5e27412894e49b0f9d65",
            "0x000000000000000000000000d403d1624daef243fbcbd4a80d8a6f36affe32b2",
            "0x0000000000000000000000000000000000000000000000000000000000000348"
          ],
          "data": "0x",
          "blockHash": "0xf2fbfec8dbefe898ff4f1a215e1bbd38311cb370b0f94dbb3bf8d3cf65c45f1b",
          "blockNumber": "0x1fd2d59",
          "blockTimestamp": "0x6884b795",
          "transactionHash": "0x48466f751037e77ca80c4382095c513b5280e50eec2ce74603173becb0487563",
          "transactionIndex": "0x71",
          "logIndex": "0x604",
          "removed": false
        },
        {
          "address": "0xbb4a04e5f24127440fa933343f2b34f309aebdde",
          "topics": [
            "0x66ace591f7c88075839f4a0246420d0cc8a34cbe9a924cd0e1ca63c336344f4b",
            "0x00000000000000000000000024fcfc492c1393274b6bcd568ac9e225bec93584",
            "0x0000000000000000000000000000000000000000000000000000000000000014"
          ],
          "data": "0x",
          "blockHash": "0xf2fbfec8dbefe898ff4f1a215e1bbd38311cb370b0f94dbb3bf8d3cf65c45f1b",
          "blockNumber": "0x1fd2d59",
          "blockTimestamp": "0x6884b795",
          "transactionHash": "0x48466f751037e77ca80c4382095c513b5280e50eec2ce74603173becb0487563",
          "transactionIndex": "0x71",
          "logIndex": "0x605",
          "removed": false
        },
        {
          "address": "0xbb4a04e5f24127440fa933343f2b34f309aebdde",
          "topics": [
            "0x077a94546a93ef5ed35409c7bd2466fb1170cfbd0faa6072ea22734d535f855f",
            "0x000000000000000000000000979447581b39caca33ef0ca8208592393d16cc13",
            "0x00000000000000000000000024fcfc492c1393274b6bcd568ac9e225bec93584",
            "0x0000000000000000000000000000000000000000000000000000000000000348"
          ],
          "data": "0x",
          "blockHash": "0xf2fbfec8dbefe898ff4f1a215e1bbd38311cb370b0f94dbb3bf8d3cf65c45f1b",
          "blockNumber": "0x1fd2d59",
          "blockTimestamp": "0x6884b795",
          "transactionHash": "0x48466f751037e77ca80c4382095c513b5280e50eec2ce74603173becb0487563",
          "transactionIndex": "0x71",
          "logIndex": "0x606",
          "removed": false
        },
        {
          "address": "0xbb4a04e5f24127440fa933343f2b34f309aebdde",
          "topics": [
            "0x66ace591f7c88075839f4a0246420d0cc8a34cbe9a924cd0e1ca63c336344f4b",
            "0x000000000000000000000000813f392d21a55819be5e78157bfcdbd25530f4e8",
            "0x0000000000000000000000000000000000000000000000000000000000000015"
          ],
          "data": "0x",
          "blockHash": "0xf2fbfec8dbefe898ff4f1a215e1bbd38311cb370b0f94dbb3bf8d3cf65c45f1b",
          "blockNumber": "0x1fd2d59",
          "blockTimestamp": "0x6884b795",
          "transactionHash": "0x48466f751037e77ca80c4382095c513b5280e50eec2ce74603173becb0487563",
          "transactionIndex": "0x71",
          "logIndex": "0x607",
          "removed": false
        },
        {
          "address": "0xbb4a04e5f24127440fa933343f2b34f309aebdde",
          "topics": [
            "0x077a94546a93ef5ed35409c7bd2466fb1170cfbd0faa6072ea22734d535f855f",
            "0x000000000000000000000000faf372cabc765b63f6fabd436c845d965eda1ca5",
            "0x000000000000000000000000813f392d21a55819be5e78157bfcdbd25530f4e8",
            "0x0000000000000000000000000000000000000000000000000000000000000348"
          ],
          "data": "0x",
          "blockHash": "0xf2fbfec8dbefe898ff4f1a215e1bbd38311cb370b0f94dbb3bf8d3cf65c45f1b",
          "blockNumber": "0x1fd2d59",
          "blockTimestamp": "0x6884b795",
          "transactionHash": "0x48466f751037e77ca80c4382095c513b5280e50eec2ce74603173becb0487563",
          "transactionIndex": "0x71",
          "logIndex": "0x608",
          "removed": false
        },
        {
          "address": "0xbb4a04e5f24127440fa933343f2b34f309aebdde",
          "topics": [
            "0x66ace591f7c88075839f4a0246420d0cc8a34cbe9a924cd0e1ca63c336344f4b",
            "0x000000000000000000000000baa5cc21fd487b8fcc2f632f3f4e8d37262a0842",
            "0x0000000000000000000000000000000000000000000000000000000000000016"
          ],
          "data": "0x",
          "blockHash": "0xf2fbfec8dbefe898ff4f1a215e1bbd38311cb370b0f94dbb3bf8d3cf65c45f1b",
          "blockNumber": "0x1fd2d59",
          "blockTimestamp": "0x6884b795",
          "transactionHash": "0x48466f751037e77ca80c4382095c513b5280e50eec2ce74603173becb0487563",
          "transactionIndex": "0x71",
          "logIndex": "0x609",
          "removed": false
        },
        {
          "address": "0xbb4a04e5f24127440fa933343f2b34f309aebdde",
          "topics": [
            "0x077a94546a93ef5ed35409c7bd2466fb1170cfbd0faa6072ea22734d535f855f",
            "0x000000000000000000000000e95e258bb6615d47515fc849f8542da651f12bf6",
            "0x000000000000000000000000baa5cc21fd487b8fcc2f632f3f4e8d37262a0842",
            "0x0000000000000000000000000000000000000000000000000000000000000348"
          ],
          "data": "0x",
          "blockHash": "0xf2fbfec8dbefe898ff4f1a215e1bbd38311cb370b0f94dbb3bf8d3cf65c45f1b",
          "blockNumber": "0x1fd2d59",
          "blockTimestamp": "0x6884b795",
          "transactionHash": "0x48466f751037e77ca80c4382095c513b5280e50eec2ce74603173becb0487563",
          "transactionIndex": "0x71",
          "logIndex": "0x60a",
          "removed": false
        },
        {
          "address": "0xbb4a04e5f24127440fa933343f2b34f309aebdde",
          "topics": [
            "0x66ace591f7c88075839f4a0246420d0cc8a34cbe9a924cd0e1ca63c336344f4b",
            "0x0000000000000000000000007002458b1df59eccb57387bc79ffc7c29e22e6f7",
            "0x0000000000000000000000000000000000000000000000000000000000000017"
          ],
          "data": "0x",
          "blockHash": "0xf2fbfec8dbefe898ff4f1a215e1bbd38311cb370b0f94dbb3bf8d3cf65c45f1b",
          "blockNumber": "0x1fd2d59",
          "blockTimestamp": "0x6884b795",
          "transactionHash": "0x48466f751037e77ca80c4382095c513b5280e50eec2ce74603173becb0487563",
          "transactionIndex": "0x71",
          "logIndex": "0x60b",
          "removed": false
        },
        {
          "address": "0xbb4a04e5f24127440fa933343f2b34f309aebdde",
          "topics": [
            "0x077a94546a93ef5ed35409c7bd2466fb1170cfbd0faa6072ea22734d535f855f",
            "0x00000000000000000000000091d7aed72bf772a0da30199b925acb866acd3d9e",
            "0x0000000000000000000000007002458b1df59eccb57387bc79ffc7c29e22e6f7",
            "0x0000000000000000000000000000000000000000000000000000000000000348"
          ],
          "data": "0x",
          "blockHash": "0xf2fbfec8dbefe898ff4f1a215e1bbd38311cb370b0f94dbb3bf8d3cf65c45f1b",
          "blockNumber": "0x1fd2d59",
          "blockTimestamp": "0x6884b795",
          "transactionHash": "0x48466f751037e77ca80c4382095c513b5280e50eec2ce74603173becb0487563",
          "transactionIndex": "0x71",
          "logIndex": "0x60c",
          "removed": false
        },
        {
          "address": "0xbb4a04e5f24127440fa933343f2b34f309aebdde",
          "topics": [
            "0x66ace591f7c88075839f4a0246420d0cc8a34cbe9a924cd0e1ca63c336344f4b",
            "0x0000000000000000000000001217bfe6c773eec6cc4a38b5dc45b92292b6e189",
            "0x0000000000000000000000000000000000000000000000000000000000000018"
          ],
          "data": "0x",
          "blockHash": "0xf2fbfec8dbefe898ff4f1a215e1bbd38311cb370b0f94dbb3bf8d3cf65c45f1b",
          "blockNumber": "0x1fd2d59",
          "blockTimestamp": "0x6884b795",
          "transactionHash": "0x48466f751037e77ca80c4382095c513b5280e50eec2ce74603173becb0487563",
          "transactionIndex": "0x71",
          "logIndex": "0x60d",
          "removed": false
        },
        {
          "address": "0xbb4a04e5f24127440fa933343f2b34f309aebdde",
          "topics": [
            "0x077a94546a93ef5ed35409c7bd2466fb1170cfbd0faa6072ea22734d535f855f",
            "0x0000000000000000000000000e230b1077c663f8fb5e68d84a8e3e33d97d7436",
            "0x0000000000000000000000001217bfe6c773eec6cc4a38b5dc45b92292b6e189",
            "0x0000000000000000000000000000000000000000000000000000000000000348"
          ],
          "data": "0x",
          "blockHash": "0xf2fbfec8dbefe898ff4f1a215e1bbd38311cb370b0f94dbb3bf8d3cf65c45f1b",
          "blockNumber": "0x1fd2d59",
          "blockTimestamp": "0x6884b795",
          "transactionHash": "0x48466f751037e77ca80c4382095c513b5280e50eec2ce74603173becb0487563",
          "transactionIndex": "0x71",
          "logIndex": "0x60e",
          "removed": false
        },
        {
          "address": "0xbb4a04e5f24127440fa933343f2b34f309aebdde",
          "topics": [
            "0x66ace591f7c88075839f4a0246420d0cc8a34cbe9a924cd0e1ca63c336344f4b",
            "0x000000000000000000000000e868c3d83ec287c01bcb533a33d197d9bfa79dad",
            "0x0000000000000000000000000000000000000000000000000000000000000019"
          ],
          "data": "0x",
          "blockHash": "0xf2fbfec8dbefe898ff4f1a215e1bbd38311cb370b0f94dbb3bf8d3cf65c45f1b",
          "blockNumber": "0x1fd2d59",
          "blockTimestamp": "0x6884b795",
          "transactionHash": "0x48466f751037e77ca80c4382095c513b5280e50eec2ce74603173becb0487563",
          "transactionIndex": "0x71",
          "logIndex": "0x60f",
          "removed": false
        },
        {
          "address": "0xbb4a04e5f24127440fa933343f2b34f309aebdde",
          "topics": [
            "0x077a94546a93ef5ed35409c7bd2466fb1170cfbd0faa6072ea22734d535f855f",
            "0x0000000000000000000000005e988c11a4f92155c30d9fb69ed75597f712b113",
            "0x000000000000000000000000e868c3d83ec287c01bcb533a33d197d9bfa79dad",
            "0x0000000000000000000000000000000000000000000000000000000000000348"
          ],
          "data": "0x",
          "blockHash": "0xf2fbfec8dbefe898ff4f1a215e1bbd38311cb370b0f94dbb3bf8d3cf65c45f1b",
          "blockNumber": "0x1fd2d59",
          "blockTimestamp": "0x6884b795",
          "transactionHash": "0x48466f751037e77ca80c4382095c513b5280e50eec2ce74603173becb0487563",
          "transactionIndex": "0x71",
          "logIndex": "0x610",
          "removed": false
        },
        {
          "address": "0xbb4a04e5f24127440fa933343f2b34f309aebdde",
          "topics": [
            "0x66ace591f7c88075839f4a0246420d0cc8a34cbe9a924cd0e1ca63c336344f4b",
            "0x000000000000000000000000d722e55c1d9d9fa0021a5215cbb904b92b3dc5d4",
            "0x000000000000000000000000000000000000000000000000000000000000001a"
          ],
          "data": "0x",
          "blockHash": "0xf2fbfec8dbefe898ff4f1a215e1bbd38311cb370b0f94dbb3bf8d3cf65c45f1b",
          "blockNumber": "0x1fd2d59",
          "blockTimestamp": "0x6884b795",
          "transactionHash": "0x48466f751037e77ca80c4382095c513b5280e50eec2ce74603173becb0487563",
          "transactionIndex": "0x71",
          "logIndex": "0x611",
          "removed": false
        },
        {
          "address": "0xbb4a04e5f24127440fa933343f2b34f309aebdde",
          "topics": [
            "0x077a94546a93ef5ed35409c7bd2466fb1170cfbd0faa6072ea22734d535f855f",
            "0x000000000000000000000000ef2e24ba6def99b5e0b71f6cdeaf294b02163094",
            "0x000000000000000000000000d722e55c1d9d9fa0021a5215cbb904b92b3dc5d4",
            "0x0000000000000000000000000000000000000000000000000000000000000348"
          ],
          "data": "0x",
          "blockHash": "0xf2fbfec8dbefe898ff4f1a215e1bbd38311cb370b0f94dbb3bf8d3cf65c45f1b",
          "blockNumber": "0x1fd2d59",
          "blockTimestamp": "0x6884b795",
          "transactionHash": "0x48466f751037e77ca80c4382095c513b5280e50eec2ce74603173becb0487563",
          "transactionIndex": "0x71",
          "logIndex": "0x612",
          "removed": false
        },
        {
          "address": "0xbb4a04e5f24127440fa933343f2b34f309aebdde",
          "topics": [
            "0x66ace591f7c88075839f4a0246420d0cc8a34cbe9a924cd0e1ca63c336344f4b",
            "0x000000000000000000000000b6fe221fe9eef5aba221c348ba20a1bf5e73624c",
            "0x000000000000000000000000000000000000000000000000000000000000001b"
          ],
          "data": "0x",
          "blockHash": "0xf2fbfec8dbefe898ff4f1a215e1bbd38311cb370b0f94dbb3bf8d3cf65c45f1b",
          "blockNumber": "0x1fd2d59",
          "blockTimestamp": "0x6884b795",
          "transactionHash": "0x48466f751037e77ca80c4382095c513b5280e50eec2ce74603173becb0487563",
          "transactionIndex": "0x71",
          "logIndex": "0x613",
          "removed": false
        },
        {
          "address": "0xbb4a04e5f24127440fa933343f2b34f309aebdde",
          "topics": [
            "0x077a94546a93ef5ed35409c7bd2466fb1170cfbd0faa6072ea22734d535f855f",
            "0x000000000000000000000000f397bf97280b488ca19ee3093e81c0a77f02e9a5",
            "0x000000000000000000000000b6fe221fe9eef5aba221c348ba20a1bf5e73624c",
            "0x0000000000000000000000004200000000000000000000000000000000000006"
          ],
          "data": "0x",
          "blockHash": "0xf2fbfec8dbefe898ff4f1a215e1bbd38311cb370b0f94dbb3bf8d3cf65c45f1b",
          "blockNumber": "0x1fd2d59",
          "blockTimestamp": "0x6884b795",
          "transactionHash": "0x48466f751037e77ca80c4382095c513b5280e50eec2ce74603173becb0487563",
          "transactionIndex": "0x71",
          "logIndex": "0x614",
          "removed": false
        },
        {
          "address": "0xbb4a04e5f24127440fa933343f2b34f309aebdde",
          "topics": [
            "0x66ace591f7c88075839f4a0246420d0cc8a34cbe9a924cd0e1ca63c336344f4b",
            "0x0000000000000000000000001bc71130a0e39942a7658878169764bbd8a45993",
            "0x000000000000000000000000000000000000000000000000000000000000001c"
          ],
          "data": "0x",
          "blockHash": "0xf2fbfec8dbefe898ff4f1a215e1bbd38311cb370b0f94dbb3bf8d3cf65c45f1b",
          "blockNumber": "0x1fd2d59",
          "blockTimestamp": "0x6884b795",
          "transactionHash": "0x48466f751037e77ca80c4382095c513b5280e50eec2ce74603173becb0487563",
          "transactionIndex": "0x71",
          "logIndex": "0x615",
          "removed": false
        },
        {
          "address": "0xbb4a04e5f24127440fa933343f2b34f309aebdde",
          "topics": [
            "0x077a94546a93ef5ed35409c7bd2466fb1170cfbd0faa6072ea22734d535f855f",
            "0x000000000000000000000000d7221b10fbbc1e1ba95fd0b4d031c15f7f365296",
            "0x0000000000000000000000001bc71130a0e39942a7658878169764bbd8a45993",
            "0x0000000000000000000000004200000000000000000000000000000000000006"
          ],
          "data": "0x",
          "blockHash": "0xf2fbfec8dbefe898ff4f1a215e1bbd38311cb370b0f94dbb3bf8d3cf65c45f1b",
          "blockNumber": "0x1fd2d59",
          "blockTimestamp": "0x6884b795",
          "transactionHash": "0x48466f751037e77ca80c4382095c513b5280e50eec2ce74603173becb0487563",
          "transactionIndex": "0x71",
          "logIndex": "0x616",
          "removed": false
        },
        {
          "address": "0xbb4a04e5f24127440fa933343f2b34f309aebdde",
          "topics": [
            "0x66ace591f7c88075839f4a0246420d0cc8a34cbe9a924cd0e1ca63c336344f4b",
            "0x000000000000000000000000ab36452dbac151be02b16ca17d8919826072f64a",
            "0x000000000000000000000000000000000000000000000000000000000000001d"
          ],
          "data": "0x",
          "blockHash": "0xf2fbfec8dbefe898ff4f1a215e1bbd38311cb370b0f94dbb3bf8d3cf65c45f1b",
          "blockNumber": "0x1fd2d59",
          "blockTimestamp": "0x6884b795",
          "transactionHash": "0x48466f751037e77ca80c4382095c513b5280e50eec2ce74603173becb0487563",
          "transactionIndex": "0x71",
          "logIndex": "0x617",
          "removed": false
        },
        {
          "address": "0xbb4a04e5f24127440fa933343f2b34f309aebdde",
          "topics": [
            "0x077a94546a93ef5ed35409c7bd2466fb1170cfbd0faa6072ea22734d535f855f",
            "0x000000000000000000000000aa98ae504658766dfe11f31c5d95a0bdcabde0b1",
            "0x000000000000000000000000ab36452dbac151be02b16ca17d8919826072f64a",
            "0x0000000000000000000000000000000000000000000000000000000000000348"
          ],
          "data": "0x",
          "blockHash": "0xf2fbfec8dbefe898ff4f1a215e1bbd38311cb370b0f94dbb3bf8d3cf65c45f1b",
          "blockNumber": "0x1fd2d59",
          "blockTimestamp": "0x6884b795",
          "transactionHash": "0x48466f751037e77ca80c4382095c513b5280e50eec2ce74603173becb0487563",
          "transactionIndex": "0x71",
          "logIndex": "0x618",
          "removed": false
        },
        {
          "address": "0xbb4a04e5f24127440fa933343f2b34f309aebdde",
          "topics": [
            "0x66ace591f7c88075839f4a0246420d0cc8a34cbe9a924cd0e1ca63c336344f4b",
            "0x00000000000000000000000022e6966b799c4d5b13be962e1d117b56327fda66",
            "0x000000000000000000000000000000000000000000000000000000000000001e"
          ],
          "data": "0x",
          "blockHash": "0xf2fbfec8dbefe898ff4f1a215e1bbd38311cb370b0f94dbb3bf8d3cf65c45f1b",
          "blockNumber": "0x1fd2d59",
          "blockTimestamp": "0x6884b795",
          "transactionHash": "0x48466f751037e77ca80c4382095c513b5280e50eec2ce74603173becb0487563",
          "transactionIndex": "0x71",
          "logIndex": "0x619",
          "removed": false
        },
        {
          "address": "0xbb4a04e5f24127440fa933343f2b34f309aebdde",
          "topics": [
            "0x077a94546a93ef5ed35409c7bd2466fb1170cfbd0faa6072ea22734d535f855f",
            "0x000000000000000000000000e3971ed6f1a5903321479ef3148b5950c0612075",
            "0x00000000000000000000000022e6966b799c4d5b13be962e1d117b56327fda66",
            "0x0000000000000000000000000000000000000000000000000000000000000348"
          ],
          "data": "0x",
          "blockHash": "0xf2fbfec8dbefe898ff4f1a215e1bbd38311cb370b0f94dbb3bf8d3cf65c45f1b",
          "blockNumber": "0x1fd2d59",
          "blockTimestamp": "0x6884b795",
          "transactionHash": "0x48466f751037e77ca80c4382095c513b5280e50eec2ce74603173becb0487563",
          "transactionIndex": "0x71",
          "logIndex": "0x61a",
          "removed": false
        },
        {
          "address": "0xbb4a04e5f24127440fa933343f2b34f309aebdde",
          "topics": [
            "0x66ace591f7c88075839f4a0246420d0cc8a34cbe9a924cd0e1ca63c336344f4b",
            "0x00000000000000000000000036fac215813de8507869fdb01c8ec42dca7a7d4a",
            "0x000000000000000000000000000000000000000000000000000000000000001f"
          ],
          "data": "0x",
          "blockHash": "0xf2fbfec8dbefe898ff4f1a215e1bbd38311cb370b0f94dbb3bf8d3cf65c45f1b",
          "blockNumber": "0x1fd2d59",
          "blockTimestamp": "0x6884b795",
          "transactionHash": "0x48466f751037e77ca80c4382095c513b5280e50eec2ce74603173becb0487563",
          "transactionIndex": "0x71",
          "logIndex": "0x61b",
          "removed": false
        },
        {
          "address": "0xbb4a04e5f24127440fa933343f2b34f309aebdde",
          "topics": [
            "0x077a94546a93ef5ed35409c7bd2466fb1170cfbd0faa6072ea22734d535f855f",
            "0x000000000000000000000000975043adbb80fc32276cbf9bbcfd4a601a12462d",
            "0x00000000000000000000000036fac215813de8507869fdb01c8ec42dca7a7d4a",
            "0x0000000000000000000000000000000000000000000000000000000000000348"
          ],
          "data": "0x",
          "blockHash": "0xf2fbfec8dbefe898ff4f1a215e1bbd38311cb370b0f94dbb3bf8d3cf65c45f1b",
          "blockNumber": "0x1fd2d59",
          "blockTimestamp": "0x6884b795",
          "transactionHash": "0x48466f751037e77ca80c4382095c513b5280e50eec2ce74603173becb0487563",
          "transactionIndex": "0x71",
          "logIndex": "0x61c",
          "removed": false
        },
        {
          "address": "0xbb4a04e5f24127440fa933343f2b34f309aebdde",
          "topics": [
            "0x66ace591f7c88075839f4a0246420d0cc8a34cbe9a924cd0e1ca63c336344f4b",
            "0x0000000000000000000000003b86ad95859b6ab773f55f8d94b4b9d443ee931f",
            "0x0000000000000000000000000000000000000000000000000000000000000020"
          ],
          "data": "0x",
          "blockHash": "0xf2fbfec8dbefe898ff4f1a215e1bbd38311cb370b0f94dbb3bf8d3cf65c45f1b",
          "blockNumber": "0x1fd2d59",
          "blockTimestamp": "0x6884b795",
          "transactionHash": "0x48466f751037e77ca80c4382095c513b5280e50eec2ce74603173becb0487563",
          "transactionIndex": "0x71",
          "logIndex": "0x61d",
          "removed": false
        },
        {
          "address": "0xbb4a04e5f24127440fa933343f2b34f309aebdde",
          "topics": [
            "0x077a94546a93ef5ed35409c7bd2466fb1170cfbd0faa6072ea22734d535f855f",
            "0x000000000000000000000000b4a1a7f260c9ff7fed6a6fbb9fe5a9acfa725dbf",
            "0x0000000000000000000000003b86ad95859b6ab773f55f8d94b4b9d443ee931f",
            "0x0000000000000000000000000555e30da8f98308edb960aa94c0db47230d2b9c"
          ],
          "data": "0x",
          "blockHash": "0xf2fbfec8dbefe898ff4f1a215e1bbd38311cb370b0f94dbb3bf8d3cf65c45f1b",
          "blockNumber": "0x1fd2d59",
          "blockTimestamp": "0x6884b795",
          "transactionHash": "0x48466f751037e77ca80c4382095c513b5280e50eec2ce74603173becb0487563",
          "transactionIndex": "0x71",
          "logIndex": "0x61e",
          "removed": false
        },
        {
          "address": "0xbb4a04e5f24127440fa933343f2b34f309aebdde",
          "topics": [
            "0x66ace591f7c88075839f4a0246420d0cc8a34cbe9a924cd0e1ca63c336344f4b",
            "0x000000000000000000000000e3b53af74a4bf62ae5511055290838050bf764df",
            "0x0000000000000000000000000000000000000000000000000000000000000021"
          ],
          "data": "0x",
          "blockHash": "0xf2fbfec8dbefe898ff4f1a215e1bbd38311cb370b0f94dbb3bf8d3cf65c45f1b",
          "blockNumber": "0x1fd2d59",
          "blockTimestamp": "0x6884b795",
          "transactionHash": "0x48466f751037e77ca80c4382095c513b5280e50eec2ce74603173becb0487563",
          "transactionIndex": "0x71",
          "logIndex": "0x61f",
          "removed": false
        },
        {
          "address": "0xbb4a04e5f24127440fa933343f2b34f309aebdde",
          "topics": [
            "0x077a94546a93ef5ed35409c7bd2466fb1170cfbd0faa6072ea22734d535f855f",
            "0x00000000000000000000000063af8341b62e683b87bb540896bf283d96b4d385",
            "0x000000000000000000000000e3b53af74a4bf62ae5511055290838050bf764df",
            "0x0000000000000000000000000000000000000000000000000000000000000348"
          ],
          "data": "0x",
          "blockHash": "0xf2fbfec8dbefe898ff4f1a215e1bbd38311cb370b0f94dbb3bf8d3cf65c45f1b",
          "blockNumber": "0x1fd2d59",
          "blockTimestamp": "0x6884b795",
          "transactionHash": "0x48466f751037e77ca80c4382095c513b5280e50eec2ce74603173becb0487563",
          "transactionIndex": "0x71",
          "logIndex": "0x620",
          "removed": false
        },
        {
          "address": "0xbb4a04e5f24127440fa933343f2b34f309aebdde",
          "topics": [
            "0x66ace591f7c88075839f4a0246420d0cc8a34cbe9a924cd0e1ca63c336344f4b",
            "0x000000000000000000000000211cc4dd073734da055fbf44a2b4667d5e5fe5d2",
            "0x0000000000000000000000000000000000000000000000000000000000000022"
          ],
          "data": "0x",
          "blockHash": "0xf2fbfec8dbefe898ff4f1a215e1bbd38311cb370b0f94dbb3bf8d3cf65c45f1b",
          "blockNumber": "0x1fd2d59",
          "blockTimestamp": "0x6884b795",
          "transactionHash": "0x48466f751037e77ca80c4382095c513b5280e50eec2ce74603173becb0487563",
          "transactionIndex": "0x71",
          "logIndex": "0x621",
          "removed": false
        },
        {
          "address": "0xbb4a04e5f24127440fa933343f2b34f309aebdde",
          "topics": [
            "0x077a94546a93ef5ed35409c7bd2466fb1170cfbd0faa6072ea22734d535f855f",
            "0x00000000000000000000000079cf4a31b29d69191f0b6e97916eb93feb81e533",
            "0x000000000000000000000000211cc4dd073734da055fbf44a2b4667d5e5fe5d2",
            "0x0000000000000000000000000000000000000000000000000000000000000348"
          ],
          "data": "0x",
          "blockHash": "0xf2fbfec8dbefe898ff4f1a215e1bbd38311cb370b0f94dbb3bf8d3cf65c45f1b",
          "blockNumber": "0x1fd2d59",
          "blockTimestamp": "0x6884b795",
          "transactionHash": "0x48466f751037e77ca80c4382095c513b5280e50eec2ce74603173becb0487563",
          "transactionIndex": "0x71",
          "logIndex": "0x622",
          "removed": false
        },
        {
          "address": "0xbb4a04e5f24127440fa933343f2b34f309aebdde",
          "topics": [
            "0x66ace591f7c88075839f4a0246420d0cc8a34cbe9a924cd0e1ca63c336344f4b",
            "0x0000000000000000000000005d3a1ff2b6bab83b63cd9ad0787074081a52ef34",
            "0x0000000000000000000000000000000000000000000000000000000000000023"
          ],
          "data": "0x",
          "blockHash": "0xf2fbfec8dbefe898ff4f1a215e1bbd38311cb370b0f94dbb3bf8d3cf65c45f1b",
          "blockNumber": "0x1fd2d59",
          "blockTimestamp": "0x6884b795",
          "transactionHash": "0x48466f751037e77ca80c4382095c513b5280e50eec2ce74603173becb0487563",
          "transactionIndex": "0x71",
          "logIndex": "0x623",
          "removed": false
        },
        {
          "address": "0xbb4a04e5f24127440fa933343f2b34f309aebdde",
          "topics": [
            "0x077a94546a93ef5ed35409c7bd2466fb1170cfbd0faa6072ea22734d535f855f",
            "0x000000000000000000000000ded37fc1400b8022968441356f771639ad1b23aa",
            "0x000000000000000000000000211cc4dd073734da055fbf44a2b4667d5e5fe5d2",
            "0x0000000000000000000000005d3a1ff2b6bab83b63cd9ad0787074081a52ef34"
          ],
          "data": "0x",
          "blockHash": "0xf2fbfec8dbefe898ff4f1a215e1bbd38311cb370b0f94dbb3bf8d3cf65c45f1b",
          "blockNumber": "0x1fd2d59",
          "blockTimestamp": "0x6884b795",
          "transactionHash": "0x48466f751037e77ca80c4382095c513b5280e50eec2ce74603173becb0487563",
          "transactionIndex": "0x71",
          "logIndex": "0x624",
          "removed": false
        },
        {
          "address": "0xbb4a04e5f24127440fa933343f2b34f309aebdde",
          "topics": [
            "0x66ace591f7c88075839f4a0246420d0cc8a34cbe9a924cd0e1ca63c336344f4b",
            "0x0000000000000000000000005875eee11cf8398102fdad704c9e96607675467a",
            "0x0000000000000000000000000000000000000000000000000000000000000024"
          ],
          "data": "0x",
          "blockHash": "0xf2fbfec8dbefe898ff4f1a215e1bbd38311cb370b0f94dbb3bf8d3cf65c45f1b",
          "blockNumber": "0x1fd2d59",
          "blockTimestamp": "0x6884b795",
          "transactionHash": "0x48466f751037e77ca80c4382095c513b5280e50eec2ce74603173becb0487563",
          "transactionIndex": "0x71",
          "logIndex": "0x625",
          "removed": false
        },
        {
          "address": "0xbb4a04e5f24127440fa933343f2b34f309aebdde",
          "topics": [
            "0x66ace591f7c88075839f4a0246420d0cc8a34cbe9a924cd0e1ca63c336344f4b",
            "0x000000000000000000000000820c137fa70c8691f0e44dc420a5e53c168921dc",
            "0x0000000000000000000000000000000000000000000000000000000000000025"
          ],
          "data": "0x",
          "blockHash": "0xf2fbfec8dbefe898ff4f1a215e1bbd38311cb370b0f94dbb3bf8d3cf65c45f1b",
          "blockNumber": "0x1fd2d59",
          "blockTimestamp": "0x6884b795",
          "transactionHash": "0x48466f751037e77ca80c4382095c513b5280e50eec2ce74603173becb0487563",
          "transactionIndex": "0x71",
          "logIndex": "0x626",
          "removed": false
        },
        {
          "address": "0xbb4a04e5f24127440fa933343f2b34f309aebdde",
          "topics": [
            "0x077a94546a93ef5ed35409c7bd2466fb1170cfbd0faa6072ea22734d535f855f",
            "0x000000000000000000000000906b24a339b848369b24dc9ed368b947fb9693bf",
            "0x0000000000000000000000005875eee11cf8398102fdad704c9e96607675467a",
            "0x000000000000000000000000820c137fa70c8691f0e44dc420a5e53c168921dc"
          ],
          "data": "0x",
          "blockHash": "0xf2fbfec8dbefe898ff4f1a215e1bbd38311cb370b0f94dbb3bf8d3cf65c45f1b",
          "blockNumber": "0x1fd2d59",
          "blockTimestamp": "0x6884b795",
          "transactionHash": "0x48466f751037e77ca80c4382095c513b5280e50eec2ce74603173becb0487563",
          "transactionIndex": "0x71",
          "logIndex": "0x627",
          "removed": false
        },
        {
          "address": "0xbb4a04e5f24127440fa933343f2b34f309aebdde",
          "topics": [
            "0x66ace591f7c88075839f4a0246420d0cc8a34cbe9a924cd0e1ca63c336344f4b",
            "0x000000000000000000000000e31ee12bdfdd0573d634124611e85338e2cbf0cf",
            "0x0000000000000000000000000000000000000000000000000000000000000026"
          ],
          "data": "0x",
          "blockHash": "0xf2fbfec8dbefe898ff4f1a215e1bbd38311cb370b0f94dbb3bf8d3cf65c45f1b",
          "blockNumber": "0x1fd2d59",
          "blockTimestamp": "0x6884b795",
          "transactionHash": "0x48466f751037e77ca80c4382095c513b5280e50eec2ce74603173becb0487563",
          "transactionIndex": "0x71",
          "logIndex": "0x628",
          "removed": false
        },
        {
          "address": "0xbb4a04e5f24127440fa933343f2b34f309aebdde",
          "topics": [
            "0x66ace591f7c88075839f4a0246420d0cc8a34cbe9a924cd0e1ca63c336344f4b",
            "0x00000000000000000000000004d5ddf5f3a8939889f11e97f8c4bb48317f1938",
            "0x0000000000000000000000000000000000000000000000000000000000000027"
          ],
          "data": "0x",
          "blockHash": "0xf2fbfec8dbefe898ff4f1a215e1bbd38311cb370b0f94dbb3bf8d3cf65c45f1b",
          "blockNumber": "0x1fd2d59",
          "blockTimestamp": "0x6884b795",
          "transactionHash": "0x48466f751037e77ca80c4382095c513b5280e50eec2ce74603173becb0487563",
          "transactionIndex": "0x71",
          "logIndex": "0x629",
          "removed": false
        },
        {
          "address": "0xbb4a04e5f24127440fa933343f2b34f309aebdde",
          "topics": [
            "0x077a94546a93ef5ed35409c7bd2466fb1170cfbd0faa6072ea22734d535f855f",
            "0x000000000000000000000000d89c7ffb39c44b17eaecd8717a75a36c19c07582",
            "0x000000000000000000000000e31ee12bdfdd0573d634124611e85338e2cbf0cf",
            "0x00000000000000000000000004d5ddf5f3a8939889f11e97f8c4bb48317f1938"
          ],
          "data": "0x",
          "blockHash": "0xf2fbfec8dbefe898ff4f1a215e1bbd38311cb370b0f94dbb3bf8d3cf65c45f1b",
          "blockNumber": "0x1fd2d59",
          "blockTimestamp": "0x6884b795",
          "transactionHash": "0x48466f751037e77ca80c4382095c513b5280e50eec2ce74603173becb0487563",
          "transactionIndex": "0x71",
          "logIndex": "0x62a",
          "removed": false
        },
        {
          "address": "0xbb4a04e5f24127440fa933343f2b34f309aebdde",
          "topics": [
            "0x66ace591f7c88075839f4a0246420d0cc8a34cbe9a924cd0e1ca63c336344f4b",
            "0x000000000000000000000000236aa50979d5f3de3bd1eeb40e81137f22ab794b",
            "0x0000000000000000000000000000000000000000000000000000000000000028"
          ],
          "data": "0x",
          "blockHash": "0xf2fbfec8dbefe898ff4f1a215e1bbd38311cb370b0f94dbb3bf8d3cf65c45f1b",
          "blockNumber": "0x1fd2d59",
          "blockTimestamp": "0x6884b795",
          "transactionHash": "0x48466f751037e77ca80c4382095c513b5280e50eec2ce74603173becb0487563",
          "transactionIndex": "0x71",
          "logIndex": "0x62b",
          "removed": false
        },
        {
          "address": "0xbb4a04e5f24127440fa933343f2b34f309aebdde",
          "topics": [
            "0x077a94546a93ef5ed35409c7bd2466fb1170cfbd0faa6072ea22734d535f855f",
            "0x0000000000000000000000006d75bfb5a5885f841b132198c9f0be8c872057bf",
            "0x000000000000000000000000236aa50979d5f3de3bd1eeb40e81137f22ab794b",
            "0x0000000000000000000000000000000000000000000000000000000000000348"
          ],
          "data": "0x",
          "blockHash": "0xf2fbfec8dbefe898ff4f1a215e1bbd38311cb370b0f94dbb3bf8d3cf65c45f1b",
          "blockNumber": "0x1fd2d59",
          "blockTimestamp": "0x6884b795",
          "transactionHash": "0x48466f751037e77ca80c4382095c513b5280e50eec2ce74603173becb0487563",
          "transactionIndex": "0x71",
          "logIndex": "0x62c",
          "removed": false
        },
        {
          "address": "0xbb4a04e5f24127440fa933343f2b34f309aebdde",
          "topics": [
            "0x66ace591f7c88075839f4a0246420d0cc8a34cbe9a924cd0e1ca63c336344f4b",
            "0x000000000000000000000000c27468b12ffa6d714b1b5fbc87ef403f38b82ad4",
            "0x0000000000000000000000000000000000000000000000000000000000000029"
          ],
          "data": "0x",
          "blockHash": "0xf2fbfec8dbefe898ff4f1a215e1bbd38311cb370b0f94dbb3bf8d3cf65c45f1b",
          "blockNumber": "0x1fd2d59",
          "blockTimestamp": "0x6884b795",
          "transactionHash": "0x48466f751037e77ca80c4382095c513b5280e50eec2ce74603173becb0487563",
          "transactionIndex": "0x71",
          "logIndex": "0x62d",
          "removed": false
        },
        {
          "address": "0xbb4a04e5f24127440fa933343f2b34f309aebdde",
          "topics": [
            "0x077a94546a93ef5ed35409c7bd2466fb1170cfbd0faa6072ea22734d535f855f",
            "0x0000000000000000000000007bafa1af54f17cc0775a1cf813b9ff5ded2c51e5",
            "0x000000000000000000000000c27468b12ffa6d714b1b5fbc87ef403f38b82ad4",
            "0x0000000000000000000000000000000000000000000000000000000000000348"
          ],
          "data": "0x",
          "blockHash": "0xf2fbfec8dbefe898ff4f1a215e1bbd38311cb370b0f94dbb3bf8d3cf65c45f1b",
          "blockNumber": "0x1fd2d59",
          "blockTimestamp": "0x6884b795",
          "transactionHash": "0x48466f751037e77ca80c4382095c513b5280e50eec2ce74603173becb0487563",
          "transactionIndex": "0x71",
          "logIndex": "0x62e",
          "removed": false
        },
        {
          "address": "0xbb4a04e5f24127440fa933343f2b34f309aebdde",
          "topics": [
            "0x66ace591f7c88075839f4a0246420d0cc8a34cbe9a924cd0e1ca63c336344f4b",
            "0x00000000000000000000000093919784c523f39cacaa98ee0a9d96c3f32b593e",
            "0x000000000000000000000000000000000000000000000000000000000000002a"
          ],
          "data": "0x",
          "blockHash": "0xf2fbfec8dbefe898ff4f1a215e1bbd38311cb370b0f94dbb3bf8d3cf65c45f1b",
          "blockNumber": "0x1fd2d59",
          "blockTimestamp": "0x6884b795",
          "transactionHash": "0x48466f751037e77ca80c4382095c513b5280e50eec2ce74603173becb0487563",
          "transactionIndex": "0x71",
          "logIndex": "0x62f",
          "removed": false
        },
        {
          "address": "0xbb4a04e5f24127440fa933343f2b34f309aebdde",
          "topics": [
            "0x077a94546a93ef5ed35409c7bd2466fb1170cfbd0faa6072ea22734d535f855f",
            "0x000000000000000000000000bc7c5023ee571e4d9c4890c90a16be05c1eef410",
            "0x00000000000000000000000093919784c523f39cacaa98ee0a9d96c3f32b593e",
            "0x0000000000000000000000000555e30da8f98308edb960aa94c0db47230d2b9c"
          ],
          "data": "0x",
          "blockHash": "0xf2fbfec8dbefe898ff4f1a215e1bbd38311cb370b0f94dbb3bf8d3cf65c45f1b",
          "blockNumber": "0x1fd2d59",
          "blockTimestamp": "0x6884b795",
          "transactionHash": "0x48466f751037e77ca80c4382095c513b5280e50eec2ce74603173becb0487563",
          "transactionIndex": "0x71",
          "logIndex": "0x630",
          "removed": false
        },
        {
          "address": "0xbb4a04e5f24127440fa933343f2b34f309aebdde",
          "topics": [
            "0x66ace591f7c88075839f4a0246420d0cc8a34cbe9a924cd0e1ca63c336344f4b",
            "0x000000000000000000000000833589fcd6edb6e08f4c7c32d4f71b54bda02913",
            "0x000000000000000000000000000000000000000000000000000000000000002b"
          ],
          "data": "0x",
          "blockHash": "0xf2fbfec8dbefe898ff4f1a215e1bbd38311cb370b0f94dbb3bf8d3cf65c45f1b",
          "blockNumber": "0x1fd2d59",
          "blockTimestamp": "0x6884b795",
          "transactionHash": "0x48466f751037e77ca80c4382095c513b5280e50eec2ce74603173becb0487563",
          "transactionIndex": "0x71",
          "logIndex": "0x631",
          "removed": false
        },
        {
          "address": "0xbb4a04e5f24127440fa933343f2b34f309aebdde",
          "topics": [
            "0x077a94546a93ef5ed35409c7bd2466fb1170cfbd0faa6072ea22734d535f855f",
            "0x0000000000000000000000007e860098f58bbfc8648a4311b374b1d669a2bc6b",
            "0x000000000000000000000000833589fcd6edb6e08f4c7c32d4f71b54bda02913",
            "0x0000000000000000000000000000000000000000000000000000000000000348"
          ],
          "data": "0x",
          "blockHash": "0xf2fbfec8dbefe898ff4f1a215e1bbd38311cb370b0f94dbb3bf8d3cf65c45f1b",
          "blockNumber": "0x1fd2d59",
          "blockTimestamp": "0x6884b795",
          "transactionHash": "0x48466f751037e77ca80c4382095c513b5280e50eec2ce74603173becb0487563",
          "transactionIndex": "0x71",
          "logIndex": "0x632",
          "removed": false
        },
        {
          "address": "0xbb4a04e5f24127440fa933343f2b34f309aebdde",
          "topics": [
            "0x077a94546a93ef5ed35409c7bd2466fb1170cfbd0faa6072ea22734d535f855f",
            "0x000000000000000000000000790181e93e9f4eedb5b864860c12e4d2cfffe73b",
            "0x0000000000000000000000005d3a1ff2b6bab83b63cd9ad0787074081a52ef34",
            "0x0000000000000000000000000000000000000000000000000000000000000348"
          ],
          "data": "0x",
          "blockHash": "0xf2fbfec8dbefe898ff4f1a215e1bbd38311cb370b0f94dbb3bf8d3cf65c45f1b",
          "blockNumber": "0x1fd2d59",
          "blockTimestamp": "0x6884b795",
          "transactionHash": "0x48466f751037e77ca80c4382095c513b5280e50eec2ce74603173becb0487563",
          "transactionIndex": "0x71",
          "logIndex": "0x633",
          "removed": false
        },
        {
          "address": "0xbb4a04e5f24127440fa933343f2b34f309aebdde",
          "topics": [
            "0x077a94546a93ef5ed35409c7bd2466fb1170cfbd0faa6072ea22734d535f855f",
            "0x0000000000000000000000002330aae3bca5f05169d5f4597964d44522f62930",
            "0x000000000000000000000000820c137fa70c8691f0e44dc420a5e53c168921dc",
            "0x0000000000000000000000000000000000000000000000000000000000000348"
          ],
          "data": "0x",
          "blockHash": "0xf2fbfec8dbefe898ff4f1a215e1bbd38311cb370b0f94dbb3bf8d3cf65c45f1b",
          "blockNumber": "0x1fd2d59",
          "blockTimestamp": "0x6884b795",
          "transactionHash": "0x48466f751037e77ca80c4382095c513b5280e50eec2ce74603173becb0487563",
          "transactionIndex": "0x71",
          "logIndex": "0x634",
          "removed": false
        },
        {
          "address": "0xbb4a04e5f24127440fa933343f2b34f309aebdde",
          "topics": [
            "0x66ace591f7c88075839f4a0246420d0cc8a34cbe9a924cd0e1ca63c336344f4b",
            "0x000000000000000000000000fde4c96c8593536e31f229ea8f37b2ada2699bb2",
            "0x000000000000000000000000000000000000000000000000000000000000002c"
          ],
          "data": "0x",
          "blockHash": "0xf2fbfec8dbefe898ff4f1a215e1bbd38311cb370b0f94dbb3bf8d3cf65c45f1b",
          "blockNumber": "0x1fd2d59",
          "blockTimestamp": "0x6884b795",
          "transactionHash": "0x48466f751037e77ca80c4382095c513b5280e50eec2ce74603173becb0487563",
          "transactionIndex": "0x71",
          "logIndex": "0x635",
          "removed": false
        },
        {
          "address": "0xbb4a04e5f24127440fa933343f2b34f309aebdde",
          "topics": [
            "0x077a94546a93ef5ed35409c7bd2466fb1170cfbd0faa6072ea22734d535f855f",
            "0x000000000000000000000000f19d560eb8d2adf07bd6d13ed03e1d11215721f9",
            "0x000000000000000000000000fde4c96c8593536e31f229ea8f37b2ada2699bb2",
            "0x0000000000000000000000000000000000000000000000000000000000000348"
          ],
          "data": "0x",
          "blockHash": "0xf2fbfec8dbefe898ff4f1a215e1bbd38311cb370b0f94dbb3bf8d3cf65c45f1b",
          "blockNumber": "0x1fd2d59",
          "blockTimestamp": "0x6884b795",
          "transactionHash": "0x48466f751037e77ca80c4382095c513b5280e50eec2ce74603173becb0487563",
          "transactionIndex": "0x71",
          "logIndex": "0x636",
          "removed": false
        },
        {
          "address": "0xbb4a04e5f24127440fa933343f2b34f309aebdde",
          "topics": [
            "0x077a94546a93ef5ed35409c7bd2466fb1170cfbd0faa6072ea22734d535f855f",
            "0x000000000000000000000000e25969e2fa633a0c027fab8f30fc9c6a90d60b48",
            "0x00000000000000000000000004d5ddf5f3a8939889f11e97f8c4bb48317f1938",
            "0x0000000000000000000000000000000000000000000000000000000000000348"
          ],
          "data": "0x",
          "blockHash": "0xf2fbfec8dbefe898ff4f1a215e1bbd38311cb370b0f94dbb3bf8d3cf65c45f1b",
          "blockNumber": "0x1fd2d59",
          "blockTimestamp": "0x6884b795",
          "transactionHash": "0x48466f751037e77ca80c4382095c513b5280e50eec2ce74603173becb0487563",
          "transactionIndex": "0x71",
          "logIndex": "0x637",
          "removed": false
        },
        {
          "address": "0xbb4a04e5f24127440fa933343f2b34f309aebdde",
          "topics": [
            "0x66ace591f7c88075839f4a0246420d0cc8a34cbe9a924cd0e1ca63c336344f4b",
            "0x00000000000000000000000035e5db674d8e93a03d814fa0ada70731efe8a4b9",
            "0x000000000000000000000000000000000000000000000000000000000000002d"
          ],
          "data": "0x",
          "blockHash": "0xf2fbfec8dbefe898ff4f1a215e1bbd38311cb370b0f94dbb3bf8d3cf65c45f1b",
          "blockNumber": "0x1fd2d59",
          "blockTimestamp": "0x6884b795",
          "transactionHash": "0x48466f751037e77ca80c4382095c513b5280e50eec2ce74603173becb0487563",
          "transactionIndex": "0x71",
          "logIndex": "0x638",
          "removed": false
        },
        {
          "address": "0xbb4a04e5f24127440fa933343f2b34f309aebdde",
          "topics": [
            "0x077a94546a93ef5ed35409c7bd2466fb1170cfbd0faa6072ea22734d535f855f",
            "0x0000000000000000000000004a595e0a62e50a2e5ec95a70c8e612f9746af006",
            "0x00000000000000000000000035e5db674d8e93a03d814fa0ada70731efe8a4b9",
            "0x0000000000000000000000000000000000000000000000000000000000000348"
          ],
          "data": "0x",
          "blockHash": "0xf2fbfec8dbefe898ff4f1a215e1bbd38311cb370b0f94dbb3bf8d3cf65c45f1b",
          "blockNumber": "0x1fd2d59",
          "blockTimestamp": "0x6884b795",
          "transactionHash": "0x48466f751037e77ca80c4382095c513b5280e50eec2ce74603173becb0487563",
          "transactionIndex": "0x71",
          "logIndex": "0x639",
          "removed": false
        },
        {
          "address": "0xbb4a04e5f24127440fa933343f2b34f309aebdde",
          "topics": [
            "0x66ace591f7c88075839f4a0246420d0cc8a34cbe9a924cd0e1ca63c336344f4b",
            "0x0000000000000000000000000b3e328455c4059eeb9e3f84b5543f74e24e7e1b",
            "0x000000000000000000000000000000000000000000000000000000000000002e"
          ],
          "data": "0x",
          "blockHash": "0xf2fbfec8dbefe898ff4f1a215e1bbd38311cb370b0f94dbb3bf8d3cf65c45f1b",
          "blockNumber": "0x1fd2d59",
          "blockTimestamp": "0x6884b795",
          "transactionHash": "0x48466f751037e77ca80c4382095c513b5280e50eec2ce74603173becb0487563",
          "transactionIndex": "0x71",
          "logIndex": "0x63a",
          "removed": false
        },
        {
          "address": "0xbb4a04e5f24127440fa933343f2b34f309aebdde",
          "topics": [
            "0x077a94546a93ef5ed35409c7bd2466fb1170cfbd0faa6072ea22734d535f855f",
            "0x000000000000000000000000eaf310161c9ef7c813a14f8fef6fb271434019f7",
            "0x0000000000000000000000000b3e328455c4059eeb9e3f84b5543f74e24e7e1b",
            "0x0000000000000000000000000000000000000000000000000000000000000348"
          ],
          "data": "0x",
          "blockHash": "0xf2fbfec8dbefe898ff4f1a215e1bbd38311cb370b0f94dbb3bf8d3cf65c45f1b",
          "blockNumber": "0x1fd2d59",
          "blockTimestamp": "0x6884b795",
          "transactionHash": "0x48466f751037e77ca80c4382095c513b5280e50eec2ce74603173becb0487563",
          "transactionIndex": "0x71",
          "logIndex": "0x63b",
          "removed": false
        },
        {
          "address": "0xbb4a04e5f24127440fa933343f2b34f309aebdde",
          "topics": [
            "0x66ace591f7c88075839f4a0246420d0cc8a34cbe9a924cd0e1ca63c336344f4b",
            "0x000000000000000000000000acfe6019ed1a7dc6f7b508c02d1b04ec88cc21bf",
            "0x000000000000000000000000000000000000000000000000000000000000002f"
          ],
          "data": "0x",
          "blockHash": "0xf2fbfec8dbefe898ff4f1a215e1bbd38311cb370b0f94dbb3bf8d3cf65c45f1b",
          "blockNumber": "0x1fd2d59",
          "blockTimestamp": "0x6884b795",
          "transactionHash": "0x48466f751037e77ca80c4382095c513b5280e50eec2ce74603173becb0487563",
          "transactionIndex": "0x71",
          "logIndex": "0x63c",
          "removed": false
        },
        {
          "address": "0xbb4a04e5f24127440fa933343f2b34f309aebdde",
          "topics": [
            "0x077a94546a93ef5ed35409c7bd2466fb1170cfbd0faa6072ea22734d535f855f",
            "0x0000000000000000000000008ec6a128a430f7a850165bcf18facc9520a9873f",
            "0x000000000000000000000000acfe6019ed1a7dc6f7b508c02d1b04ec88cc21bf",
            "0x0000000000000000000000000000000000000000000000000000000000000348"
          ],
          "data": "0x",
          "blockHash": "0xf2fbfec8dbefe898ff4f1a215e1bbd38311cb370b0f94dbb3bf8d3cf65c45f1b",
          "blockNumber": "0x1fd2d59",
          "blockTimestamp": "0x6884b795",
          "transactionHash": "0x48466f751037e77ca80c4382095c513b5280e50eec2ce74603173becb0487563",
          "transactionIndex": "0x71",
          "logIndex": "0x63d",
          "removed": false
        },
        {
          "address": "0xbb4a04e5f24127440fa933343f2b34f309aebdde",
          "topics": [
            "0x66ace591f7c88075839f4a0246420d0cc8a34cbe9a924cd0e1ca63c336344f4b",
            "0x00000000000000000000000004c0599ae5a44757c0af6f9ec3b93da8976c150a",
            "0x0000000000000000000000000000000000000000000000000000000000000030"
          ],
          "data": "0x",
          "blockHash": "0xf2fbfec8dbefe898ff4f1a215e1bbd38311cb370b0f94dbb3bf8d3cf65c45f1b",
          "blockNumber": "0x1fd2d59",
          "blockTimestamp": "0x6884b795",
          "transactionHash": "0x48466f751037e77ca80c4382095c513b5280e50eec2ce74603173becb0487563",
          "transactionIndex": "0x71",
          "logIndex": "0x63e",
          "removed": false
        },
        {
          "address": "0xbb4a04e5f24127440fa933343f2b34f309aebdde",
          "topics": [
            "0x077a94546a93ef5ed35409c7bd2466fb1170cfbd0faa6072ea22734d535f855f",
            "0x000000000000000000000000fc1415403ebb0c693f9a7844b92ad2ff24775c65",
            "0x00000000000000000000000004c0599ae5a44757c0af6f9ec3b93da8976c150a",
            "0x0000000000000000000000004200000000000000000000000000000000000006"
          ],
          "data": "0x",
          "blockHash": "0xf2fbfec8dbefe898ff4f1a215e1bbd38311cb370b0f94dbb3bf8d3cf65c45f1b",
          "blockNumber": "0x1fd2d59",
          "blockTimestamp": "0x6884b795",
          "transactionHash": "0x48466f751037e77ca80c4382095c513b5280e50eec2ce74603173becb0487563",
          "transactionIndex": "0x71",
          "logIndex": "0x63f",
          "removed": false
        },
        {
          "address": "0xbb4a04e5f24127440fa933343f2b34f309aebdde",
          "topics": [
            "0x66ace591f7c88075839f4a0246420d0cc8a34cbe9a924cd0e1ca63c336344f4b",
            "0x000000000000000000000000ff8adec2221f9f4d8dfbafa6b9a297d17603493d",
            "0x0000000000000000000000000000000000000000000000000000000000000031"
          ],
          "data": "0x",
          "blockHash": "0xf2fbfec8dbefe898ff4f1a215e1bbd38311cb370b0f94dbb3bf8d3cf65c45f1b",
          "blockNumber": "0x1fd2d59",
          "blockTimestamp": "0x6884b795",
          "transactionHash": "0x48466f751037e77ca80c4382095c513b5280e50eec2ce74603173becb0487563",
          "transactionIndex": "0x71",
          "logIndex": "0x640",
          "removed": false
        },
        {
          "address": "0xbb4a04e5f24127440fa933343f2b34f309aebdde",
          "topics": [
            "0x077a94546a93ef5ed35409c7bd2466fb1170cfbd0faa6072ea22734d535f855f",
            "0x000000000000000000000000c15d9944daefe2db03e53bef8dda25a56832c5fe",
            "0x000000000000000000000000ff8adec2221f9f4d8dfbafa6b9a297d17603493d",
            "0x0000000000000000000000000000000000000000000000000000000000000348"
          ],
          "data": "0x",
          "blockHash": "0xf2fbfec8dbefe898ff4f1a215e1bbd38311cb370b0f94dbb3bf8d3cf65c45f1b",
          "blockNumber": "0x1fd2d59",
          "blockTimestamp": "0x6884b795",
          "transactionHash": "0x48466f751037e77ca80c4382095c513b5280e50eec2ce74603173becb0487563",
          "transactionIndex": "0x71",
          "logIndex": "0x641",
          "removed": false
        },
        {
          "address": "0xbb4a04e5f24127440fa933343f2b34f309aebdde",
          "topics": [
            "0x66ace591f7c88075839f4a0246420d0cc8a34cbe9a924cd0e1ca63c336344f4b",
            "0x000000000000000000000000c1cba3fcea344f92d9239c08c0568f6f2f0ee452",
            "0x0000000000000000000000000000000000000000000000000000000000000032"
          ],
          "data": "0x",
          "blockHash": "0xf2fbfec8dbefe898ff4f1a215e1bbd38311cb370b0f94dbb3bf8d3cf65c45f1b",
          "blockNumber": "0x1fd2d59",
          "blockTimestamp": "0x6884b795",
          "transactionHash": "0x48466f751037e77ca80c4382095c513b5280e50eec2ce74603173becb0487563",
          "transactionIndex": "0x71",
          "logIndex": "0x642",
          "removed": false
        },
        {
          "address": "0xbb4a04e5f24127440fa933343f2b34f309aebdde",
          "topics": [
            "0x077a94546a93ef5ed35409c7bd2466fb1170cfbd0faa6072ea22734d535f855f",
            "0x00000000000000000000000043a5c292a453a3bf3606fa856197f09d7b74251a",
            "0x000000000000000000000000c1cba3fcea344f92d9239c08c0568f6f2f0ee452",
            "0x0000000000000000000000004200000000000000000000000000000000000006"
          ],
          "data": "0x",
          "blockHash": "0xf2fbfec8dbefe898ff4f1a215e1bbd38311cb370b0f94dbb3bf8d3cf65c45f1b",
          "blockNumber": "0x1fd2d59",
          "blockTimestamp": "0x6884b795",
          "transactionHash": "0x48466f751037e77ca80c4382095c513b5280e50eec2ce74603173becb0487563",
          "transactionIndex": "0x71",
          "logIndex": "0x643",
          "removed": false
        },
        {
          "address": "0xbb4a04e5f24127440fa933343f2b34f309aebdde",
          "topics": [
            "0x66ace591f7c88075839f4a0246420d0cc8a34cbe9a924cd0e1ca63c336344f4b",
            "0x0000000000000000000000009eaf8c1e34f05a589eda6bafdf391cf6ad3cb239",
            "0x0000000000000000000000000000000000000000000000000000000000000033"
          ],
          "data": "0x",
          "blockHash": "0xf2fbfec8dbefe898ff4f1a215e1bbd38311cb370b0f94dbb3bf8d3cf65c45f1b",
          "blockNumber": "0x1fd2d59",
          "blockTimestamp": "0x6884b795",
          "transactionHash": "0x48466f751037e77ca80c4382095c513b5280e50eec2ce74603173becb0487563",
          "transactionIndex": "0x71",
          "logIndex": "0x644",
          "removed": false
        },
        {
          "address": "0xbb4a04e5f24127440fa933343f2b34f309aebdde",
          "topics": [
            "0x077a94546a93ef5ed35409c7bd2466fb1170cfbd0faa6072ea22734d535f855f",
            "0x000000000000000000000000d40e758b5ec80820b68dfc302fc5ce1239083548",
            "0x0000000000000000000000009eaf8c1e34f05a589eda6bafdf391cf6ad3cb239",
            "0x0000000000000000000000000000000000000000000000000000000000000348"
          ],
          "data": "0x",
          "blockHash": "0xf2fbfec8dbefe898ff4f1a215e1bbd38311cb370b0f94dbb3bf8d3cf65c45f1b",
          "blockNumber": "0x1fd2d59",
          "blockTimestamp": "0x6884b795",
          "transactionHash": "0x48466f751037e77ca80c4382095c513b5280e50eec2ce74603173becb0487563",
          "transactionIndex": "0x71",
          "logIndex": "0x645",
          "removed": false
        },
        {
          "address": "0xbb4a04e5f24127440fa933343f2b34f309aebdde",
          "topics": [
            "0x66ace591f7c88075839f4a0246420d0cc8a34cbe9a924cd0e1ca63c336344f4b",
            "0x0000000000000000000000002c8c89c442436cc6c0a77943e09c8daf49da3161",
            "0x0000000000000000000000000000000000000000000000000000000000000034"
          ],
          "data": "0x",
          "blockHash": "0xf2fbfec8dbefe898ff4f1a215e1bbd38311cb370b0f94dbb3bf8d3cf65c45f1b",
          "blockNumber": "0x1fd2d59",
          "blockTimestamp": "0x6884b795",
          "transactionHash": "0x48466f751037e77ca80c4382095c513b5280e50eec2ce74603173becb0487563",
          "transactionIndex": "0x71",
          "logIndex": "0x646",
          "removed": false
        },
        {
          "address": "0xbb4a04e5f24127440fa933343f2b34f309aebdde",
          "topics": [
            "0x077a94546a93ef5ed35409c7bd2466fb1170cfbd0faa6072ea22734d535f855f",
            "0x00000000000000000000000019c6501ee6ff5faf36346031a92c46af128807d3",
            "0x0000000000000000000000002c8c89c442436cc6c0a77943e09c8daf49da3161",
            "0x0000000000000000000000000000000000000000000000000000000000000348"
          ],
          "data": "0x",
          "blockHash": "0xf2fbfec8dbefe898ff4f1a215e1bbd38311cb370b0f94dbb3bf8d3cf65c45f1b",
          "blockNumber": "0x1fd2d59",
          "blockTimestamp": "0x6884b795",
          "transactionHash": "0x48466f751037e77ca80c4382095c513b5280e50eec2ce74603173becb0487563",
          "transactionIndex": "0x71",
          "logIndex": "0x647",
          "removed": false
        },
        {
          "address": "0xbb4a04e5f24127440fa933343f2b34f309aebdde",
          "topics": [
            "0x66ace591f7c88075839f4a0246420d0cc8a34cbe9a924cd0e1ca63c336344f4b",
            "0x0000000000000000000000006985884c4392d348587b19cb9eaaf157f13271cd",
            "0x0000000000000000000000000000000000000000000000000000000000000035"
          ],
          "data": "0x",
          "blockHash": "0xf2fbfec8dbefe898ff4f1a215e1bbd38311cb370b0f94dbb3bf8d3cf65c45f1b",
          "blockNumber": "0x1fd2d59",
          "blockTimestamp": "0x6884b795",
          "transactionHash": "0x48466f751037e77ca80c4382095c513b5280e50eec2ce74603173becb0487563",
          "transactionIndex": "0x71",
          "logIndex": "0x648",
          "removed": false
        },
        {
          "address": "0xbb4a04e5f24127440fa933343f2b34f309aebdde",
          "topics": [
            "0x077a94546a93ef5ed35409c7bd2466fb1170cfbd0faa6072ea22734d535f855f",
            "0x000000000000000000000000dc31a4ccfca039bec6222e20be7770e12581bfeb",
            "0x0000000000000000000000006985884c4392d348587b19cb9eaaf157f13271cd",
            "0x0000000000000000000000000000000000000000000000000000000000000348"
          ],
          "data": "0x",
          "blockHash": "0xf2fbfec8dbefe898ff4f1a215e1bbd38311cb370b0f94dbb3bf8d3cf65c45f1b",
          "blockNumber": "0x1fd2d59",
          "blockTimestamp": "0x6884b795",
          "transactionHash": "0x48466f751037e77ca80c4382095c513b5280e50eec2ce74603173becb0487563",
          "transactionIndex": "0x71",
          "logIndex": "0x649",
          "removed": false
        }
      ],
      "logsBloom": "0x2602088090000806004200d4008081100448a202109150504088141502018046500300a0c0044a1225021101040200a2801031007e0d91a0b2240016a0a60820149030000040058880c052108100000018430040000c00d12103120010034000090004000109c100100422010201614221025000500026200800010a0440020000a0460443800a00430800c04409441e1800990044c663120000c250402208800015450011d6a0042292c196512102101543000842898064022054180401440060111481a0009434841004c00404a1040a202142a0022008248801285449607aa400c207002421808c118010012a1cc219b0011004810c05950820802288a200",
      "type": "0x2",
      "transactionHash": "0x48466f751037e77ca80c4382095c513b5280e50eec2ce74603173becb0487563",
      "transactionIndex": "0x71",
      "blockHash": "0xf2fbfec8dbefe898ff4f1a215e1bbd38311cb370b0f94dbb3bf8d3cf65c45f1b",
      "blockNumber": "0x1fd2d59",
      "gasUsed": "0x5989f4",
      "effectiveGasPrice": "0x33a4a4",
      "from": "0x7f3119f15153b353c2a903468b84899b1ac207bb",
      "to": "0xbb4a04e5f24127440fa933343f2b34f309aebdde",
      "contractAddress": null,
      "l1BaseFeeScalar": "0x8dd",
      "l1BlobBaseFee": "0x1",
      "l1BlobBaseFeeScalar": "0x101c12",
      "l1Fee": "0x46fa42f0e",
      "l1GasPrice": "0xe99f81e",
      "l1GasUsed": "0x85e5"
    }
  ],
  "libraries": [],
  "pending": [],
  "returns": {},
  "timestamp": 1753528212,
  "chain": 8453,
  "commit": "e9531ff"
}